{
  "_format": "hh-sol-artifact-1",
  "contractName": "Community",
  "sourceName": "contracts/community/Community.sol",
  "abi": [
    {
      "inputs": [
        {
          "internalType": "string",
          "name": "_url",
          "type": "string"
        },
        {
          "internalType": "address",
          "name": "_addrProvider",
          "type": "address"
        },
        {
          "internalType": "uint256",
          "name": "_totalMembersAllowed",
          "type": "uint256"
        },
        {
          "internalType": "bool",
          "name": "_claimableSkillWallets",
          "type": "bool"
        }
      ],
      "stateMutability": "nonpayable",
      "type": "constructor"
    },
    {
      "anonymous": false,
      "inputs": [
        {
          "indexed": true,
          "internalType": "address",
          "name": "_member",
          "type": "address"
        },
        {
          "indexed": false,
          "internalType": "uint256",
          "name": "_skillWalletTokenId",
          "type": "uint256"
        },
        {
          "indexed": false,
          "internalType": "uint256",
          "name": "_transferredTokens",
          "type": "uint256"
        }
      ],
      "name": "MemberAdded",
      "type": "event"
    },
    {
      "anonymous": false,
      "inputs": [
        {
          "indexed": true,
          "internalType": "address",
          "name": "_member",
          "type": "address"
        }
      ],
      "name": "MemberLeft",
      "type": "event"
    },
    {
      "inputs": [],
      "name": "activeMembersCount",
      "outputs": [
        {
          "internalType": "uint16",
          "name": "",
          "type": "uint16"
        }
      ],
      "stateMutability": "view",
      "type": "function"
    },
    {
      "inputs": [
        {
          "internalType": "uint256",
          "name": "projectId",
          "type": "uint256"
        }
      ],
      "name": "addProjectId",
      "outputs": [],
      "stateMutability": "nonpayable",
      "type": "function"
    },
    {
      "inputs": [
        {
          "internalType": "address",
          "name": "member",
          "type": "address"
        }
      ],
      "name": "balanceOf",
      "outputs": [
        {
          "internalType": "uint256",
          "name": "",
          "type": "uint256"
        }
      ],
      "stateMutability": "view",
      "type": "function"
    },
    {
      "inputs": [],
      "name": "ditoCreditsAddr",
      "outputs": [
        {
          "internalType": "address",
          "name": "",
          "type": "address"
        }
      ],
      "stateMutability": "view",
      "type": "function"
    },
    {
      "inputs": [],
      "name": "ditoCreditsHolder",
      "outputs": [
        {
          "internalType": "address",
          "name": "",
          "type": "address"
        }
      ],
      "stateMutability": "view",
      "type": "function"
    },
    {
      "inputs": [],
      "name": "getMemberAddresses",
      "outputs": [
        {
          "internalType": "address[]",
          "name": "",
          "type": "address[]"
        }
      ],
      "stateMutability": "view",
      "type": "function"
    },
    {
      "inputs": [],
      "name": "getMembers",
      "outputs": [
        {
          "internalType": "uint256[]",
          "name": "",
          "type": "uint256[]"
        }
      ],
      "stateMutability": "view",
      "type": "function"
    },
    {
      "inputs": [
        {
          "internalType": "uint256",
          "name": "projectId",
          "type": "uint256"
        }
      ],
      "name": "getProjectTreasuryAddress",
      "outputs": [
        {
          "internalType": "address",
          "name": "",
          "type": "address"
        }
      ],
      "stateMutability": "view",
      "type": "function"
    },
    {
      "inputs": [],
      "name": "getProjects",
      "outputs": [
        {
          "internalType": "uint256[]",
          "name": "",
          "type": "uint256[]"
        }
      ],
      "stateMutability": "view",
      "type": "function"
    },
    {
      "inputs": [],
      "name": "getSkillWalletAddress",
      "outputs": [
        {
          "internalType": "address",
          "name": "",
          "type": "address"
        }
      ],
      "stateMutability": "nonpayable",
      "type": "function"
    },
    {
      "inputs": [],
      "name": "getTemplate",
      "outputs": [
        {
          "internalType": "uint256",
          "name": "",
          "type": "uint256"
        }
      ],
      "stateMutability": "view",
      "type": "function"
    },
    {
      "inputs": [],
      "name": "getTokenId",
      "outputs": [
        {
          "internalType": "uint256",
          "name": "",
          "type": "uint256"
        }
      ],
      "stateMutability": "view",
      "type": "function"
    },
    {
      "inputs": [],
      "name": "getTreasuryBalance",
      "outputs": [
        {
          "internalType": "uint256",
          "name": "",
          "type": "uint256"
        }
      ],
      "stateMutability": "view",
      "type": "function"
    },
    {
      "inputs": [],
      "name": "gigsAddr",
      "outputs": [
        {
          "internalType": "address",
          "name": "",
          "type": "address"
        }
      ],
      "stateMutability": "view",
      "type": "function"
    },
    {
      "inputs": [
        {
          "internalType": "address",
          "name": "",
          "type": "address"
        }
      ],
      "name": "isMember",
      "outputs": [
        {
          "internalType": "bool",
          "name": "",
          "type": "bool"
        }
      ],
      "stateMutability": "view",
      "type": "function"
    },
    {
      "inputs": [
        {
          "internalType": "uint256",
          "name": "skillWalletTokenId",
          "type": "uint256"
        },
        {
          "internalType": "uint256",
          "name": "credits",
          "type": "uint256"
        }
      ],
      "name": "join",
      "outputs": [],
      "stateMutability": "nonpayable",
      "type": "function"
    },
    {
      "inputs": [
        {
          "internalType": "string",
          "name": "uri",
          "type": "string"
        },
        {
          "internalType": "uint256",
          "name": "credits",
          "type": "uint256"
        }
      ],
      "name": "joinNewMember",
      "outputs": [],
      "stateMutability": "nonpayable",
      "type": "function"
    },
    {
      "inputs": [
        {
          "internalType": "address",
          "name": "memberAddress",
          "type": "address"
        }
      ],
      "name": "leave",
      "outputs": [],
      "stateMutability": "nonpayable",
      "type": "function"
    },
    {
      "inputs": [
        {
          "internalType": "uint256",
          "name": "",
          "type": "uint256"
        }
      ],
      "name": "memberAddresses",
      "outputs": [
        {
          "internalType": "address",
          "name": "",
          "type": "address"
        }
      ],
      "stateMutability": "view",
      "type": "function"
    },
    {
      "inputs": [],
      "name": "metadataUri",
      "outputs": [
        {
          "internalType": "string",
          "name": "",
          "type": "string"
        }
      ],
      "stateMutability": "view",
      "type": "function"
    },
    {
      "inputs": [],
      "name": "scarcityScore",
      "outputs": [
        {
          "internalType": "uint256",
          "name": "",
          "type": "uint256"
        }
      ],
      "stateMutability": "view",
      "type": "function"
    },
    {
      "inputs": [
        {
          "internalType": "uint256",
          "name": "",
          "type": "uint256"
        }
      ],
      "name": "skillWalletIds",
      "outputs": [
        {
          "internalType": "uint256",
          "name": "",
          "type": "uint256"
        }
      ],
      "stateMutability": "view",
      "type": "function"
    },
    {
      "inputs": [],
      "name": "tokenId",
      "outputs": [
        {
          "internalType": "uint256",
          "name": "",
          "type": "uint256"
        }
      ],
      "stateMutability": "view",
      "type": "function"
    },
    {
      "inputs": [
        {
          "internalType": "address",
          "name": "to",
          "type": "address"
        },
        {
          "internalType": "uint256",
          "name": "amount",
          "type": "uint256"
        }
      ],
      "name": "transferCredits",
      "outputs": [],
      "stateMutability": "nonpayable",
      "type": "function"
    },
    {
      "inputs": [
        {
          "internalType": "address",
          "name": "from",
          "type": "address"
        },
        {
          "internalType": "uint256",
          "name": "amount",
          "type": "uint256"
        }
      ],
      "name": "transferToCommunity",
      "outputs": [],
      "stateMutability": "nonpayable",
      "type": "function"
    },
    {
      "inputs": [],
      "name": "treasuryAddr",
      "outputs": [
        {
          "internalType": "address",
          "name": "",
          "type": "address"
        }
      ],
      "stateMutability": "view",
      "type": "function"
    }
  ],
  "bytecode": "0x60806040523480156200001157600080fd5b50604051620025f8380380620025f8833981016040819052620000349162000958565b81516200004990600090602085019062000826565b50600680546001600160a01b0319163317905560405181906200006c90620008ab565b604051809103906000f08015801562000089573d6000803e3d6000fd5b50600a60006101000a8154816001600160a01b0302191690836001600160a01b031602179055506000816001600160a01b031663654b60606040518163ffffffff1660e01b815260040160206040518083038186803b158015620000ec57600080fd5b505afa15801562000101573d6000803e3d6000fd5b505050506040513d601f19601f8201168201806040525081019062000127919062000928565b600a54604051634c96a38960e01b81529192506001600160a01b0380841692634c96a389926200015c92169060040162000a47565b602060405180830381600087803b1580156200017757600080fd5b505af11580156200018c573d6000803e3d6000fd5b505050506040513d601f19601f82011682018060405250810190620001b2919062000928565b600760006101000a8154816001600160a01b0302191690836001600160a01b03160217905550816001600160a01b031663bd985e7b6040518163ffffffff1660e01b815260040160206040518083038186803b1580156200021257600080fd5b505afa15801562000227573d6000803e3d6000fd5b505050506040513d601f19601f820116820180604052508101906200024d919062000928565b600754604051634c96a38960e01b81526001600160a01b0392831692634c96a38992620002809291169060040162000a47565b602060405180830381600087803b1580156200029b57600080fd5b505af1158015620002b0573d6000803e3d6000fd5b505050506040513d601f19601f82011682018060405250810190620002d6919062000928565b600860006101000a8154816001600160a01b0302191690836001600160a01b03160217905550816001600160a01b031663c35db89d6040518163ffffffff1660e01b815260040160206040518083038186803b1580156200033657600080fd5b505afa1580156200034b573d6000803e3d6000fd5b505050506040513d601f19601f8201168201806040525081019062000371919062000928565b6001600160a01b031663775c300c6040518163ffffffff1660e01b8152600401602060405180830381600087803b158015620003ac57600080fd5b505af1158015620003c1573d6000803e3d6000fd5b505050506040513d601f19601f82011682018060405250810190620003e7919062000928565b600980546001600160a01b0319166001600160a01b039290921691909117905562000423600080808080808a686c6b935b8bbd4000006200042d565b5050505062000be8565b600154601861ffff9091161115620004625760405162461bcd60e51b8152600401620004599062000b20565b60405180910390fd5b3360009081526005602052604090205460ff1615620004955760405162461bcd60e51b8152600401620004599062000b64565b6006546000906001600160a01b03163314620004b25733620004bf565b6008546001600160a01b03165b9050620004cb620008b9565b506040805160a0810182526001600160401b03808c166060830190815260ff808d166080850152908352835180850185528b831681528a82166020828101919091528085019190915284518086018652928a1683529088168282015282840191909152600654835163544a695560e11b8152935192936000936001600160a01b039092169263a894d2aa92600480840193829003018186803b1580156200057157600080fd5b505afa15801562000586573d6000803e3d6000fd5b505050506040513d601f19601f82011682018060405250810190620005ac919062000928565b604051630a73b69d60e01b81529091506001600160a01b03821690630a73b69d90620005e190869086908a9060040162000a9c565b600060405180830381600087803b158015620005fc57600080fd5b505af115801562000611573d6000803e3d6000fd5b50506040516342ca962960e01b8152600092506001600160a01b03841691506342ca9629906200064690879060040162000a47565b60206040518083038186803b1580156200065f57600080fd5b505afa15801562000674573d6000803e3d6000fd5b505050506040513d601f19601f820116820180604052508101906200069a919062000a13565b60075460405163e43252d760e01b81529192506001600160a01b03169063e43252d790620006cd90879060040162000a47565b600060405180830381600087803b158015620006e857600080fd5b505af1158015620006fd573d6000803e3d6000fd5b5050600754600a546040516362ad1b8360e01b81526001600160a01b0392831694506362ad1b8393506200073c929091169088908a9060040162000a5b565b600060405180830381600087803b1580156200075757600080fd5b505af11580156200076c573d6000803e3d6000fd5b50506003805460018181019092557fc2575a0e9e593c00f959f8c92f12db2869c3395a3b0502d05e2516446f71f85b018490556001600160a01b03871660008181526005602052604090819020805460ff191684179055825461ffff80821685011661ffff199091161790925590519092507fe17e0e2cd88e2144dd54f3d823c30d4569092bcac1aabaec1129883e9cc12d2e915062000810908490899062000b8e565b60405180910390a2505050505050505050505050565b828054600181600116156101000203166002900490600052602060002090601f016020900481019282601f106200086957805160ff191683800117855562000899565b8280016001018555821562000899579182015b82811115620008995782518255916020019190600101906200087c565b50620008a7929150620008f1565b5090565b6102a8806200235083390190565b6040518060600160405280620008ce62000911565b8152602001620008dd62000911565b8152602001620008ec62000911565b905290565b6200090e91905b80821115620008a75760008155600101620008f8565b90565b604080518082019091526000808252602082015290565b6000602082840312156200093a578081fd5b81516001600160a01b038116811462000951578182fd5b9392505050565b600080604083850312156200096b578081fd5b82516001600160401b038082111562000982578283fd5b81850186601f82011262000994578384fd5b8051925081831115620009a5578384fd5b604051601f8401601f191681016020018381118282101715620009c6578586fd5b604052838152818401602001881015620009de578485fd5b620009f184602083016020850162000b9c565b80955050505050602083015162000a088162000bcf565b809150509250929050565b60006020828403121562000a25578081fd5b5051919050565b80516001600160401b0316825260209081015160ff16910152565b6001600160a01b0391909116815260200190565b6001600160a01b039384168152919092166020820152604081019190915260a060608201819052600090820181905260c06080830181905282015260e00190565b600061010060018060a01b038616835262000abc60208401865162000a2c565b602085015162000ad0606085018262000a2c565b50604085015162000ae560a085018262000a2c565b508060e084015283518082850152610120915062000b0a818386016020880162000b9c565b601f01601f191692909201909101949350505050565b60208082526024908201527f54686572652061726520616c7265616479203234206d656d626572732c20736f6040820152637272792160e01b606082015260800190565b60208082526010908201526f20b63932b0b23c90309036b2b6b132b960811b604082015260600190565b918252602082015260400190565b60005b8381101562000bb957818101518382015260200162000b9f565b8381111562000bc9576000848401525b50505050565b6001600160a01b038116811462000be557600080fd5b50565b6117588062000bf86000396000f3fe608060405234801561001057600080fd5b506004361061014d5760003560e01c8063964c42be116100c3578063b522f69a1161007c578063b522f69a1461026a578063bedf77a61461027d578063cfeaeb8b14610290578063dcc60128146102a3578063f79489d1146102ab578063fb97033e146102be5761014d565b8063964c42be146102155780639b5655dc1461021d5780639eab525314610225578063a230c5241461023a578063aa3b214b1461025a578063ac254bc9146102625761014d565b8063321c48f211610115578063321c48f2146101aa57806370a08231146101b257806377a4d559146101c557806379e66b46146101da5780637c8da89d146101ed5780638f853115146102025761014d565b8063010a38f514610152578063122d658a14610170578063135b41651461018557806317d70f7c1461018d57806330d9a62a14610195575b600080fd5b61015a6102d1565b60405161016791906116ce565b60405180910390f35b61018361017e3660046112f2565b61035c565b005b61015a610734565b61015a61073a565b61019d610740565b604051610167919061146e565b61015a61074f565b61015a6101c036600461121e565b610861565b6101cd610937565b604051610167919061158b565b6101836101e83660046112d1565b6109c5565b6101f5610cd2565b60405161016791906116bf565b61015a6102103660046112a1565b610cdc565b61019d610cfa565b61015a610d09565b61022d610d96565b604051610167919061153c565b61024d61024836600461121e565b610dee565b6040516101679190611580565b61019d610e03565b61019d610e12565b61019d6102783660046112a1565b610e21565b61018361028b36600461121e565b610f30565b61018361029e366004611256565b610f67565b61022d611000565b6101836102b93660046112a1565b611056565b6101836102cc366004611256565b61108b565b600654604051630e6741d360e31b815260009182916001600160a01b039091169063733a0e989061030690309060040161146e565b60206040518083038186803b15801561031e57600080fd5b505afa158015610332573d6000803e3d6000fd5b505050506040513d601f19601f8201168201806040525081019061035691906112b9565b91505090565b600154601861ffff909116111561038e5760405162461bcd60e51b8152600401610385906115e3565b60405180910390fd5b3360009081526005602052604090205460ff16156103be5760405162461bcd60e51b81526004016103859061165e565b6006546000906001600160a01b031633146103d957336103e6565b6008546001600160a01b03165b90506103f06111d5565b506040805160a08101825267ffffffffffffffff808c166060830190815260ff808d166080850152908352835180850185528b831681528a82166020828101919091528085019190915284518086018652928a1683529088168282015282840191909152600654835163544a695560e11b8152935192936000936001600160a01b039092169263a894d2aa92600480840193829003018186803b15801561049657600080fd5b505afa1580156104aa573d6000803e3d6000fd5b505050506040513d601f19601f820116820180604052508101906104ce919061123a565b604051630a73b69d60e01b81529091506001600160a01b03821690630a73b69d9061050190869086908a906004016114c3565b600060405180830381600087803b15801561051b57600080fd5b505af115801561052f573d6000803e3d6000fd5b50506040516342ca962960e01b8152600092506001600160a01b03841691506342ca96299061056290879060040161146e565b60206040518083038186803b15801561057a57600080fd5b505afa15801561058e573d6000803e3d6000fd5b505050506040513d601f19601f820116820180604052508101906105b291906112b9565b60075460405163e43252d760e01b81529192506001600160a01b03169063e43252d7906105e390879060040161146e565b600060405180830381600087803b1580156105fd57600080fd5b505af1158015610611573d6000803e3d6000fd5b5050600754600a546040516362ad1b8360e01b81526001600160a01b0392831694506362ad1b83935061064e929091169088908a90600401611482565b600060405180830381600087803b15801561066857600080fd5b505af115801561067c573d6000803e3d6000fd5b50506003805460018181019092557fc2575a0e9e593c00f959f8c92f12db2869c3395a3b0502d05e2516446f71f85b018490556001600160a01b03871660008181526005602052604090819020805460ff191684179055825461ffff80821685011661ffff199091161790925590519092507fe17e0e2cd88e2144dd54f3d823c30d4569092bcac1aabaec1129883e9cc12d2e915061071e90849089906116d7565b60405180910390a2505050505050505050505050565b60025481565b60045481565b6008546001600160a01b031681565b600654604051630e6741d360e31b815260009182916001600160a01b039091169063733a0e989061078490309060040161146e565b60206040518083038186803b15801561079c57600080fd5b505afa1580156107b0573d6000803e3d6000fd5b505050506040513d601f19601f820116820180604052508101906107d491906112b9565b600654604051636fc6b3db60e01b81529192506000916001600160a01b0390911690636fc6b3db9061080a9085906004016116ce565b60206040518083038186803b15801561082257600080fd5b505afa158015610836573d6000803e3d6000fd5b505050506040513d601f19601f8201168201806040525081019061085a91906112b9565b9250505090565b6001600160a01b03811660009081526005602052604081205460ff16806108955750600a546001600160a01b038381169116145b6108b15760405162461bcd60e51b815260040161038590611688565b6007546040516370a0823160e01b81526001600160a01b03909116906370a08231906108e190859060040161146e565b60206040518083038186803b1580156108f957600080fd5b505afa15801561090d573d6000803e3d6000fd5b505050506040513d601f19601f8201168201806040525081019061093191906112b9565b92915050565b6000805460408051602060026001851615610100026000190190941693909304601f810184900484028201840190925281815292918301828280156109bd5780601f10610992576101008083540402835291602001916109bd565b820191906000526020600020905b8154815290600101906020018083116109a057829003601f168201915b505050505081565b600154601861ffff90911611156109ee5760405162461bcd60e51b8152600401610385906115e3565b6006546040805163544a695560e11b815290516000926001600160a01b03169163a894d2aa916004808301926020929190829003018186803b158015610a3357600080fd5b505afa158015610a47573d6000803e3d6000fd5b505050506040513d601f19601f82011682018060405250810190610a6b919061123a565b90506000816001600160a01b0316636352211e856040518263ffffffff1660e01b8152600401610a9b91906116ce565b60206040518083038186803b158015610ab357600080fd5b505afa158015610ac7573d6000803e3d6000fd5b505050506040513d601f19601f82011682018060405250810190610aeb919061123a565b6001600160a01b03811660009081526005602052604090205490915060ff1615610b275760405162461bcd60e51b815260040161038590611627565b6001600160a01b0381166000908152600560205260409020805460ff191660019081179091555460038054869261ffff16908110610b6157fe5b9060005260206000200181905550607b6003600181548110610b7f57fe5b6000918252602090912001556001805461ffff80821683011661ffff1990911617905560075460405163e43252d760e01b81526001600160a01b039091169063e43252d790610bd290849060040161146e565b600060405180830381600087803b158015610bec57600080fd5b505af1158015610c00573d6000803e3d6000fd5b505060075460405163a9059cbb60e01b81526001600160a01b03909116925063a9059cbb9150610c369084908790600401611523565b602060405180830381600087803b158015610c5057600080fd5b505af1158015610c64573d6000803e3d6000fd5b505050506040513d601f19601f82011682018060405250810190610c889190611281565b50806001600160a01b03167fe17e0e2cd88e2144dd54f3d823c30d4569092bcac1aabaec1129883e9cc12d2e8585604051610cc49291906116d7565b60405180910390a250505050565b60015461ffff1681565b60038181548110610ce957fe5b600091825260209091200154905081565b6009546001600160a01b031681565b6007546008546040516370a0823160e01b81526000926001600160a01b03908116926370a0823192610d41929091169060040161146e565b60206040518083038186803b158015610d5957600080fd5b505afa158015610d6d573d6000803e3d6000fd5b505050506040513d601f19601f82011682018060405250810190610d9191906112b9565b905090565b60606003805480602002602001604051908101604052809291908181526020018280548015610de457602002820191906000526020600020905b815481526020019060010190808311610dd0575b5050505050905090565b60056020526000908152604090205460ff1681565b600a546001600160a01b031681565b6007546001600160a01b031681565b600080600660009054906101000a90046001600160a01b03166001600160a01b031663f41f59036040518163ffffffff1660e01b815260040160206040518083038186803b158015610e7257600080fd5b505afa158015610e86573d6000803e3d6000fd5b505050506040513d601f19601f82011682018060405250810190610eaa919061123a565b604051635a917b4d60e11b81529091506001600160a01b0382169063b522f69a90610ed99086906004016116ce565b60206040518083038186803b158015610ef157600080fd5b505afa158015610f05573d6000803e3d6000fd5b505050506040513d601f19601f82011682018060405250810190610f29919061123a565b9392505050565b6040516001600160a01b038216907fbea911b50ccdd2233b28faa49766c3cbd0631608f32e5a724d7b83b32b681ad090600090a250565b6009546001600160a01b03163314610f915760405162461bcd60e51b81526004016103859061159e565b600754600a546040516362ad1b8360e01b81526001600160a01b03928316926362ad1b8392610fca928792909116908690600401611482565b600060405180830381600087803b158015610fe457600080fd5b505af1158015610ff8573d6000803e3d6000fd5b505050505050565b6060600b805480602002602001604051908101604052809291908181526020018280548015610de45760200282019190600052602060002090815481526020019060010190808311610dd0575050505050905090565b600b80546001810182556000919091527f0175b7a638427703f0dbe7bb9bbf987a2551717b34e79f33b5b1008d1fa01db90155565b336111865760075460085460405163a9059cbb60e01b81526001600160a01b039283169263a9059cbb926110c6929116908590600401611523565b602060405180830381600087803b1580156110e057600080fd5b505af11580156110f4573d6000803e3d6000fd5b505050506040513d601f19601f820116820180604052508101906111189190611281565b50600860009054906101000a90046001600160a01b03166001600160a01b031663ebf5a99f6040518163ffffffff1660e01b8152600401600060405180830381600087803b15801561116957600080fd5b505af115801561117d573d6000803e3d6000fd5b505050506111d1565b6009546001600160a01b03163314156111d157600754600a546040516362ad1b8360e01b81526001600160a01b03928316926362ad1b8392610fca9291169086908690600401611482565b5050565b60405180606001604052806111e8611207565b81526020016111f5611207565b8152602001611202611207565b905290565b604080518082019091526000808252602082015290565b60006020828403121561122f578081fd5b8135610f29816116e5565b60006020828403121561124b578081fd5b8151610f29816116e5565b60008060408385031215611268578081fd5b8235611273816116e5565b946020939093013593505050565b600060208284031215611292578081fd5b81518015158114610f29578182fd5b6000602082840312156112b2578081fd5b5035919050565b6000602082840312156112ca578081fd5b5051919050565b600080604083850312156112e3578182fd5b50508035926020909101359150565b600080600080600080600080610100898b03121561130e578384fd5b8835611319816116fd565b975060208981013561132a81611713565b975060408a013561133a816116fd565b965060608a013561134a81611713565b955060808a013561135a816116fd565b945060a08a013561136a81611713565b935060c08a013567ffffffffffffffff80821115611386578485fd5b818c018d601f820112611397578586fd5b80359250818311156113a7578586fd5b604051601f8401601f19168101850183811182821017156113c6578788fd5b60405283815281840185018f10156113dc578687fd5b838583018683013786858583010152809650505050505060e089013590509295985092959890939650565b60008151808452815b8181101561142c57602081850181015186830182015201611410565b8181111561143d5782602083870101525b50601f01601f19169290920160200192915050565b805167ffffffffffffffff16825260209081015160ff16910152565b6001600160a01b0391909116815260200190565b6001600160a01b039384168152919092166020820152604081019190915260a060608201819052600090820181905260c06080830181905282015260e00190565b600061010060018060a01b03861683526114e1602084018651611452565b60208501516114f36060850182611452565b50604085015161150660a0850182611452565b508060e084015261151981840185611407565b9695505050505050565b6001600160a01b03929092168252602082015260400190565b6020808252825182820181905260009190848201906040850190845b8181101561157457835183529284019291840191600101611558565b50909695505050505050565b901515815260200190565b600060208252610f296020830184611407565b60208082526025908201527f5468652063616c6c6572206d75737420626520746865206769677320636f6e746040820152643930b1ba1760d91b606082015260800190565b60208082526024908201527f54686572652061726520616c7265616479203234206d656d626572732c20736f6040820152637272792160e01b606082015260800190565b60208082526018908201527f596f75206861766520616c7265616479206a6f696e6564210000000000000000604082015260600190565b60208082526010908201526f20b63932b0b23c90309036b2b6b132b960811b604082015260600190565b6020808252601d908201527f4e6f742061206d656d626572206f662074686520636f6d6d756e697479000000604082015260600190565b61ffff91909116815260200190565b90815260200190565b918252602082015260400190565b6001600160a01b03811681146116fa57600080fd5b50565b67ffffffffffffffff811681146116fa57600080fd5b60ff811681146116fa57600080fdfea26469706673582212204725ea9e77afe6e3bf65bfe171c4cbeb33b5d0098ec10d508efdd047f31c06a164736f6c634300060a00336080604052600080546001600160a01b031916731820a4b7618bde71dce8cdc73aab6c95905fad2417905534801561003657600080fd5b506000546040516001600160a01b03909116906329965a1d90309061005a906100ba565b6040519081900381206001600160e01b031960e085901b168252610083929130906004016100e3565b600060405180830381600087803b15801561009d57600080fd5b505af11580156100b1573d6000803e3d6000fd5b50505050610106565b7f455243373737546f6b656e73526563697069656e740000000000000000000000815260150190565b6001600160a01b0393841681526020810192909252909116604082015260600190565b610193806101156000396000f3fe608060405234801561001057600080fd5b506004361061002a5760003560e01c806223de291461002f575b600080fd5b61004261003d3660046100b2565b610044565b005b5050505050505050565b80356001600160a01b038116811461006557600080fd5b92915050565b60008083601f84011261007c578182fd5b50813567ffffffffffffffff811115610093578182fd5b6020830191508360208285010111156100ab57600080fd5b9250929050565b60008060008060008060008060c0898b0312156100cd578384fd5b6100d78a8a61004e565b97506100e68a60208b0161004e565b96506100f58a60408b0161004e565b955060608901359450608089013567ffffffffffffffff80821115610118578586fd5b6101248c838d0161006b565b909650945060a08b013591508082111561013c578384fd5b506101498b828c0161006b565b999c989b509699509497939692959450505056fea2646970667358221220c2bcd7326fc35cb5ac38dd418adcdf3616ee80ea986d2671b2d8152632b9672064736f6c634300060a0033",
  "linkReferences": {},
  "deployedLinkReferences": {}
}