{
  "_format": "hh-sol-artifact-1",
  "contractName": "Community",
  "sourceName": "contracts/Community.sol",
  "abi": [
    {
      "inputs": [
        {
          "internalType": "string",
          "name": "_url",
          "type": "string"
        }
      ],
      "stateMutability": "nonpayable",
      "type": "constructor"
    },
    {
      "anonymous": false,
      "inputs": [
        {
          "indexed": true,
          "internalType": "address",
          "name": "_member",
          "type": "address"
        },
        {
          "indexed": false,
          "internalType": "uint256",
          "name": "_skillWalletTokenId",
          "type": "uint256"
        },
        {
          "indexed": false,
          "internalType": "uint256",
          "name": "_transferredTokens",
          "type": "uint256"
        }
      ],
      "name": "MemberAdded",
      "type": "event"
    },
    {
      "anonymous": false,
      "inputs": [
        {
          "indexed": true,
          "internalType": "address",
          "name": "_member",
          "type": "address"
        }
      ],
      "name": "MemberLeft",
      "type": "event"
    },
    {
      "inputs": [],
      "name": "activeMembersCount",
      "outputs": [
        {
          "internalType": "uint16",
          "name": "",
          "type": "uint16"
        }
      ],
      "stateMutability": "view",
      "type": "function"
    },
    {
      "inputs": [
        {
          "internalType": "uint256",
          "name": "projectId",
          "type": "uint256"
        }
      ],
      "name": "addProjectId",
      "outputs": [],
      "stateMutability": "nonpayable",
      "type": "function"
    },
    {
      "inputs": [],
      "name": "getMembers",
      "outputs": [
        {
          "internalType": "uint256[]",
          "name": "",
          "type": "uint256[]"
        }
      ],
      "stateMutability": "view",
      "type": "function"
    },
    {
      "inputs": [
        {
          "internalType": "uint256",
          "name": "projectId",
          "type": "uint256"
        }
      ],
      "name": "getProjectTreasuryAddress",
      "outputs": [
        {
          "internalType": "address",
          "name": "",
          "type": "address"
        }
      ],
      "stateMutability": "view",
      "type": "function"
    },
    {
      "inputs": [],
      "name": "getProjects",
      "outputs": [
        {
          "internalType": "uint256[]",
          "name": "",
          "type": "uint256[]"
        }
      ],
      "stateMutability": "view",
      "type": "function"
    },
    {
      "inputs": [],
      "name": "getTemplate",
      "outputs": [
        {
          "internalType": "uint256",
          "name": "",
          "type": "uint256"
        }
      ],
      "stateMutability": "view",
      "type": "function"
    },
    {
      "inputs": [],
      "name": "getTokenId",
      "outputs": [
        {
          "internalType": "uint256",
          "name": "",
          "type": "uint256"
        }
      ],
      "stateMutability": "view",
      "type": "function"
    },
    {
      "inputs": [],
      "name": "getTreasuryBalance",
      "outputs": [
        {
          "internalType": "uint256",
          "name": "",
          "type": "uint256"
        }
      ],
      "stateMutability": "view",
      "type": "function"
    },
    {
      "inputs": [
        {
          "internalType": "address",
          "name": "",
          "type": "address"
        }
      ],
      "name": "isMember",
      "outputs": [
        {
          "internalType": "bool",
          "name": "",
          "type": "bool"
        }
      ],
      "stateMutability": "view",
      "type": "function"
    },
    {
      "inputs": [
        {
          "internalType": "uint256",
          "name": "skillWalletTokenId",
          "type": "uint256"
        },
        {
          "internalType": "uint256",
          "name": "credits",
          "type": "uint256"
        }
      ],
      "name": "join",
      "outputs": [],
      "stateMutability": "nonpayable",
      "type": "function"
    },
    {
      "inputs": [
        {
          "internalType": "uint64",
          "name": "displayStringId1",
          "type": "uint64"
        },
        {
          "internalType": "uint8",
          "name": "level1",
          "type": "uint8"
        },
        {
          "internalType": "uint64",
          "name": "displayStringId2",
          "type": "uint64"
        },
        {
          "internalType": "uint8",
          "name": "level2",
          "type": "uint8"
        },
        {
          "internalType": "uint64",
          "name": "displayStringId3",
          "type": "uint64"
        },
        {
          "internalType": "uint8",
          "name": "level3",
          "type": "uint8"
        },
        {
          "internalType": "string",
          "name": "uri",
          "type": "string"
        },
        {
          "internalType": "uint256",
          "name": "credits",
          "type": "uint256"
        }
      ],
      "name": "joinNewMember",
      "outputs": [],
      "stateMutability": "nonpayable",
      "type": "function"
    },
    {
      "inputs": [
        {
          "internalType": "address",
          "name": "memberAddress",
          "type": "address"
        }
      ],
      "name": "leave",
      "outputs": [],
      "stateMutability": "nonpayable",
      "type": "function"
    },
    {
      "inputs": [],
      "name": "metadataUri",
      "outputs": [
        {
          "internalType": "string",
          "name": "",
          "type": "string"
        }
      ],
      "stateMutability": "view",
      "type": "function"
    },
    {
      "inputs": [],
      "name": "ownerId",
      "outputs": [
        {
          "internalType": "uint256",
          "name": "",
          "type": "uint256"
        }
      ],
      "stateMutability": "view",
      "type": "function"
    },
    {
      "inputs": [],
      "name": "scarcityScore",
      "outputs": [
        {
          "internalType": "uint256",
          "name": "",
          "type": "uint256"
        }
      ],
      "stateMutability": "view",
      "type": "function"
    },
    {
      "inputs": [
        {
          "internalType": "uint256",
          "name": "",
          "type": "uint256"
        }
      ],
      "name": "skillWalletIds",
      "outputs": [
        {
          "internalType": "uint256",
          "name": "",
          "type": "uint256"
        }
      ],
      "stateMutability": "view",
      "type": "function"
    },
    {
      "inputs": [],
      "name": "tokenId",
      "outputs": [
        {
          "internalType": "uint256",
          "name": "",
          "type": "uint256"
        }
      ],
      "stateMutability": "view",
      "type": "function"
    },
    {
      "inputs": [
        {
          "internalType": "uint256",
          "name": "amount",
          "type": "uint256"
        }
      ],
      "name": "transferToTreasury",
      "outputs": [],
      "stateMutability": "nonpayable",
      "type": "function"
    }
  ],
  "bytecode": "0x60806040523480156200001157600080fd5b50604051620032ff380380620032ff83398101604081905262000034916200066b565b80516200004990600090602084019062000509565b50600780546001600160a01b031916331790556040516200006a906200058e565b604051809103906000f08015801562000087573d6000803e3d6000fd5b50600880546001600160a01b0319166001600160a01b039283161790819055604051911690620000b7906200059c565b620000c3919062000741565b604051809103906000f080158015620000e0573d6000803e3d6000fd5b50600980546001600160a01b0319166001600160a01b03929092169190911790556200011d6000808080808087686cbed7a3c1a998000062000124565b5062000877565b600254601861ffff9091161115620001595760405162461bcd60e51b81526004016200015090620007f2565b60405180910390fd5b6007546000906001600160a01b0316331462000176573362000183565b6009546001600160a01b03165b90506200018f620005aa565b506040805160a0810182526001600160401b03808c166060830190815260ff808d166080850152908352835180850185528b831681528a82166020828101919091528085019190915284518086018652928a1683529088168282015282840191909152600754835163544a695560e11b8152935192936000936001600160a01b039092169263a894d2aa92600480840193829003018186803b1580156200023557600080fd5b505afa1580156200024a573d6000803e3d6000fd5b505050506040513d601f19601f8201168201806040525081019062000270919062000619565b604051630a73b69d60e01b81529091506001600160a01b03821690630a73b69d90620002a590869086908a9060040162000755565b600060405180830381600087803b158015620002c057600080fd5b505af1158015620002d5573d6000803e3d6000fd5b50506040516342ca962960e01b8152600092506001600160a01b03841691506342ca9629906200030a90879060040162000741565b60206040518083038186803b1580156200032357600080fd5b505afa15801562000338573d6000803e3d6000fd5b505050506040513d601f19601f820116820180604052508101906200035e91906200070d565b60085460405163e43252d760e01b81529192506001600160a01b03169063e43252d7906200039190879060040162000741565b600060405180830381600087803b158015620003ac57600080fd5b505af1158015620003c1573d6000803e3d6000fd5b505060085460405163a9059cbb60e01b81526001600160a01b03909116925063a9059cbb9150620003f99087908990600401620007d9565b602060405180830381600087803b1580156200041457600080fd5b505af115801562000429573d6000803e3d6000fd5b505050506040513d601f19601f820116820180604052508101906200044f919062000649565b506005805460018082019092557f036b6384b5eca791c62761152d0c79bb0604c104a5fb6f4eb0703f3154bb3db0018290556001600160a01b03851660008181526004602052604090819020805460ff1916841790556002805461ffff19811661ffff918216909501169390931790925590517fe17e0e2cd88e2144dd54f3d823c30d4569092bcac1aabaec1129883e9cc12d2e90620004f3908490899062000836565b60405180910390a2505050505050505050505050565b828054600181600116156101000203166002900490600052602060002090601f016020900481019282601f106200054c57805160ff19168380011785556200057c565b828001600101855582156200057c579182015b828111156200057c5782518255916020019190600101906200055f565b506200058a929150620005e2565b5090565b6113b98062001c4a83390190565b6102fc806200300383390190565b6040518060600160405280620005bf62000602565b8152602001620005ce62000602565b8152602001620005dd62000602565b905290565b620005ff91905b808211156200058a5760008155600101620005e9565b90565b604080518082019091526000808252602082015290565b6000602082840312156200062b578081fd5b81516001600160a01b038116811462000642578182fd5b9392505050565b6000602082840312156200065b578081fd5b8151801515811462000642578182fd5b6000602082840312156200067d578081fd5b81516001600160401b038082111562000694578283fd5b81840185601f820112620006a6578384fd5b8051925081831115620006b7578384fd5b604051601f8401601f191681016020018381118282101715620006d8578586fd5b604052838152818401602001871015620006f0578485fd5b6200070384602083016020850162000844565b9695505050505050565b6000602082840312156200071f578081fd5b5051919050565b80516001600160401b0316825260209081015160ff16910152565b6001600160a01b0391909116815260200190565b600061010060018060a01b03861683526200077560208401865162000726565b602085015162000789606085018262000726565b5060408501516200079e60a085018262000726565b508060e0840152835180828501526101209150620007c3818386016020880162000844565b601f01601f191692909201909101949350505050565b6001600160a01b03929092168252602082015260400190565b60208082526024908201527f54686572652061726520616c7265616479203234206d656d626572732c20736f6040820152637272792160e01b606082015260800190565b918252602082015260400190565b60005b838110156200086157818101518382015260200162000847565b8381111562000871576000848401525b50505050565b6113c380620008876000396000f3fe608060405234801561001057600080fd5b50600436106101165760003560e01c80637c8da89d116100a2578063a230c52411610071578063a230c524146101ee578063b522f69a1461020e578063bedf77a61461022e578063dcc6012814610241578063f79489d11461024957610116565b80637c8da89d146101a95780638f853115146101be5780639b5655dc146101d15780639eab5253146101d957610116565b8063135b4165116100e9578063135b41651461016957806317d70f7c14610171578063321c48f21461017957806377a4d5591461018157806379e66b461461019657610116565b8063010a38f51461011b578063019c08f514610139578063063d11de14610141578063122d658a14610156575b600080fd5b61012361025c565b6040516101309190611339565b60405180910390f35b6101236102e7565b61015461014f366004610ff3565b6102ed565b005b610154610164366004611044565b6103e1565b6101236107a6565b6101236107ac565b6101236107b2565b6101896108c4565b604051610130919061129c565b6101546101a4366004611023565b610952565b6101b1610c5f565b604051610130919061132a565b6101236101cc366004610ff3565b610c69565b610123610c87565b6101e1610d14565b604051610130919061124d565b6102016101fc366004610f9b565b610d6c565b6040516101309190611291565b61022161021c366004610ff3565b610d81565b60405161013091906111c0565b61015461023c366004610f9b565b610e90565b6101e1610ec7565b610154610257366004610ff3565b610f1d565b600754604051630e6741d360e31b815260009182916001600160a01b039091169063733a0e98906102919030906004016111c0565b60206040518083038186803b1580156102a957600080fd5b505afa1580156102bd573d6000803e3d6000fd5b505050506040513d601f19601f820116820180604052508101906102e1919061100b565b91505090565b60015481565b60085460095460405163a9059cbb60e01b81526001600160a01b039283169263a9059cbb92610323929116908590600401611234565b602060405180830381600087803b15801561033d57600080fd5b505af1158015610351573d6000803e3d6000fd5b505050506040513d601f19601f820116820180604052508101906103759190610fd3565b50600960009054906101000a90046001600160a01b03166001600160a01b031663ebf5a99f6040518163ffffffff1660e01b8152600401600060405180830381600087803b1580156103c657600080fd5b505af11580156103da573d6000803e3d6000fd5b5050505050565b600254601861ffff90911611156104135760405162461bcd60e51b815260040161040a906112af565b60405180910390fd5b6007546000906001600160a01b0316331461042e573361043b565b6009546001600160a01b03165b9050610445610f52565b506040805160a08101825267ffffffffffffffff808c166060830190815260ff808d166080850152908352835180850185528b831681528a82166020828101919091528085019190915284518086018652928a1683529088168282015282840191909152600754835163544a695560e11b8152935192936000936001600160a01b039092169263a894d2aa92600480840193829003018186803b1580156104eb57600080fd5b505afa1580156104ff573d6000803e3d6000fd5b505050506040513d601f19601f820116820180604052508101906105239190610fb7565b604051630a73b69d60e01b81529091506001600160a01b03821690630a73b69d9061055690869086908a906004016111d4565b600060405180830381600087803b15801561057057600080fd5b505af1158015610584573d6000803e3d6000fd5b50506040516342ca962960e01b8152600092506001600160a01b03841691506342ca9629906105b79087906004016111c0565b60206040518083038186803b1580156105cf57600080fd5b505afa1580156105e3573d6000803e3d6000fd5b505050506040513d601f19601f82011682018060405250810190610607919061100b565b60085460405163e43252d760e01b81529192506001600160a01b03169063e43252d7906106389087906004016111c0565b600060405180830381600087803b15801561065257600080fd5b505af1158015610666573d6000803e3d6000fd5b505060085460405163a9059cbb60e01b81526001600160a01b03909116925063a9059cbb915061069c9087908990600401611234565b602060405180830381600087803b1580156106b657600080fd5b505af11580156106ca573d6000803e3d6000fd5b505050506040513d601f19601f820116820180604052508101906106ee9190610fd3565b506005805460018082019092557f036b6384b5eca791c62761152d0c79bb0604c104a5fb6f4eb0703f3154bb3db0018290556001600160a01b03851660008181526004602052604090819020805460ff1916841790556002805461ffff19811661ffff918216909501169390931790925590517fe17e0e2cd88e2144dd54f3d823c30d4569092bcac1aabaec1129883e9cc12d2e906107909084908990611342565b60405180910390a2505050505050505050505050565b60035481565b60065481565b600754604051630e6741d360e31b815260009182916001600160a01b039091169063733a0e98906107e79030906004016111c0565b60206040518083038186803b1580156107ff57600080fd5b505afa158015610813573d6000803e3d6000fd5b505050506040513d601f19601f82011682018060405250810190610837919061100b565b600754604051636fc6b3db60e01b81529192506000916001600160a01b0390911690636fc6b3db9061086d908590600401611339565b60206040518083038186803b15801561088557600080fd5b505afa158015610899573d6000803e3d6000fd5b505050506040513d601f19601f820116820180604052508101906108bd919061100b565b9250505090565b6000805460408051602060026001851615610100026000190190941693909304601f8101849004840282018401909252818152929183018282801561094a5780601f1061091f5761010080835404028352916020019161094a565b820191906000526020600020905b81548152906001019060200180831161092d57829003601f168201915b505050505081565b600254601861ffff909116111561097b5760405162461bcd60e51b815260040161040a906112af565b6007546040805163544a695560e11b815290516000926001600160a01b03169163a894d2aa916004808301926020929190829003018186803b1580156109c057600080fd5b505afa1580156109d4573d6000803e3d6000fd5b505050506040513d601f19601f820116820180604052508101906109f89190610fb7565b90506000816001600160a01b0316636352211e856040518263ffffffff1660e01b8152600401610a289190611339565b60206040518083038186803b158015610a4057600080fd5b505afa158015610a54573d6000803e3d6000fd5b505050506040513d601f19601f82011682018060405250810190610a789190610fb7565b6001600160a01b03811660009081526004602052604090205490915060ff1615610ab45760405162461bcd60e51b815260040161040a906112f3565b6001600160a01b0381166000908152600460205260409020805460ff1916600117905560025460058054869261ffff16908110610aed57fe5b9060005260206000200181905550607b6005600181548110610b0b57fe5b6000918252602090912001556002805461ffff8082166001011661ffff1990911617905560085460405163e43252d760e01b81526001600160a01b039091169063e43252d790610b5f9084906004016111c0565b600060405180830381600087803b158015610b7957600080fd5b505af1158015610b8d573d6000803e3d6000fd5b505060085460405163a9059cbb60e01b81526001600160a01b03909116925063a9059cbb9150610bc39084908790600401611234565b602060405180830381600087803b158015610bdd57600080fd5b505af1158015610bf1573d6000803e3d6000fd5b505050506040513d601f19601f82011682018060405250810190610c159190610fd3565b50806001600160a01b03167fe17e0e2cd88e2144dd54f3d823c30d4569092bcac1aabaec1129883e9cc12d2e8585604051610c51929190611342565b60405180910390a250505050565b60025461ffff1681565b60058181548110610c7657fe5b600091825260209091200154905081565b6008546009546040516370a0823160e01b81526000926001600160a01b03908116926370a0823192610cbf92909116906004016111c0565b60206040518083038186803b158015610cd757600080fd5b505afa158015610ceb573d6000803e3d6000fd5b505050506040513d601f19601f82011682018060405250810190610d0f919061100b565b905090565b60606005805480602002602001604051908101604052809291908181526020018280548015610d6257602002820191906000526020600020905b815481526020019060010190808311610d4e575b5050505050905090565b60046020526000908152604090205460ff1681565b600080600760009054906101000a90046001600160a01b03166001600160a01b031663f41f59036040518163ffffffff1660e01b815260040160206040518083038186803b158015610dd257600080fd5b505afa158015610de6573d6000803e3d6000fd5b505050506040513d601f19601f82011682018060405250810190610e0a9190610fb7565b604051635a917b4d60e11b81529091506001600160a01b0382169063b522f69a90610e39908690600401611339565b60206040518083038186803b158015610e5157600080fd5b505afa158015610e65573d6000803e3d6000fd5b505050506040513d601f19601f82011682018060405250810190610e899190610fb7565b9392505050565b6040516001600160a01b038216907fbea911b50ccdd2233b28faa49766c3cbd0631608f32e5a724d7b83b32b681ad090600090a250565b6060600a805480602002602001604051908101604052809291908181526020018280548015610d625760200282019190600052602060002090815481526020019060010190808311610d4e575050505050905090565b600a80546001810182556000919091527fc65a7bb8d6351c1cf70c95a316cc6a92839c986682d98bc35f958f4883f9d2a80155565b6040518060600160405280610f65610f84565b8152602001610f72610f84565b8152602001610f7f610f84565b905290565b604080518082019091526000808252602082015290565b600060208284031215610fac578081fd5b8135610e8981611350565b600060208284031215610fc8578081fd5b8151610e8981611350565b600060208284031215610fe4578081fd5b81518015158114610e89578182fd5b600060208284031215611004578081fd5b5035919050565b60006020828403121561101c578081fd5b5051919050565b60008060408385031215611035578081fd5b50508035926020909101359150565b600080600080600080600080610100898b031215611060578384fd5b883561106b81611368565b975060208981013561107c8161137e565b975060408a013561108c81611368565b965060608a013561109c8161137e565b955060808a01356110ac81611368565b945060a08a01356110bc8161137e565b935060c08a013567ffffffffffffffff808211156110d8578485fd5b818c018d601f8201126110e9578586fd5b80359250818311156110f9578586fd5b604051601f8401601f1916810185018381118282101715611118578788fd5b60405283815281840185018f101561112e578687fd5b838583018683013786858583010152809650505050505060e089013590509295985092959890939650565b60008151808452815b8181101561117e57602081850181015186830182015201611162565b8181111561118f5782602083870101525b50601f01601f19169290920160200192915050565b805167ffffffffffffffff16825260209081015160ff16910152565b6001600160a01b0391909116815260200190565b600061010060018060a01b03861683526111f26020840186516111a4565b602085015161120460608501826111a4565b50604085015161121760a08501826111a4565b508060e084015261122a81840185611159565b9695505050505050565b6001600160a01b03929092168252602082015260400190565b6020808252825182820181905260009190848201906040850190845b8181101561128557835183529284019291840191600101611269565b50909695505050505050565b901515815260200190565b600060208252610e896020830184611159565b60208082526024908201527f54686572652061726520616c7265616479203234206d656d626572732c20736f6040820152637272792160e01b606082015260800190565b60208082526018908201527f596f75206861766520616c7265616479206a6f696e6564210000000000000000604082015260600190565b61ffff91909116815260200190565b90815260200190565b918252602082015260400190565b6001600160a01b038116811461136557600080fd5b50565b67ffffffffffffffff8116811461136557600080fd5b60ff8116811461136557600080fdfea2646970667358221220cf8282d7e5144d044c9e1d49991603286220331bfcf8293ef2c81f2417cc88fd64736f6c634300060a003360806040523480156200001157600080fd5b50604051806040016040528060048152602001634469546f60e01b815250604051806040016040528060048152602001634449544f60e01b815250816003908051906020019062000064929190620002b8565b5080516200007a906004906020840190620002b8565b50506005805460ff191660121790555060006200009f6001600160e01b036200013416565b60058054610100600160a81b0319166101006001600160a01b03841690810291909117909155604051919250906000907f8be0079c531659141344cd1fd0a4f28419497f9722a3daafe3b4186f6b6457e0908290a350336000818152600660205260409020805460ff191660011790556200012e906914542ba12a337c0000006001600160e01b036200013916565b6200035a565b335b90565b6001600160a01b03821662000195576040805162461bcd60e51b815260206004820152601f60248201527f45524332303a206d696e7420746f20746865207a65726f206164647265737300604482015290519081900360640190fd5b620001ac600083836001600160e01b036200025116565b620001c8816002546200025660201b62000a051790919060201c565b6002556001600160a01b03821660009081526020818152604090912054620001fb91839062000a0562000256821b17901c565b6001600160a01b0383166000818152602081815260408083209490945583518581529351929391927fddf252ad1be2c89b69c2b068fc378daa952ba7f163c4a11628f55a4df523b3ef9281900390910190a35050565b505050565b600082820183811015620002b1576040805162461bcd60e51b815260206004820152601b60248201527f536166654d6174683a206164646974696f6e206f766572666c6f770000000000604482015290519081900360640190fd5b9392505050565b828054600181600116156101000203166002900490600052602060002090601f016020900481019282601f10620002fb57805160ff19168380011785556200032b565b828001600101855582156200032b579182015b828111156200032b5782518255916020019190600101906200030e565b50620003399291506200033d565b5090565b6200013691905b8082111562000339576000815560010162000344565b61104f806200036a6000396000f3fe608060405234801561001057600080fd5b506004361061010b5760003560e01c80638ab1d681116100a2578063a457c2d711610071578063a457c2d71461030f578063a9059cbb1461033b578063dd62ed3e14610367578063e43252d714610395578063f2fde38b146103bb5761010b565b80638ab1d681146102975780638da5cb5b146102bd57806395d89b41146102e15780639b19251a146102e95761010b565b8063313ce567116100de578063313ce5671461021d578063395093511461023b57806370a0823114610267578063715018a61461028d5761010b565b806306fdde0314610110578063095ea7b31461018d57806318160ddd146101cd57806323b872dd146101e7575b600080fd5b6101186103e1565b6040805160208082528351818301528351919283929083019185019080838360005b8381101561015257818101518382015260200161013a565b50505050905090810190601f16801561017f5780820380516001836020036101000a031916815260200191505b509250505060405180910390f35b6101b9600480360360408110156101a357600080fd5b506001600160a01b038135169060200135610477565b604080519115158252519081900360200190f35b6101d56104c6565b60408051918252519081900360200190f35b6101b9600480360360608110156101fd57600080fd5b506001600160a01b038135811691602081013590911690604001356104cc565b61022561051d565b6040805160ff9092168252519081900360200190f35b6101b96004803603604081101561025157600080fd5b506001600160a01b038135169060200135610526565b6101d56004803603602081101561027d57600080fd5b50356001600160a01b031661056e565b610295610589565b005b610295600480360360208110156102ad57600080fd5b50356001600160a01b031661063b565b6102c56106f5565b604080516001600160a01b039092168252519081900360200190f35b610118610709565b6101b9600480360360208110156102ff57600080fd5b50356001600160a01b031661076a565b6101b96004803603604081101561032557600080fd5b506001600160a01b03813516906020013561077f565b6101b96004803603604081101561035157600080fd5b506001600160a01b0381351690602001356107c7565b6101d56004803603604081101561037d57600080fd5b506001600160a01b038135811691602001351661080f565b610295600480360360208110156103ab57600080fd5b50356001600160a01b031661083a565b610295600480360360208110156103d157600080fd5b50356001600160a01b03166108f7565b60038054604080516020601f600260001961010060018816150201909516949094049384018190048102820181019092528281526060939092909183018282801561046d5780601f106104425761010080835404028352916020019161046d565b820191906000526020600020905b81548152906001019060200180831161045057829003601f168201915b5050505050905090565b3360009081526006602052604081205460ff166104b5576040805162461bcd60e51b8152602060048201526000602482015290519081900360640190fd5b6104bf8383610a5f565b9392505050565b60025490565b3360009081526006602052604081205460ff1661050a576040805162461bcd60e51b8152602060048201526000602482015290519081900360640190fd5b610515848484610a7c565b949350505050565b60055460ff1690565b3360009081526006602052604081205460ff16610564576040805162461bcd60e51b8152602060048201526000602482015290519081900360640190fd5b6104bf8383610b09565b6001600160a01b031660009081526020819052604090205490565b610591610b5d565b6001600160a01b03166105a26106f5565b6001600160a01b0316146105eb576040805162461bcd60e51b81526020600482018190526024820152600080516020610f8c833981519152604482015290519081900360640190fd5b60055460405160009161010090046001600160a01b0316907f8be0079c531659141344cd1fd0a4f28419497f9722a3daafe3b4186f6b6457e0908390a360058054610100600160a81b0319169055565b610643610b5d565b6001600160a01b03166106546106f5565b6001600160a01b03161461069d576040805162461bcd60e51b81526020600482018190526024820152600080516020610f8c833981519152604482015290519081900360640190fd5b6001600160a01b038116600081815260066020908152604091829020805460ff19169055815192835290517fcdd2e9b91a56913d370075169cefa1602ba36be5301664f752192bb1709df7579281900390910190a150565b60055461010090046001600160a01b031690565b60048054604080516020601f600260001961010060018816150201909516949094049384018190048102820181019092528281526060939092909183018282801561046d5780601f106104425761010080835404028352916020019161046d565b60066020526000908152604090205460ff1681565b3360009081526006602052604081205460ff166107bd576040805162461bcd60e51b8152602060048201526000602482015290519081900360640190fd5b6104bf8383610b61565b3360009081526006602052604081205460ff16610805576040805162461bcd60e51b8152602060048201526000602482015290519081900360640190fd5b6104bf8383610bcf565b6001600160a01b03918216600090815260016020908152604080832093909416825291909152205490565b610842610b5d565b6001600160a01b03166108536106f5565b6001600160a01b03161461089c576040805162461bcd60e51b81526020600482018190526024820152600080516020610f8c833981519152604482015290519081900360640190fd5b6001600160a01b038116600081815260066020908152604091829020805460ff19166001179055815192835290517fa850ae9193f515cbae8d35e8925bd2be26627fc91bce650b8652ed254e9cab039281900390910190a150565b6108ff610b5d565b6001600160a01b03166109106106f5565b6001600160a01b031614610959576040805162461bcd60e51b81526020600482018190526024820152600080516020610f8c833981519152604482015290519081900360640190fd5b6001600160a01b03811661099e5760405162461bcd60e51b8152600401808060200182810382526026815260200180610ef66026913960400191505060405180910390fd5b6005546040516001600160a01b0380841692610100900416907f8be0079c531659141344cd1fd0a4f28419497f9722a3daafe3b4186f6b6457e090600090a3600580546001600160a01b0390921661010002610100600160a81b0319909216919091179055565b6000828201838110156104bf576040805162461bcd60e51b815260206004820152601b60248201527f536166654d6174683a206164646974696f6e206f766572666c6f770000000000604482015290519081900360640190fd5b6000610a73610a6c610b5d565b8484610be3565b50600192915050565b6000610a89848484610ccf565b610aff84610a95610b5d565b610afa85604051806060016040528060288152602001610f64602891396001600160a01b038a16600090815260016020526040812090610ad3610b5d565b6001600160a01b03168152602081019190915260400160002054919063ffffffff610e3616565b610be3565b5060019392505050565b6000610a73610b16610b5d565b84610afa8560016000610b27610b5d565b6001600160a01b03908116825260208083019390935260409182016000908120918c16815292529020549063ffffffff610a0516565b3390565b6000610a73610b6e610b5d565b84610afa85604051806060016040528060258152602001610ff56025913960016000610b98610b5d565b6001600160a01b03908116825260208083019390935260409182016000908120918d1681529252902054919063ffffffff610e3616565b6000610a73610bdc610b5d565b8484610ccf565b6001600160a01b038316610c285760405162461bcd60e51b8152600401808060200182810382526024815260200180610fd16024913960400191505060405180910390fd5b6001600160a01b038216610c6d5760405162461bcd60e51b8152600401808060200182810382526022815260200180610f1c6022913960400191505060405180910390fd5b6001600160a01b03808416600081815260016020908152604080832094871680845294825291829020859055815185815291517f8c5be1e5ebec7d5bd14f71427d1e84f3dd0314c0f7b2291e5b200ac8c7c3b9259281900390910190a3505050565b6001600160a01b038316610d145760405162461bcd60e51b8152600401808060200182810382526025815260200180610fac6025913960400191505060405180910390fd5b6001600160a01b038216610d595760405162461bcd60e51b8152600401808060200182810382526023815260200180610ed36023913960400191505060405180910390fd5b610d64838383610ecd565b610da781604051806060016040528060268152602001610f3e602691396001600160a01b038616600090815260208190526040902054919063ffffffff610e3616565b6001600160a01b038085166000908152602081905260408082209390935590841681522054610ddc908263ffffffff610a0516565b6001600160a01b038084166000818152602081815260409182902094909455805185815290519193928716927fddf252ad1be2c89b69c2b068fc378daa952ba7f163c4a11628f55a4df523b3ef92918290030190a3505050565b60008184841115610ec55760405162461bcd60e51b81526004018080602001828103825283818151815260200191508051906020019080838360005b83811015610e8a578181015183820152602001610e72565b50505050905090810190601f168015610eb75780820380516001836020036101000a031916815260200191505b509250505060405180910390fd5b505050900390565b50505056fe45524332303a207472616e7366657220746f20746865207a65726f20616464726573734f776e61626c653a206e6577206f776e657220697320746865207a65726f206164647265737345524332303a20617070726f766520746f20746865207a65726f206164647265737345524332303a207472616e7366657220616d6f756e7420657863656564732062616c616e636545524332303a207472616e7366657220616d6f756e74206578636565647320616c6c6f77616e63654f776e61626c653a2063616c6c6572206973206e6f7420746865206f776e657245524332303a207472616e736665722066726f6d20746865207a65726f206164647265737345524332303a20617070726f76652066726f6d20746865207a65726f206164647265737345524332303a2064656372656173656420616c6c6f77616e63652062656c6f77207a65726fa2646970667358221220a882084aacae53a865fad8664421f45cc5436d3178b959770ca4e25ef9687f6264736f6c634300060a0033608060405234801561001057600080fd5b506040516102fc3803806102fc8339818101604052602081101561003357600080fd5b5051600080546001600160a01b039092166001600160a01b0319928316179055600180549091163317905561028f8061006d6000396000f3fe608060405234801561001057600080fd5b50600436106100365760003560e01c8063150b7a021461003b578063ebf5a99f1461011e575b600080fd5b6101016004803603608081101561005157600080fd5b6001600160a01b0382358116926020810135909116916040820135919081019060808101606082013564010000000081111561008c57600080fd5b82018360208201111561009e57600080fd5b803590602001918460018302840111640100000000831117156100c057600080fd5b91908080601f016020809104026020016040519081016040528093929190818152602001838380828437600092019190915250929550610128945050505050565b604080516001600160e01b03199092168252519081900360200190f35b610126610138565b005b630a85bd0160e11b949350505050565b60008054604080516370a0823160e01b815230600482015290516001600160a01b03909216916370a0823191602480820192602092909190829003018186803b15801561018457600080fd5b505afa158015610198573d6000803e3d6000fd5b505050506040513d60208110156101ae57600080fd5b5051905068d02ab486cedc000000811061025657600080546001546040805163a9059cbb60e01b81526001600160a01b039283166004820152686c6b935b8bbd3fffff19860160248201529051919092169263a9059cbb92604480820193602093909283900390910190829087803b15801561022957600080fd5b505af115801561023d573d6000803e3d6000fd5b505050506040513d602081101561025357600080fd5b50505b5056fea2646970667358221220457cc67e5283268e44ca91ab31b486e82fd395ef456a3983330f09ac018cf95f64736f6c634300060a0033",
  "linkReferences": {},
  "deployedLinkReferences": {}
}