{
  "_format": "hh-sol-artifact-1",
  "contractName": "SkillWallet",
  "sourceName": "contracts/skillWallet/SkillWallet.sol",
  "abi": [
    {
      "inputs": [],
      "stateMutability": "nonpayable",
      "type": "constructor"
    },
    {
      "anonymous": false,
      "inputs": [
        {
          "indexed": true,
          "internalType": "address",
          "name": "owner",
          "type": "address"
        },
        {
          "indexed": true,
          "internalType": "address",
          "name": "approved",
          "type": "address"
        },
        {
          "indexed": true,
          "internalType": "uint256",
          "name": "tokenId",
          "type": "uint256"
        }
      ],
      "name": "Approval",
      "type": "event"
    },
    {
      "anonymous": false,
      "inputs": [
        {
          "indexed": true,
          "internalType": "address",
          "name": "owner",
          "type": "address"
        },
        {
          "indexed": true,
          "internalType": "address",
          "name": "operator",
          "type": "address"
        },
        {
          "indexed": false,
          "internalType": "bool",
          "name": "approved",
          "type": "bool"
        }
      ],
      "name": "ApprovalForAll",
      "type": "event"
    },
    {
      "anonymous": false,
      "inputs": [
        {
          "indexed": true,
          "internalType": "bytes32",
          "name": "id",
          "type": "bytes32"
        }
      ],
      "name": "ChainlinkCancelled",
      "type": "event"
    },
    {
      "anonymous": false,
      "inputs": [
        {
          "indexed": true,
          "internalType": "bytes32",
          "name": "id",
          "type": "bytes32"
        }
      ],
      "name": "ChainlinkFulfilled",
      "type": "event"
    },
    {
      "anonymous": false,
      "inputs": [
        {
          "indexed": true,
          "internalType": "bytes32",
          "name": "id",
          "type": "bytes32"
        }
      ],
      "name": "ChainlinkRequested",
      "type": "event"
    },
    {
      "anonymous": false,
      "inputs": [
        {
          "indexed": true,
          "internalType": "address",
          "name": "previousOwner",
          "type": "address"
        },
        {
          "indexed": true,
          "internalType": "address",
          "name": "newOwner",
          "type": "address"
        }
      ],
      "name": "OwnershipTransferred",
      "type": "event"
    },
    {
      "anonymous": false,
      "inputs": [
        {
          "indexed": true,
          "internalType": "uint256",
          "name": "skillWalletId",
          "type": "uint256"
        }
      ],
      "name": "PubKeyAddedToSkillWallet",
      "type": "event"
    },
    {
      "anonymous": false,
      "inputs": [
        {
          "indexed": true,
          "internalType": "uint256",
          "name": "skillWalletId",
          "type": "uint256"
        },
        {
          "components": [
            {
              "components": [
                {
                  "internalType": "uint64",
                  "name": "displayStringId",
                  "type": "uint64"
                },
                {
                  "internalType": "uint8",
                  "name": "level",
                  "type": "uint8"
                }
              ],
              "internalType": "struct Types.Skill",
              "name": "skill1",
              "type": "tuple"
            },
            {
              "components": [
                {
                  "internalType": "uint64",
                  "name": "displayStringId",
                  "type": "uint64"
                },
                {
                  "internalType": "uint8",
                  "name": "level",
                  "type": "uint8"
                }
              ],
              "internalType": "struct Types.Skill",
              "name": "skill2",
              "type": "tuple"
            },
            {
              "components": [
                {
                  "internalType": "uint64",
                  "name": "displayStringId",
                  "type": "uint64"
                },
                {
                  "internalType": "uint8",
                  "name": "level",
                  "type": "uint8"
                }
              ],
              "internalType": "struct Types.Skill",
              "name": "skill3",
              "type": "tuple"
            }
          ],
          "indexed": false,
          "internalType": "struct Types.SkillSet",
          "name": "newSkillSet",
          "type": "tuple"
        }
      ],
      "name": "SkillSetUpdated",
      "type": "event"
    },
    {
      "anonymous": false,
      "inputs": [
        {
          "indexed": true,
          "internalType": "uint256",
          "name": "skillWalletId",
          "type": "uint256"
        }
      ],
      "name": "SkillWalletActivated",
      "type": "event"
    },
    {
      "anonymous": false,
      "inputs": [
        {
          "indexed": true,
          "internalType": "uint256",
          "name": "skillWalletId",
          "type": "uint256"
        },
        {
          "indexed": false,
          "internalType": "address",
          "name": "newCommunity",
          "type": "address"
        }
      ],
      "name": "SkillWalletCommunityChanged",
      "type": "event"
    },
    {
      "anonymous": false,
      "inputs": [
        {
          "indexed": true,
          "internalType": "address",
          "name": "skillWalletOwner",
          "type": "address"
        },
        {
          "indexed": true,
          "internalType": "address",
          "name": "community",
          "type": "address"
        },
        {
          "indexed": true,
          "internalType": "uint256",
          "name": "skillWalletId",
          "type": "uint256"
        },
        {
          "components": [
            {
              "components": [
                {
                  "internalType": "uint64",
                  "name": "displayStringId",
                  "type": "uint64"
                },
                {
                  "internalType": "uint8",
                  "name": "level",
                  "type": "uint8"
                }
              ],
              "internalType": "struct Types.Skill",
              "name": "skill1",
              "type": "tuple"
            },
            {
              "components": [
                {
                  "internalType": "uint64",
                  "name": "displayStringId",
                  "type": "uint64"
                },
                {
                  "internalType": "uint8",
                  "name": "level",
                  "type": "uint8"
                }
              ],
              "internalType": "struct Types.Skill",
              "name": "skill2",
              "type": "tuple"
            },
            {
              "components": [
                {
                  "internalType": "uint64",
                  "name": "displayStringId",
                  "type": "uint64"
                },
                {
                  "internalType": "uint8",
                  "name": "level",
                  "type": "uint8"
                }
              ],
              "internalType": "struct Types.Skill",
              "name": "skill3",
              "type": "tuple"
            }
          ],
          "indexed": false,
          "internalType": "struct Types.SkillSet",
          "name": "skillSet",
          "type": "tuple"
        }
      ],
      "name": "SkillWalletCreated",
      "type": "event"
    },
    {
      "anonymous": false,
      "inputs": [
        {
          "indexed": true,
          "internalType": "address",
          "name": "from",
          "type": "address"
        },
        {
          "indexed": true,
          "internalType": "address",
          "name": "to",
          "type": "address"
        },
        {
          "indexed": true,
          "internalType": "uint256",
          "name": "tokenId",
          "type": "uint256"
        }
      ],
      "name": "Transfer",
      "type": "event"
    },
    {
      "anonymous": false,
      "inputs": [
        {
          "indexed": false,
          "internalType": "uint256",
          "name": "tokenId",
          "type": "uint256"
        },
        {
          "indexed": false,
          "internalType": "uint256",
          "name": "nonce",
          "type": "uint256"
        },
        {
          "indexed": false,
          "internalType": "uint256",
          "name": "action",
          "type": "uint256"
        }
      ],
      "name": "ValidationFailed",
      "type": "event"
    },
    {
      "anonymous": false,
      "inputs": [
        {
          "indexed": false,
          "internalType": "uint256",
          "name": "tokenId",
          "type": "uint256"
        },
        {
          "indexed": false,
          "internalType": "uint256",
          "name": "nonce",
          "type": "uint256"
        },
        {
          "indexed": false,
          "internalType": "uint256",
          "name": "action",
          "type": "uint256"
        }
      ],
      "name": "ValidationPassed",
      "type": "event"
    },
    {
      "anonymous": false,
      "inputs": [
        {
          "indexed": false,
          "internalType": "bytes32",
          "name": "requestId",
          "type": "bytes32"
        },
        {
          "indexed": false,
          "internalType": "address",
          "name": "caller",
          "type": "address"
        },
        {
          "indexed": false,
          "internalType": "uint256",
          "name": "tokenId",
          "type": "uint256"
        }
      ],
      "name": "ValidationRequestIdSent",
      "type": "event"
    },
    {
      "inputs": [
        {
          "internalType": "uint256",
          "name": "skillWalletId",
          "type": "uint256"
        }
      ],
      "name": "activateSkillWallet",
      "outputs": [],
      "stateMutability": "nonpayable",
      "type": "function"
    },
    {
      "inputs": [
        {
          "internalType": "uint256",
          "name": "skillWalletId",
          "type": "uint256"
        },
        {
          "internalType": "string",
          "name": "pubKey",
          "type": "string"
        }
      ],
      "name": "addPubKeyToSkillWallet",
      "outputs": [],
      "stateMutability": "nonpayable",
      "type": "function"
    },
    {
      "inputs": [
        {
          "internalType": "address",
          "name": "to",
          "type": "address"
        },
        {
          "internalType": "uint256",
          "name": "tokenId",
          "type": "uint256"
        }
      ],
      "name": "approve",
      "outputs": [],
      "stateMutability": "nonpayable",
      "type": "function"
    },
    {
      "inputs": [
        {
          "internalType": "address",
          "name": "owner",
          "type": "address"
        }
      ],
      "name": "balanceOf",
      "outputs": [
        {
          "internalType": "uint256",
          "name": "",
          "type": "uint256"
        }
      ],
      "stateMutability": "view",
      "type": "function"
    },
    {
      "inputs": [],
      "name": "baseURI",
      "outputs": [
        {
          "internalType": "string",
          "name": "",
          "type": "string"
        }
      ],
      "stateMutability": "view",
      "type": "function"
    },
    {
      "inputs": [
        {
          "internalType": "uint256",
          "name": "skillWalletId",
          "type": "uint256"
        }
      ],
      "name": "changeCommunity",
      "outputs": [],
      "stateMutability": "nonpayable",
      "type": "function"
    },
    {
      "inputs": [
        {
          "internalType": "address",
          "name": "skillWalletOwner",
          "type": "address"
        },
        {
          "components": [
            {
              "components": [
                {
                  "internalType": "uint64",
                  "name": "displayStringId",
                  "type": "uint64"
                },
                {
                  "internalType": "uint8",
                  "name": "level",
                  "type": "uint8"
                }
              ],
              "internalType": "struct Types.Skill",
              "name": "skill1",
              "type": "tuple"
            },
            {
              "components": [
                {
                  "internalType": "uint64",
                  "name": "displayStringId",
                  "type": "uint64"
                },
                {
                  "internalType": "uint8",
                  "name": "level",
                  "type": "uint8"
                }
              ],
              "internalType": "struct Types.Skill",
              "name": "skill2",
              "type": "tuple"
            },
            {
              "components": [
                {
                  "internalType": "uint64",
                  "name": "displayStringId",
                  "type": "uint64"
                },
                {
                  "internalType": "uint8",
                  "name": "level",
                  "type": "uint8"
                }
              ],
              "internalType": "struct Types.Skill",
              "name": "skill3",
              "type": "tuple"
            }
          ],
          "internalType": "struct Types.SkillSet",
          "name": "skillSet",
          "type": "tuple"
        },
        {
          "internalType": "string",
          "name": "url",
          "type": "string"
        }
      ],
      "name": "create",
      "outputs": [],
      "stateMutability": "nonpayable",
      "type": "function"
    },
    {
      "inputs": [
        {
          "internalType": "uint256",
          "name": "skillWalletId",
          "type": "uint256"
        }
      ],
      "name": "getActiveCommunity",
      "outputs": [
        {
          "internalType": "address",
          "name": "community",
          "type": "address"
        }
      ],
      "stateMutability": "view",
      "type": "function"
    },
    {
      "inputs": [
        {
          "internalType": "uint256",
          "name": "tokenId",
          "type": "uint256"
        }
      ],
      "name": "getApproved",
      "outputs": [
        {
          "internalType": "address",
          "name": "",
          "type": "address"
        }
      ],
      "stateMutability": "view",
      "type": "function"
    },
    {
      "inputs": [
        {
          "internalType": "uint256",
          "name": "skillWalletId",
          "type": "uint256"
        }
      ],
      "name": "getCommunityHistory",
      "outputs": [
        {
          "internalType": "address[]",
          "name": "communities",
          "type": "address[]"
        }
      ],
      "stateMutability": "view",
      "type": "function"
    },
    {
      "inputs": [
        {
          "internalType": "uint256",
          "name": "skillWalletId",
          "type": "uint256"
        }
      ],
      "name": "getSkillSet",
      "outputs": [
        {
          "components": [
            {
              "components": [
                {
                  "internalType": "uint64",
                  "name": "displayStringId",
                  "type": "uint64"
                },
                {
                  "internalType": "uint8",
                  "name": "level",
                  "type": "uint8"
                }
              ],
              "internalType": "struct Types.Skill",
              "name": "skill1",
              "type": "tuple"
            },
            {
              "components": [
                {
                  "internalType": "uint64",
                  "name": "displayStringId",
                  "type": "uint64"
                },
                {
                  "internalType": "uint8",
                  "name": "level",
                  "type": "uint8"
                }
              ],
              "internalType": "struct Types.Skill",
              "name": "skill2",
              "type": "tuple"
            },
            {
              "components": [
                {
                  "internalType": "uint64",
                  "name": "displayStringId",
                  "type": "uint64"
                },
                {
                  "internalType": "uint8",
                  "name": "level",
                  "type": "uint8"
                }
              ],
              "internalType": "struct Types.Skill",
              "name": "skill3",
              "type": "tuple"
            }
          ],
          "internalType": "struct Types.SkillSet",
          "name": "skillSet",
          "type": "tuple"
        }
      ],
      "stateMutability": "view",
      "type": "function"
    },
    {
      "inputs": [
        {
          "internalType": "address",
          "name": "skillWalletOwner",
          "type": "address"
        }
      ],
      "name": "getSkillWalletIdByOwner",
      "outputs": [
        {
          "internalType": "uint256",
          "name": "",
          "type": "uint256"
        }
      ],
      "stateMutability": "view",
      "type": "function"
    },
    {
      "inputs": [],
      "name": "getTotalSkillWalletsRegistered",
      "outputs": [
        {
          "internalType": "uint256",
          "name": "",
          "type": "uint256"
        }
      ],
      "stateMutability": "view",
      "type": "function"
    },
    {
      "inputs": [
        {
          "internalType": "address",
          "name": "owner",
          "type": "address"
        },
        {
          "internalType": "address",
          "name": "operator",
          "type": "address"
        }
      ],
      "name": "isApprovedForAll",
      "outputs": [
        {
          "internalType": "bool",
          "name": "",
          "type": "bool"
        }
      ],
      "stateMutability": "view",
      "type": "function"
    },
    {
      "inputs": [
        {
          "internalType": "uint256",
          "name": "skillWalletId",
          "type": "uint256"
        }
      ],
      "name": "isSkillWalletActivated",
      "outputs": [
        {
          "internalType": "bool",
          "name": "status",
          "type": "bool"
        }
      ],
      "stateMutability": "view",
      "type": "function"
    },
    {
      "inputs": [
        {
          "internalType": "address",
          "name": "skillWalletOwner",
          "type": "address"
        }
      ],
      "name": "isSkillWalletRegistered",
      "outputs": [
        {
          "internalType": "bool",
          "name": "status",
          "type": "bool"
        }
      ],
      "stateMutability": "view",
      "type": "function"
    },
    {
      "inputs": [],
      "name": "name",
      "outputs": [
        {
          "internalType": "string",
          "name": "",
          "type": "string"
        }
      ],
      "stateMutability": "view",
      "type": "function"
    },
    {
      "inputs": [],
      "name": "owner",
      "outputs": [
        {
          "internalType": "address",
          "name": "",
          "type": "address"
        }
      ],
      "stateMutability": "view",
      "type": "function"
    },
    {
      "inputs": [
        {
          "internalType": "uint256",
          "name": "tokenId",
          "type": "uint256"
        }
      ],
      "name": "ownerOf",
      "outputs": [
        {
          "internalType": "address",
          "name": "",
          "type": "address"
        }
      ],
      "stateMutability": "view",
      "type": "function"
    },
    {
      "inputs": [],
      "name": "renounceOwnership",
      "outputs": [],
      "stateMutability": "nonpayable",
      "type": "function"
    },
    {
      "inputs": [
        {
          "internalType": "address",
          "name": "from",
          "type": "address"
        },
        {
          "internalType": "address",
          "name": "to",
          "type": "address"
        },
        {
          "internalType": "uint256",
          "name": "tokenId",
          "type": "uint256"
        }
      ],
      "name": "safeTransferFrom",
      "outputs": [],
      "stateMutability": "nonpayable",
      "type": "function"
    },
    {
      "inputs": [
        {
          "internalType": "address",
          "name": "from",
          "type": "address"
        },
        {
          "internalType": "address",
          "name": "to",
          "type": "address"
        },
        {
          "internalType": "uint256",
          "name": "tokenId",
          "type": "uint256"
        },
        {
          "internalType": "bytes",
          "name": "_data",
          "type": "bytes"
        }
      ],
      "name": "safeTransferFrom",
      "outputs": [],
      "stateMutability": "nonpayable",
      "type": "function"
    },
    {
      "inputs": [
        {
          "internalType": "address",
          "name": "operator",
          "type": "address"
        },
        {
          "internalType": "bool",
          "name": "approved",
          "type": "bool"
        }
      ],
      "name": "setApprovalForAll",
      "outputs": [],
      "stateMutability": "nonpayable",
      "type": "function"
    },
    {
      "inputs": [
        {
          "internalType": "uint256",
          "name": "",
          "type": "uint256"
        }
      ],
      "name": "skillWalletToPubKey",
      "outputs": [
        {
          "internalType": "string",
          "name": "",
          "type": "string"
        }
      ],
      "stateMutability": "view",
      "type": "function"
    },
    {
      "inputs": [
        {
          "internalType": "bytes4",
          "name": "interfaceId",
          "type": "bytes4"
        }
      ],
      "name": "supportsInterface",
      "outputs": [
        {
          "internalType": "bool",
          "name": "",
          "type": "bool"
        }
      ],
      "stateMutability": "view",
      "type": "function"
    },
    {
      "inputs": [],
      "name": "symbol",
      "outputs": [
        {
          "internalType": "string",
          "name": "",
          "type": "string"
        }
      ],
      "stateMutability": "view",
      "type": "function"
    },
    {
      "inputs": [
        {
          "internalType": "uint256",
          "name": "index",
          "type": "uint256"
        }
      ],
      "name": "tokenByIndex",
      "outputs": [
        {
          "internalType": "uint256",
          "name": "",
          "type": "uint256"
        }
      ],
      "stateMutability": "view",
      "type": "function"
    },
    {
      "inputs": [
        {
          "internalType": "address",
          "name": "owner",
          "type": "address"
        },
        {
          "internalType": "uint256",
          "name": "index",
          "type": "uint256"
        }
      ],
      "name": "tokenOfOwnerByIndex",
      "outputs": [
        {
          "internalType": "uint256",
          "name": "",
          "type": "uint256"
        }
      ],
      "stateMutability": "view",
      "type": "function"
    },
    {
      "inputs": [
        {
          "internalType": "uint256",
          "name": "tokenId",
          "type": "uint256"
        }
      ],
      "name": "tokenURI",
      "outputs": [
        {
          "internalType": "string",
          "name": "",
          "type": "string"
        }
      ],
      "stateMutability": "view",
      "type": "function"
    },
    {
      "inputs": [],
      "name": "totalSupply",
      "outputs": [
        {
          "internalType": "uint256",
          "name": "",
          "type": "uint256"
        }
      ],
      "stateMutability": "view",
      "type": "function"
    },
    {
      "inputs": [
        {
          "internalType": "address",
          "name": "from",
          "type": "address"
        },
        {
          "internalType": "address",
          "name": "to",
          "type": "address"
        },
        {
          "internalType": "uint256",
          "name": "tokenId",
          "type": "uint256"
        }
      ],
      "name": "transferFrom",
      "outputs": [],
      "stateMutability": "nonpayable",
      "type": "function"
    },
    {
      "inputs": [
        {
          "internalType": "address",
          "name": "newOwner",
          "type": "address"
        }
      ],
      "name": "transferOwnership",
      "outputs": [],
      "stateMutability": "nonpayable",
      "type": "function"
    },
    {
      "inputs": [
        {
          "internalType": "uint256",
          "name": "skillWalletId",
          "type": "uint256"
        },
        {
          "components": [
            {
              "components": [
                {
                  "internalType": "uint64",
                  "name": "displayStringId",
                  "type": "uint64"
                },
                {
                  "internalType": "uint8",
                  "name": "level",
                  "type": "uint8"
                }
              ],
              "internalType": "struct Types.Skill",
              "name": "skill1",
              "type": "tuple"
            },
            {
              "components": [
                {
                  "internalType": "uint64",
                  "name": "displayStringId",
                  "type": "uint64"
                },
                {
                  "internalType": "uint8",
                  "name": "level",
                  "type": "uint8"
                }
              ],
              "internalType": "struct Types.Skill",
              "name": "skill2",
              "type": "tuple"
            },
            {
              "components": [
                {
                  "internalType": "uint64",
                  "name": "displayStringId",
                  "type": "uint64"
                },
                {
                  "internalType": "uint8",
                  "name": "level",
                  "type": "uint8"
                }
              ],
              "internalType": "struct Types.Skill",
              "name": "skill3",
              "type": "tuple"
            }
          ],
          "internalType": "struct Types.SkillSet",
          "name": "newSkillSet",
          "type": "tuple"
        }
      ],
      "name": "updateSkillSet",
      "outputs": [],
      "stateMutability": "nonpayable",
      "type": "function"
    },
    {
      "inputs": [
        {
          "internalType": "string",
          "name": "signature",
          "type": "string"
        },
        {
          "internalType": "uint256",
          "name": "tokenId",
          "type": "uint256"
        },
        {
          "internalType": "uint256",
          "name": "action",
          "type": "uint256"
        },
        {
          "internalType": "string[]",
          "name": "stringParams",
          "type": "string[]"
        },
        {
          "internalType": "uint256[]",
          "name": "intParams",
          "type": "uint256[]"
        },
        {
          "internalType": "address[]",
          "name": "addressParams",
          "type": "address[]"
        }
      ],
      "name": "validate",
      "outputs": [],
      "stateMutability": "nonpayable",
      "type": "function"
    },
    {
      "inputs": [
        {
          "internalType": "bytes32",
          "name": "_requestId",
          "type": "bytes32"
        },
        {
          "internalType": "bool",
          "name": "_isValid",
          "type": "bool"
        }
      ],
      "name": "validationCallback",
      "outputs": [],
      "stateMutability": "nonpayable",
      "type": "function"
    }
  ],
  "bytecode": "0x60806040526001600f553480156200001657600080fd5b50604080518082018252600b81526a14dada5b1b15d85b1b195d60aa1b60208083019190915282518084019093526002835261535760f01b90830152906200006e6301ffc9a760e01b6001600160e01b03620001d516565b81516200008390600690602085019062000257565b5080516200009990600790602084019062000257565b50620000b56380ac58cd60e01b6001600160e01b03620001d516565b620000d0635b5e139f60e01b6001600160e01b03620001d516565b620000eb63780e9d6360e01b6001600160e01b03620001d516565b5060009050620001036001600160e01b036200023016565b600a80546001600160a01b0319166001600160a01b038316908117909155604051919250906000907f8be0079c531659141344cd1fd0a4f28419497f9722a3daafe3b4186f6b6457e0908290a3506200017973326c977e6efc84e512bb9c30f76e30c160ed06fb6001600160e01b036200023516565b601880546001600160a01b03191673c8d925525ca8759812d0c299b90247917d4d4b7c1790557f333130363130383663623237343966376133663939663264353137396361663760195567016345785d8a0000601a5562000330565b6001600160e01b031980821614156200020b5760405162461bcd60e51b81526004016200020290620002f9565b60405180910390fd5b6001600160e01b0319166000908152602081905260409020805460ff19166001179055565b335b90565b600d80546001600160a01b0319166001600160a01b0392909216919091179055565b828054600181600116156101000203166002900490600052602060002090601f016020900481019282601f106200029a57805160ff1916838001178555620002ca565b82800160010185558215620002ca579182015b82811115620002ca578251825591602001919060010190620002ad565b50620002d8929150620002dc565b5090565b6200023291905b80821115620002d85760008155600101620002e3565b6020808252601c908201527f4552433136353a20696e76616c696420696e7465726661636520696400000000604082015260600190565b61426c80620003406000396000f3fe608060405234801561001057600080fd5b50600436106102115760003560e01c806365cbb7aa11610125578063a1a366f3116100ad578063c71ae3021161007c578063c71ae3021461045a578063c87b56dd14610462578063e985e9c514610475578063f2fde38b14610488578063f3a4e1c01461049b57610211565b8063a1a366f31461040e578063a22cb46514610421578063b50e77ff14610434578063b88d4fde1461044757610211565b8063739c1cba116100f4578063739c1cba146103c55780638da5cb5b146103d85780638f4b3f59146103e0578063937b53b6146103f357806395d89b411461040657610211565b806365cbb7aa1461038f5780636c0360eb146103a257806370a08231146103aa578063715018a6146103bd57610211565b80632f745c59116101a85780634f6ccce7116101775780634f6ccce714610330578063588bf7a9146103435780635f6c93ad14610356578063617fc19d146103695780636352211e1461037c57610211565b80632f745c59146102d7578063407ca1c7146102ea57806342842e0e1461030a57806342ca96291461031d57610211565b80630a73b69d116101e45780630a73b69d1461028957806318160ddd1461029c5780631ad56396146102b157806323b872dd146102c457610211565b806301ffc9a71461021657806306fdde031461023f578063081812fc14610254578063095ea7b314610274575b600080fd5b610229610224366004613350565b6104bb565b6040516102369190613797565b60405180910390f35b6102476104de565b6040516102369190613867565b610267610262366004613448565b610575565b604051610236919061369b565b6102876102823660046132e5565b6105c1565b005b610287610297366004613286565b610659565b6102a46107ed565b6040516102369190614128565b6102876102bf36600461332c565b6107fe565b6102876102d23660046131b0565b610c41565b6102a46102e53660046132e5565b610c79565b6102fd6102f8366004613448565b610caa565b6040516102369190613784565b6102876103183660046131b0565b610d69565b6102a461032b366004613140565b610d84565b6102a461033e366004613448565b610dca565b610287610351366004613460565b610de6565b610287610364366004613388565b610efa565b610287610377366004613448565b61128d565b61026761038a366004613448565b611367565b61026761039d366004613448565b611395565b61024761140f565b6102a46103b8366004613140565b611470565b6102876114b9565b6102296103d3366004613140565b611542565b61026761157c565b6102296103ee366004613448565b61158b565b6102876104013660046134a9565b6115ff565b6102476116fc565b61024761041c366004613448565b61175d565b61028761042f366004613259565b6117f8565b610287610442366004613448565b6118c6565b6102876104553660046131f0565b611971565b6102a46119aa565b610247610470366004613448565b6119b6565b610229610483366004613178565b611afc565b610287610496366004613140565b611b2a565b6104ae6104a9366004613448565b611beb565b60405161023691906140e9565b6001600160e01b0319811660009081526020819052604090205460ff165b919050565b60068054604080516020601f600260001961010060018816150201909516949094049384018190048102820181019092528281526060939092909183018282801561056a5780601f1061053f5761010080835404028352916020019161056a565b820191906000526020600020905b81548152906001019060200180831161054d57829003601f168201915b505050505090505b90565b600061058082611cd8565b6105a55760405162461bcd60e51b815260040161059c90613d7d565b60405180910390fd5b506000908152600460205260409020546001600160a01b031690565b60006105cc82611367565b9050806001600160a01b0316836001600160a01b031614156106005760405162461bcd60e51b815260040161059c90613e99565b806001600160a01b0316610612611ceb565b6001600160a01b0316148061062e575061062e81610483611ceb565b61064a5760405162461bcd60e51b815260040161059c90613c17565b6106548383611cef565b505050565b61066283611470565b1561067f5760405162461bcd60e51b815260040161059c9061387a565b600061068b6017611d5d565b90506106978482611d61565b6106a18183611d6f565b60008181526011602090815260408083208054336001600160a01b03199182168117909255601284528285208054600181810183559187528587200180549092169092179055848452601383528184208751805182549186015167ffffffffffffffff199283166001600160401b039283161760ff60401b19908116600160401b60ff93841681029190911786558c89015180519787018054918b01519187169886169890981783169084168202179096558b870151805160029096018054918a015191909516959093169490941790931692169092021790556001600160a01b03871683526014909152902081905561079b6017611db3565b80336001600160a01b0316856001600160a01b03167f66d78e575b2517d4e354b4b0512628805cdb33e81571b3deff51b5c796577486866040516107df91906140e9565b60405180910390a450505050565b60006107f96002611dbc565b905090565b60008281526010602052604090205482906001600160a01b031633146108365760405162461bcd60e51b815260040161059c90614044565b60008181526010602052604080822080546001600160a01b03191690555182917f7cc135e0cebb02c3480ae5d74d377283180a2601f8f644edf7987b009316c63a91a2610881612b69565b6000848152601b602090815260409182902082516060810190935280546001600160a01b03811684529091830190600160a01b900460ff1660058111156108c457fe5b60058111156108cf57fe5b81526020016001820160405180606001604052908160008201805480602002602001604051908101604052809291908181526020016000905b828210156109b35760008481526020908190208301805460408051601f600260001961010060018716150201909416939093049283018590048502810185019091528181529283018282801561099f5780601f106109745761010080835404028352916020019161099f565b820191906000526020600020905b81548152906001019060200180831161098257829003601f168201915b505050505081526020019060010190610908565b50505050815260200160018201805480602002602001604051908101604052809291908181526020018280548015610a0a57602002820191906000526020600020905b8154815260200190600101908083116109f6575b5050505050815260200160028201805480602002602001604051908101604052809291908181526020018280548015610a6c57602002820191906000526020600020905b81546001600160a01b03168152600190910190602001808311610a4e575b5050505050815250508152505090508215610bfd577f5f22ae4b8e4738fdfe8a3af9bf2cd2f4eb88ea73cdaad6be4626e3f550659eb36000806000604051610ab693929190613851565b60405180910390a1600181602001516005811115610ad057fe5b1415610adc5750610654565b600081602001516005811115610aee57fe5b1415610b685780516001600160a01b03166000908152601460205260409081902054905163617fc19d60e01b8152309163617fc19d91610b319190600401614128565b600060405180830381600087803b158015610b4b57600080fd5b505af1158015610b5f573d6000803e3d6000fd5b50505050610bf8565b6000610b7c82602001518360000151611dc7565b6020808401518451604080870151938401518451948201519151630ed552f560e21b81529596506001600160a01b03871695633b554bd495610bc495949390916004016137c1565b600060405180830381600087803b158015610bde57600080fd5b505af1158015610bf2573d6000803e3d6000fd5b50505050505b610c3b565b7fd6ea2322a7829f0d58be55c06220472d2daa82457db59f3d67e93160011fbab26000806000604051610c3293929190613851565b60405180910390a15b50505050565b610c52610c4c611ceb565b82611ed3565b610c6e5760405162461bcd60e51b815260040161059c90613f72565b610654838383611f58565b6001600160a01b0382166000908152600160205260408120610ca1908363ffffffff611f7016565b90505b92915050565b6060610cb66017611d5d565b8210610cd45760405162461bcd60e51b815260040161059c90613cbe565b600082815260126020526040902054610cff5760405162461bcd60e51b815260040161059c9061408c565b60008281526012602090815260409182902080548351818402810184019094528084529091830182828015610d5d57602002820191906000526020600020905b81546001600160a01b03168152600190910190602001808311610d3f575b50505050509050919050565b61065483838360405180602001604052806000815250611971565b6000610d8f82611470565b600114610dae5760405162461bcd60e51b815260040161059c90613b00565b506001600160a01b031660009081526014602052604090205490565b600080610dde60028463ffffffff611f7c16565b509392505050565b610dee611ceb565b6001600160a01b0316610dff61157c565b6001600160a01b031614610e255760405162461bcd60e51b815260040161059c90613e15565b610e2f6017611d5d565b8310610e4d5760405162461bcd60e51b815260040161059c90613cbe565b6000838152601160205260409020546001600160a01b0316610e815760405162461bcd60e51b815260040161059c90613a4d565b60008381526015602052604090205460ff1615610eb05760405162461bcd60e51b815260040161059c90613f27565b6000838152601660205260409020610ec9908383612b8d565b5060405183907f46720ddbef9dfaafeff045ae333e447ae69c7560cb5982ce5f6c1c55471db14190600090a2505050565b60008581526016602052604090205460026000196101006001841615020190911604610f385760405162461bcd60e51b815260040161059c90613928565b610f40612c0b565b601954610f559030630d6ab1cb60e11b611f9a565b60408051808201825260068152657075624b657960d01b60208083019190915260008a8152601682528390208054845160026001831615610100026000190190921691909104601f810184900484028201840190955284815294955061101f949293909183018282801561100a5780601f10610fdf5761010080835404028352916020019161100a565b820191906000526020600020905b815481529060010190602001808311610fed57829003601f168201915b505050505083611fc79092919063ffffffff16565b61108a604051806040016040528060098152602001687369676e617475726560b81b81525089898080601f01602080910402602001604051908101604052809392919081815260200183838082843760009201919091525086949392505063ffffffff611fc7169050565b6110f26040518060400160405280600b81526020016a19d95d139bdb98d9555c9b60aa1b8152506110ba88611ff1565b6110c388611ff1565b6040516020016110d4929190613613565b60408051601f1981840301815291905283919063ffffffff611fc716565b6111226040518060400160405280600b81526020016a19195b139bdb98d9555c9b60aa1b8152506110ba88611ff1565b600061112d87611367565b601854601a5491925060009161114e916001600160a01b03169085906120cb565b90506040518060600160405280836001600160a01b0316815260200188600581111561117657fe5b600581111561118157fe5b81526040805160608101825289815260208082018a9052818301899052928301526000848152601b835220825181546001600160a01b0319166001600160a01b0390911617808255918301519091829060ff60a01b1916600160a01b8360058111156111e957fe5b0217905550604082015180518051600184019161120b91839160200190612c3b565b5060208281015180516112249260018501920190612c94565b5060408201518051611240916002840191602090910190612ccf565b5050509050507f333949fca308f4036f410b4043d12561c861b3b69bc64792706725b52bd7d49881838a604051611279939291906137a2565b60405180910390a150505050505050505050565b33301461129957600080fd5b6112a36017611d5d565b81106112c15760405162461bcd60e51b815260040161059c90613cbe565b6000818152601160205260409020546001600160a01b03166112f55760405162461bcd60e51b815260040161059c90613a4d565b60008181526015602052604090205460ff16156113245760405162461bcd60e51b815260040161059c90613f27565b600081815260156020526040808220805460ff191660011790555182917f3b9fa7eba99fc1e57dd4fc92ee03c32e0766a7c33c9f6222a3e3d72788fe4ff691a250565b6000610ca48260405180606001604052806029815260200161420e602991396002919063ffffffff61220a16565b60006113a16017611d5d565b82106113bf5760405162461bcd60e51b815260040161059c90613cbe565b6000828152601160205260409020546001600160a01b03166113f35760405162461bcd60e51b815260040161059c90613a4d565b506000908152601160205260409020546001600160a01b031690565b60098054604080516020601f600260001961010060018816150201909516949094049384018190048102820181019092528281526060939092909183018282801561056a5780601f1061053f5761010080835404028352916020019161056a565b60006001600160a01b0382166114985760405162461bcd60e51b815260040161059c90613c74565b6001600160a01b0382166000908152600160205260409020610ca490611dbc565b6114c1611ceb565b6001600160a01b03166114d261157c565b6001600160a01b0316146114f85760405162461bcd60e51b815260040161059c90613e15565b600a546040516000916001600160a01b0316907f8be0079c531659141344cd1fd0a4f28419497f9722a3daafe3b4186f6b6457e0908390a3600a80546001600160a01b0319169055565b60006001600160a01b03821661156a5760405162461bcd60e51b815260040161059c90613eda565b61157382611470565b60011492915050565b600a546001600160a01b031690565b60006115976017611d5d565b82106115b55760405162461bcd60e51b815260040161059c90613cbe565b6000828152601160205260409020546001600160a01b03166115e95760405162461bcd60e51b815260040161059c90613a4d565b5060009081526015602052604090205460ff1690565b6116096017611d5d565b82106116275760405162461bcd60e51b815260040161059c90613cbe565b6000828152601360209081526040918290208351805182549184015160ff908116600160401b90810260ff60401b196001600160401b0394851667ffffffffffffffff19968716178116919091178655868901518051600188018054928a01518616850291871692881692909217831617905587890151805160029097018054919098015190931690910294909216921691909117161790555182907f6abce99645fd09e69c8d2e751e864666123a5a52cb47f74f31a224f9a253ce0c906116f09084906140e9565b60405180910390a25050565b60078054604080516020601f600260001961010060018816150201909516949094049384018190048102820181019092528281526060939092909183018282801561056a5780601f1061053f5761010080835404028352916020019161056a565b60166020908152600091825260409182902080548351601f6002600019610100600186161502019093169290920491820184900484028101840190945280845290918301828280156117f05780601f106117c5576101008083540402835291602001916117f0565b820191906000526020600020905b8154815290600101906020018083116117d357829003601f168201915b505050505081565b611800611ceb565b6001600160a01b0316826001600160a01b031614156118315760405162461bcd60e51b815260040161059c90613b4e565b806005600061183e611ceb565b6001600160a01b03908116825260208083019390935260409182016000908120918716808252919093529120805460ff191692151592909217909155611882611ceb565b6001600160a01b03167f17307eab39ab6107e8899845ad3d59bd9653f200f220920489ca2b5937696c31836040516118ba9190613797565b60405180910390a35050565b6118d06017611d5d565b81106118ee5760405162461bcd60e51b815260040161059c90613cbe565b60008181526011602090815260408083208054336001600160a01b031991821681179092556012845282852080546001810182559086529390942090920180549093168217909255905182917f40e6ddae3d2fcfa2a7f756d08e3eaff271dc6f378630bac80f5ff5b3da18975c91611966919061369b565b60405180910390a250565b61198261197c611ceb565b83611ed3565b61199e5760405162461bcd60e51b815260040161059c90613f72565b610c3b84848484612217565b60006107f96017611d5d565b60606119c182611cd8565b6119dd5760405162461bcd60e51b815260040161059c90613e4a565b60008281526008602090815260409182902080548351601f6002600019610100600186161502019093169290920491820184900484028101840190945280845260609392830182828015611a725780601f10611a4757610100808354040283529160200191611a72565b820191906000526020600020905b815481529060010190602001808311611a5557829003601f168201915b505050505090506060611a8361140f565b9050805160001415611a97575090506104d9565b815115611ac9578082604051602001611ab19291906135e5565b604051602081830303815290604052925050506104d9565b80611ad385611ff1565b604051602001611ae49291906135e5565b60405160208183030381529060405292505050919050565b6001600160a01b03918216600090815260056020908152604080832093909416825291909152205460ff1690565b611b32611ceb565b6001600160a01b0316611b4361157c565b6001600160a01b031614611b695760405162461bcd60e51b815260040161059c90613e15565b6001600160a01b038116611b8f5760405162461bcd60e51b815260040161059c906139d0565b600a546040516001600160a01b038084169216907f8be0079c531659141344cd1fd0a4f28419497f9722a3daafe3b4186f6b6457e090600090a3600a80546001600160a01b0319166001600160a01b0392909216919091179055565b611bf3612d30565b611bfd6017611d5d565b8210611c1b5760405162461bcd60e51b815260040161059c90613cbe565b6000828152601160205260409020546001600160a01b0316611c4f5760405162461bcd60e51b815260040161059c90613a4d565b50600090815260136020908152604091829020825160a08101845281546001600160401b038082166060840190815260ff600160401b938490048116608086015290845286518088018852600186015480841682528490048216818801528487015286518088018852600290950154918216855291900416928201929092529181019190915290565b6000610ca460028363ffffffff61224a16565b3390565b600081815260046020526040902080546001600160a01b0319166001600160a01b0384169081179091558190611d2482611367565b6001600160a01b03167f8c5be1e5ebec7d5bd14f71427d1e84f3dd0314c0f7b2291e5b200ac8c7c3b92560405160405180910390a45050565b5490565b611d6b8282612256565b5050565b611d7882611cd8565b611d945760405162461bcd60e51b815260040161059c90613dc9565b6000828152600860209081526040909120825161065492840190612d5d565b80546001019055565b6000610ca482611d5d565b6001600160a01b0381166000908152601460205260408120546002846005811115611dee57fe5b1480611e0557506003846005811115611e0357fe5b145b80611e1b57506004846005811115611e1957fe5b145b80611e3157506005846005811115611e2f57fe5b145b15611ec9576000818152601160209081526040808320548151634b26215f60e11b815291516001600160a01b039091169392849263964c42be9260048083019392829003018186803b158015611e8657600080fd5b505afa158015611e9a573d6000803e3d6000fd5b505050506040513d601f19601f82011682018060405250810190611ebe919061315c565b9350610ca492505050565b5060009392505050565b6000611ede82611cd8565b611efa5760405162461bcd60e51b815260040161059c90613bcb565b6000611f0583611367565b9050806001600160a01b0316846001600160a01b03161480611f405750836001600160a01b0316611f3584610575565b6001600160a01b0316145b80611f505750611f508185611afc565b949350505050565b60405162461bcd60e51b815260040161059c90613ffa565b6000610ca18383612270565b6000808080611f8b86866122b5565b909450925050505b9250929050565b611fa2612c0b565b611faa612c0b565b611fbc8186868663ffffffff61231116565b9150505b9392505050565b6080830151611fdc908363ffffffff61234e16565b6080830151610654908263ffffffff61234e16565b60608161201657506040805180820190915260018152600360fc1b60208201526104d9565b8160005b811561202e57600101600a8204915061201a565b6060816001600160401b038111801561204657600080fd5b506040519080825280601f01601f191660200182016040528015612071576020820181803683370190505b50859350905060001982015b83156120c257600a840660300160f81b828280600190039350815181106120a057fe5b60200101906001600160f81b031916908160001a905350600a8404935061207d565b50949350505050565b600030600f546040516020016120e29291906135c3565b60408051808303601f190181529181528151602092830120600f5460608701526000818152601090935281832080546001600160a01b0319166001600160a01b038916179055905190925082917fb5e6e01e79f91267dc17b4e6314d5d4d03593d2ceee0fbb452b750bd70ea5af991a2600d546001600160a01b0316634000aea0858461216e8761236b565b6040518463ffffffff1660e01b815260040161218c93929190613754565b602060405180830381600087803b1580156121a657600080fd5b505af11580156121ba573d6000803e3d6000fd5b505050506040513d601f19601f820116820180604052508101906121de9190613310565b6121fa5760405162461bcd60e51b815260040161059c90613abd565b600f805460010190559392505050565b6000611f508484846123e7565b612222848484611f58565b61222e84848484612446565b610c3b5760405162461bcd60e51b815260040161059c9061397e565b6000610ca1838361252b565b611d6b828260405180602001604052806000815250612543565b815460009082106122935760405162461bcd60e51b815260040161059c906138e6565b8260000182815481106122a257fe5b9060005260206000200154905092915050565b8154600090819083106122da5760405162461bcd60e51b815260040161059c90613d06565b60008460000184815481106122eb57fe5b906000526020600020906002020190508060000154816001015492509250509250929050565b612319612c0b565b6123298560800151610100612576565b50509183526001600160a01b031660208301526001600160e01b031916604082015290565b61235b82600383516125b0565b610654828263ffffffff6126b916565b6060634042994660e01b600080846000015185602001518660400151876060015160018960800151600001516040516024016123ae9897969594939291906136ec565b60408051601f198184030181529190526020810180516001600160e01b03166001600160e01b0319909316929092179091529050919050565b600082815260018401602052604081205482816124175760405162461bcd60e51b815260040161059c9190613867565b5084600001600182038154811061242a57fe5b9060005260206000209060020201600101549150509392505050565b600061245a846001600160a01b03166126d3565b61246657506001611f50565b60606124f4630a85bd0160e11b61247b611ceb565b88878760405160240161249194939291906136af565b604051602081830303815290604052906001600160e01b0319166020820180516001600160e01b0383818316178352505050506040518060600160405280603281526020016141dc603291396001600160a01b038816919063ffffffff6126d916565b905060008180602001905181019061250c919061336c565b6001600160e01b031916630a85bd0160e11b1492505050949350505050565b60009081526001919091016020526040902054151590565b61254d83836126e8565b61255a6000848484612446565b6106545760405162461bcd60e51b815260040161059c9061397e565b61257e612dca565b60208206156125935760208206602003820191505b506020828101829052604080518085526000815290920101905290565b601781116125d7576125d18360e0600585901b16831763ffffffff6127b816565b50610654565b60ff811161260d576125fa836018611fe0600586901b161763ffffffff6127b816565b506125d18382600163ffffffff6127d016565b61ffff811161264457612631836019611fe0600586901b161763ffffffff6127b816565b506125d18382600263ffffffff6127d016565b63ffffffff811161267d5761266a83601a611fe0600586901b161763ffffffff6127b816565b506125d18382600463ffffffff6127d016565b6001600160401b038111610654576126a683601b611fe0600586901b161763ffffffff6127b816565b50610c3b8382600863ffffffff6127d016565b6126c1612dca565b610ca1838460000151518485516127e9565b3b151590565b6060611f508484600085612895565b6001600160a01b03821661270e5760405162461bcd60e51b815260040161059c90613d48565b61271781611cd8565b156127345760405162461bcd60e51b815260040161059c90613a16565b61274060008383610654565b6001600160a01b0382166000908152600160205260409020612768908263ffffffff61295616565b5061277b6002828463ffffffff61296216565b5060405181906001600160a01b038416906000907fddf252ad1be2c89b69c2b068fc378daa952ba7f163c4a11628f55a4df523b3ef908290a45050565b6127c0612dca565b610ca18384600001515184612978565b6127d8612dca565b611f508485600001515185856129c3565b6127f1612dca565b82518211156127ff57600080fd5b8460200151828501111561282957612829856128218760200151878601612a21565b600202612a38565b6000808651805187602083010193508088870111156128485787860182525b505050602084015b6020841061286f5780518252601f199093019260209182019101612850565b51815160001960208690036101000a019081169019919091161790525083949350505050565b6060824710156128b75760405162461bcd60e51b815260040161059c90613b85565b6128c0856126d3565b6128dc5760405162461bcd60e51b815260040161059c90613fc3565b60006060866001600160a01b031685876040516128f991906135a7565b60006040518083038185875af1925050503d8060008114612936576040519150601f19603f3d011682016040523d82523d6000602084013e61293b565b606091505b509150915061294b828286612a4f565b979650505050505050565b6000610ca18383612a88565b6000611f5084846001600160a01b038516612ad2565b612980612dca565b8360200151831061299c5761299c848560200151600202612a38565b8351805160208583010184815350808514156129b9576001810182525b5093949350505050565b6129cb612dca565b846020015184830111156129e8576129e885858401600202612a38565b60006001836101000a039050855183868201018583198251161781525080518487011115612a165783860181525b509495945050505050565b600081831115612a32575081610ca4565b50919050565b8151612a448383612576565b50610c3b83826126b9565b60608315612a5e575081611fc0565b825115612a6e5782518084602001fd5b8160405162461bcd60e51b815260040161059c9190613867565b6000612a94838361252b565b612aca57508154600181810184556000848152602080822090930184905584548482528286019093526040902091909155610ca4565b506000610ca4565b600082815260018401602052604081205480612b37575050604080518082018252838152602080820184815286546001818101895560008981528481209551600290930290950191825591519082015586548684528188019092529290912055611fc0565b82856000016001830381548110612b4a57fe5b9060005260206000209060020201600101819055506000915050611fc0565b6040805160608101825260008082526020820152908101612b88612de4565b905290565b828054600181600116156101000203166002900490600052602060002090601f016020900481019282601f10612bce5782800160ff19823516178555612bfb565b82800160010185558215612bfb579182015b82811115612bfb578235825591602001919060010190612be0565b50612c07929150612e05565b5090565b6040805160a081018252600080825260208201819052918101829052606081019190915260808101612b88612dca565b828054828255906000526020600020908101928215612c88579160200282015b82811115612c885782518051612c78918491602090910190612d5d565b5091602001919060010190612c5b565b50612c07929150612e1f565b828054828255906000526020600020908101928215612bfb579160200282015b82811115612bfb578251825591602001919060010190612cb4565b828054828255906000526020600020908101928215612d24579160200282015b82811115612d2457825182546001600160a01b0319166001600160a01b03909116178255602090920191600190910190612cef565b50612c07929150612e42565b6040518060600160405280612d43612e66565b8152602001612d50612e66565b8152602001612b88612e66565b828054600181600116156101000203166002900490600052602060002090601f016020900481019282601f10612d9e57805160ff1916838001178555612bfb565b82800160010185558215612bfb5791820182811115612bfb578251825591602001919060010190612cb4565b604051806040016040528060608152602001600081525090565b60405180606001604052806060815260200160608152602001606081525090565b61057291905b80821115612c075760008155600101612e0b565b61057291905b80821115612c07576000612e398282612e7d565b50600101612e25565b61057291905b80821115612c075780546001600160a01b0319168155600101612e48565b604080518082019091526000808252602082015290565b50805460018160011615610100020316600290046000825580601f10612ea35750612ec1565b601f016020900490600052602060002090810190612ec19190612e05565b50565b600082601f830112612ed4578081fd5b8135612ee7612ee282614157565b614131565b818152915060208083019084810181840286018201871015612f0857600080fd5b60005b84811015612f30578135612f1e816141a2565b84529282019290820190600101612f0b565b505050505092915050565b600082601f830112612f4b578081fd5b8135612f59612ee282614157565b818152915060208083019084810160005b84811015612f3057612f81888484358a0101612ff1565b84529282019290820190600101612f6a565b600082601f830112612fa3578081fd5b8135612fb1612ee282614157565b818152915060208083019084810181840286018201871015612fd257600080fd5b60005b84811015612f3057813584529282019290820190600101612fd5565b600082601f830112613001578081fd5b81356001600160401b03811115613016578182fd5b613029601f8201601f1916602001614131565b915080825283602082850101111561304057600080fd5b8060208401602084013760009082016020015292915050565b60008083601f84011261306a578182fd5b5081356001600160401b03811115613080578182fd5b602083019150836020828501011115611f9357600080fd5b600060c082840312156130a9578081fd5b6130b36060614131565b90506130bf83836130eb565b81526130ce83604084016130eb565b60208201526130e083608084016130eb565b604082015292915050565b6000604082840312156130fc578081fd5b6131066040614131565b905081356001600160401b038116811461311f57600080fd5b8152602082013560ff8116811461313557600080fd5b602082015292915050565b600060208284031215613151578081fd5b8135611fc0816141a2565b60006020828403121561316d578081fd5b8151611fc0816141a2565b6000806040838503121561318a578081fd5b8235613195816141a2565b915060208301356131a5816141a2565b809150509250929050565b6000806000606084860312156131c4578081fd5b83356131cf816141a2565b925060208401356131df816141a2565b929592945050506040919091013590565b60008060008060808587031215613205578081fd5b8435613210816141a2565b93506020850135613220816141a2565b92506040850135915060608501356001600160401b03811115613241578182fd5b61324d87828801612ff1565b91505092959194509250565b6000806040838503121561326b578182fd5b8235613276816141a2565b915060208301356131a5816141b7565b6000806000610100848603121561329b578081fd5b83356132a6816141a2565b92506132b58560208601613098565b915060e08401356001600160401b038111156132cf578182fd5b6132db86828701612ff1565b9150509250925092565b600080604083850312156132f7578182fd5b8235613302816141a2565b946020939093013593505050565b600060208284031215613321578081fd5b8151611fc0816141b7565b6000806040838503121561333e578182fd5b8235915060208301356131a5816141b7565b600060208284031215613361578081fd5b8135611fc0816141c5565b60006020828403121561337d578081fd5b8151611fc0816141c5565b600080600080600080600060c0888a0312156133a2578485fd5b87356001600160401b03808211156133b8578687fd5b6133c48b838c01613059565b909950975060208a0135965060408a0135955060608a01359150808211156133ea578485fd5b6133f68b838c01612f3b565b945060808a013591508082111561340b578384fd5b6134178b838c01612f93565b935060a08a013591508082111561342c578283fd5b506134398a828b01612ec4565b91505092959891949750929550565b600060208284031215613459578081fd5b5035919050565b600080600060408486031215613474578081fd5b8335925060208401356001600160401b03811115613490578182fd5b61349c86828701613059565b9497909650939450505050565b60008060e083850312156134bb578182fd5b823591506134cc8460208501613098565b90509250929050565b6000815180845260208085019450808401835b83811015612a165781516001600160a01b0316875295820195908201906001016134e8565b6000815180845260208085018081965082840281019150828601855b85811015613553578284038952613541848351613560565b98850198935090840190600101613529565b5091979650505050505050565b60008151808452613578816020860160208601614176565b601f01601f19169290920160200192915050565b80516001600160401b0316825260209081015160ff16910152565b600082516135b9818460208701614176565b9190910192915050565b60609290921b6bffffffffffffffffffffffff19168252601482015260340190565b600083516135f7818460208801614176565b835190830161360a828260208801614176565b01949350505050565b60007f68747470733a2f2f6170692e736b696c6c77616c6c65742e69642f6170692f7382526a6b696c6c77616c6c65742f60a81b6020830152835161365f81602b850160208801614176565b8083016e2f6e6f6e6365733f616374696f6e3d60881b602b8201528451915061368f82603a830160208801614176565b01603a01949350505050565b6001600160a01b0391909116815260200190565b6001600160a01b03858116825284166020820152604081018390526080606082018190526000906136e290830184613560565b9695505050505050565b6001600160a01b0389811682526020820189905260408201889052861660608201526001600160e01b03198516608082015260a0810184905260c0810183905261010060e0820181905260009061374583820185613560565b9b9a5050505050505050505050565b600060018060a01b03851682528360208301526060604083015261377b6060830184613560565b95945050505050565b600060208252610ca160208301846134d5565b901515815260200190565b9283526001600160a01b03919091166020830152604082015260600190565b600060a08201600688106137d157fe5b8783526001600160a01b03871660208085019190915260a060408501528651918290528681019160c0850190845b8181101561381b578451835293830193918301916001016137ff565b5050848103606086015261382f818861350d565b92505050828103608084015261384581856134d5565b98975050505050505050565b9283526020830191909152604082015260600190565b600060208252610ca16020830184613560565b60208082526046908201527f536b696c6c57616c6c65743a20546865726520697320536b696c6c57616c6c6560408201527f7420616c7265616479207265676973746572656420666f722074686973206164606082015265323932b9b99760d11b608082015260a00190565b60208082526022908201527f456e756d657261626c655365743a20696e646578206f7574206f6620626f756e604082015261647360f01b606082015260800190565b60208082526036908201527f5075624b65792073686f756c642062652061737369676e656420746f2074686560408201527520736b696c6c2077616c6c657449442066697273742160501b606082015260800190565b60208082526032908201527f4552433732313a207472616e7366657220746f206e6f6e20455243373231526560408201527131b2b4bb32b91034b6b83632b6b2b73a32b960711b606082015260800190565b60208082526026908201527f4f776e61626c653a206e6577206f776e657220697320746865207a65726f206160408201526564647265737360d01b606082015260800190565b6020808252601c908201527f4552433732313a20746f6b656e20616c7265616479206d696e74656400000000604082015260600190565b6020808252604a908201527f536b696c6c57616c6c65743a2054686520536b696c6c57616c6c65742069732060408201527f6e6f7420696e20616e7920636f6d6d756e6974792c20696e76616c696420536b60608201526934b6362bb0b63632ba1760b11b608082015260a00190565b60208082526023908201527f756e61626c6520746f207472616e73666572416e6443616c6c20746f206f7261604082015262636c6560e81b606082015260800190565b6020808252602e908201527f536b696c6c57616c6c65743a2054686520536b696c6c57616c6c6574206f776e60408201526d32b91034b99034b73b30b634b21760911b606082015260800190565b60208082526019908201527f4552433732313a20617070726f766520746f2063616c6c657200000000000000604082015260600190565b60208082526026908201527f416464726573733a20696e73756666696369656e742062616c616e636520666f6040820152651c8818d85b1b60d21b606082015260800190565b6020808252602c908201527f4552433732313a206f70657261746f7220717565727920666f72206e6f6e657860408201526b34b9ba32b73a103a37b5b2b760a11b606082015260800190565b60208082526038908201527f4552433732313a20617070726f76652063616c6c6572206973206e6f74206f7760408201527f6e6572206e6f7220617070726f76656420666f7220616c6c0000000000000000606082015260800190565b6020808252602a908201527f4552433732313a2062616c616e636520717565727920666f7220746865207a65604082015269726f206164647265737360b01b606082015260800190565b60208082526028908201527f536b696c6c57616c6c65743a20736b696c6c57616c6c65744964206f7574206f60408201526733103930b733b29760c11b606082015260800190565b60208082526022908201527f456e756d657261626c654d61703a20696e646578206f7574206f6620626f756e604082015261647360f01b606082015260800190565b6020808252818101527f4552433732313a206d696e7420746f20746865207a65726f2061646472657373604082015260600190565b6020808252602c908201527f4552433732313a20617070726f76656420717565727920666f72206e6f6e657860408201526b34b9ba32b73a103a37b5b2b760a11b606082015260800190565b6020808252602c908201527f4552433732314d657461646174613a2055524920736574206f66206e6f6e657860408201526b34b9ba32b73a103a37b5b2b760a11b606082015260800190565b6020808252818101527f4f776e61626c653a2063616c6c6572206973206e6f7420746865206f776e6572604082015260600190565b6020808252602f908201527f4552433732314d657461646174613a2055524920717565727920666f72206e6f60408201526e3732bc34b9ba32b73a103a37b5b2b760891b606082015260800190565b60208082526021908201527f4552433732313a20617070726f76616c20746f2063757272656e74206f776e656040820152603960f91b606082015260800190565b6020808252602d908201527f536b696c6c57616c6c65743a20496e76616c696420736b696c6c57616c6c657460408201526c4f776e6572206164647265737360981b606082015260800190565b6020808252602b908201527f536b696c6c57616c6c65743a20536b696c6c2077616c6c657420616c7265616460408201526a1e481858dd1a5d985d195960aa1b606082015260800190565b60208082526031908201527f4552433732313a207472616e736665722063616c6c6572206973206e6f74206f6040820152701ddb995c881b9bdc88185c1c1c9bdd9959607a1b606082015260800190565b6020808252601d908201527f416464726573733a2063616c6c20746f206e6f6e2d636f6e7472616374000000604082015260600190565b6020808252602a908201527f536b696c6c57616c6c65743a20536b696c6c57616c6c6574207472616e7366656040820152691c88191a5cd8589b195960b21b606082015260800190565b60208082526028908201527f536f75726365206d75737420626520746865206f7261636c65206f6620746865604082015267081c995c5d595cdd60c21b606082015260800190565b6020808252603a908201527f536b696c6c57616c6c65743a2054686520536b696c6c57616c6c65742069732060408201527f6e6f742070617274206f6620616e7920636f6d6d756e6974792e000000000000606082015260800190565b600060c0820190506140fc82845161358c565b602083015161410e604084018261358c565b506040830151614121608084018261358c565b5092915050565b90815260200190565b6040518181016001600160401b038111828210171561414f57600080fd5b604052919050565b60006001600160401b0382111561416c578081fd5b5060209081020190565b60005b83811015614191578181015183820152602001614179565b83811115610c3b5750506000910152565b6001600160a01b0381168114612ec157600080fd5b8015158114612ec157600080fd5b6001600160e01b031981168114612ec157600080fdfe4552433732313a207472616e7366657220746f206e6f6e20455243373231526563656976657220696d706c656d656e7465724552433732313a206f776e657220717565727920666f72206e6f6e6578697374656e7420746f6b656ea2646970667358221220476d9cc636b087bd8918cf92fdfb6a29de97128b0810be843f73950b8828e5d464736f6c634300060a0033",
  "linkReferences": {},
  "deployedLinkReferences": {}
}