{
  "_format": "hh-sol-artifact-1",
  "contractName": "SkillWallet",
  "sourceName": "contracts/main/SkillWallet.sol",
  "abi": [
    {
      "inputs": [
        {
          "internalType": "address",
          "name": "_linkToken",
          "type": "address"
        },
        {
          "internalType": "address",
          "name": "_oracle",
          "type": "address"
        }
      ],
      "stateMutability": "nonpayable",
      "type": "constructor"
    },
    {
      "anonymous": false,
      "inputs": [
        {
          "indexed": true,
          "internalType": "address",
          "name": "owner",
          "type": "address"
        },
        {
          "indexed": true,
          "internalType": "address",
          "name": "approved",
          "type": "address"
        },
        {
          "indexed": true,
          "internalType": "uint256",
          "name": "tokenId",
          "type": "uint256"
        }
      ],
      "name": "Approval",
      "type": "event"
    },
    {
      "anonymous": false,
      "inputs": [
        {
          "indexed": true,
          "internalType": "address",
          "name": "owner",
          "type": "address"
        },
        {
          "indexed": true,
          "internalType": "address",
          "name": "operator",
          "type": "address"
        },
        {
          "indexed": false,
          "internalType": "bool",
          "name": "approved",
          "type": "bool"
        }
      ],
      "name": "ApprovalForAll",
      "type": "event"
    },
    {
      "anonymous": false,
      "inputs": [
        {
          "indexed": true,
          "internalType": "bytes32",
          "name": "id",
          "type": "bytes32"
        }
      ],
      "name": "ChainlinkCancelled",
      "type": "event"
    },
    {
      "anonymous": false,
      "inputs": [
        {
          "indexed": true,
          "internalType": "bytes32",
          "name": "id",
          "type": "bytes32"
        }
      ],
      "name": "ChainlinkFulfilled",
      "type": "event"
    },
    {
      "anonymous": false,
      "inputs": [
        {
          "indexed": true,
          "internalType": "bytes32",
          "name": "id",
          "type": "bytes32"
        }
      ],
      "name": "ChainlinkRequested",
      "type": "event"
    },
    {
      "anonymous": false,
      "inputs": [
        {
          "indexed": true,
          "internalType": "address",
          "name": "previousOwner",
          "type": "address"
        },
        {
          "indexed": true,
          "internalType": "address",
          "name": "newOwner",
          "type": "address"
        }
      ],
      "name": "OwnershipTransferred",
      "type": "event"
    },
    {
      "anonymous": false,
      "inputs": [
        {
          "indexed": true,
          "internalType": "uint256",
          "name": "skillWalletId",
          "type": "uint256"
        }
      ],
      "name": "PubKeyAddedToSkillWallet",
      "type": "event"
    },
    {
      "anonymous": false,
      "inputs": [
        {
          "indexed": true,
          "internalType": "uint256",
          "name": "skillWalletId",
          "type": "uint256"
        }
      ],
      "name": "SkillWalletActivated",
      "type": "event"
    },
    {
      "anonymous": false,
      "inputs": [
        {
          "indexed": false,
          "internalType": "uint256",
          "name": "tokenId",
          "type": "uint256"
        },
        {
          "indexed": false,
          "internalType": "address",
          "name": "owner",
          "type": "address"
        }
      ],
      "name": "SkillWalletClaimed",
      "type": "event"
    },
    {
      "anonymous": false,
      "inputs": [
        {
          "indexed": true,
          "internalType": "uint256",
          "name": "skillWalletId",
          "type": "uint256"
        },
        {
          "indexed": false,
          "internalType": "address",
          "name": "newCommunity",
          "type": "address"
        }
      ],
      "name": "SkillWalletCommunityChanged",
      "type": "event"
    },
    {
      "anonymous": false,
      "inputs": [
        {
          "indexed": true,
          "internalType": "address",
          "name": "skillWalletOwner",
          "type": "address"
        },
        {
          "indexed": true,
          "internalType": "address",
          "name": "community",
          "type": "address"
        },
        {
          "indexed": true,
          "internalType": "uint256",
          "name": "skillWalletId",
          "type": "uint256"
        }
      ],
      "name": "SkillWalletCreated",
      "type": "event"
    },
    {
      "anonymous": false,
      "inputs": [
        {
          "indexed": true,
          "internalType": "address",
          "name": "from",
          "type": "address"
        },
        {
          "indexed": true,
          "internalType": "address",
          "name": "to",
          "type": "address"
        },
        {
          "indexed": true,
          "internalType": "uint256",
          "name": "tokenId",
          "type": "uint256"
        }
      ],
      "name": "Transfer",
      "type": "event"
    },
    {
      "anonymous": false,
      "inputs": [
        {
          "indexed": false,
          "internalType": "uint256",
          "name": "tokenId",
          "type": "uint256"
        },
        {
          "indexed": false,
          "internalType": "uint256",
          "name": "nonce",
          "type": "uint256"
        },
        {
          "indexed": false,
          "internalType": "uint256",
          "name": "action",
          "type": "uint256"
        }
      ],
      "name": "ValidationFailed",
      "type": "event"
    },
    {
      "anonymous": false,
      "inputs": [
        {
          "indexed": false,
          "internalType": "uint256",
          "name": "tokenId",
          "type": "uint256"
        },
        {
          "indexed": false,
          "internalType": "uint256",
          "name": "nonce",
          "type": "uint256"
        },
        {
          "indexed": false,
          "internalType": "uint256",
          "name": "action",
          "type": "uint256"
        }
      ],
      "name": "ValidationPassed",
      "type": "event"
    },
    {
      "anonymous": false,
      "inputs": [
        {
          "indexed": false,
          "internalType": "bytes32",
          "name": "requestId",
          "type": "bytes32"
        },
        {
          "indexed": false,
          "internalType": "address",
          "name": "caller",
          "type": "address"
        },
        {
          "indexed": false,
          "internalType": "uint256",
          "name": "tokenId",
          "type": "uint256"
        }
      ],
      "name": "ValidationRequestIdSent",
      "type": "event"
    },
    {
      "inputs": [
        {
          "internalType": "uint256",
          "name": "skillWalletId",
          "type": "uint256"
        }
      ],
      "name": "activateSkillWallet",
      "outputs": [],
      "stateMutability": "nonpayable",
      "type": "function"
    },
    {
      "inputs": [
        {
          "internalType": "uint256",
          "name": "skillWalletId",
          "type": "uint256"
        },
        {
          "internalType": "string",
          "name": "pubKey",
          "type": "string"
        }
      ],
      "name": "addPubKeyToSkillWallet",
      "outputs": [],
      "stateMutability": "nonpayable",
      "type": "function"
    },
    {
      "inputs": [
        {
          "internalType": "address",
          "name": "to",
          "type": "address"
        },
        {
          "internalType": "uint256",
          "name": "tokenId",
          "type": "uint256"
        }
      ],
      "name": "approve",
      "outputs": [],
      "stateMutability": "nonpayable",
      "type": "function"
    },
    {
      "inputs": [
        {
          "internalType": "address",
          "name": "owner",
          "type": "address"
        }
      ],
      "name": "balanceOf",
      "outputs": [
        {
          "internalType": "uint256",
          "name": "",
          "type": "uint256"
        }
      ],
      "stateMutability": "view",
      "type": "function"
    },
    {
      "inputs": [],
      "name": "baseURI",
      "outputs": [
        {
          "internalType": "string",
          "name": "",
          "type": "string"
        }
      ],
      "stateMutability": "view",
      "type": "function"
    },
    {
      "inputs": [],
      "name": "claim",
      "outputs": [],
      "stateMutability": "nonpayable",
      "type": "function"
    },
    {
      "inputs": [
        {
          "internalType": "address",
          "name": "skillWalletOwner",
          "type": "address"
        },
        {
          "internalType": "string",
          "name": "url",
          "type": "string"
        },
        {
          "internalType": "bool",
          "name": "isClaimable",
          "type": "bool"
        }
      ],
      "name": "create",
      "outputs": [],
      "stateMutability": "nonpayable",
      "type": "function"
    },
    {
      "inputs": [
        {
          "internalType": "uint256",
          "name": "skillWalletId",
          "type": "uint256"
        }
      ],
      "name": "getActiveCommunity",
      "outputs": [
        {
          "internalType": "address",
          "name": "community",
          "type": "address"
        }
      ],
      "stateMutability": "view",
      "type": "function"
    },
    {
      "inputs": [
        {
          "internalType": "uint256",
          "name": "tokenId",
          "type": "uint256"
        }
      ],
      "name": "getApproved",
      "outputs": [
        {
          "internalType": "address",
          "name": "",
          "type": "address"
        }
      ],
      "stateMutability": "view",
      "type": "function"
    },
    {
      "inputs": [
        {
          "internalType": "address",
          "name": "skillWalletOwner",
          "type": "address"
        }
      ],
      "name": "getClaimableSkillWalletId",
      "outputs": [
        {
          "internalType": "uint256",
          "name": "",
          "type": "uint256"
        }
      ],
      "stateMutability": "view",
      "type": "function"
    },
    {
      "inputs": [
        {
          "internalType": "uint256",
          "name": "skillWalletId",
          "type": "uint256"
        }
      ],
      "name": "getCommunityHistory",
      "outputs": [
        {
          "internalType": "address[]",
          "name": "communities",
          "type": "address[]"
        }
      ],
      "stateMutability": "view",
      "type": "function"
    },
    {
      "inputs": [
        {
          "internalType": "address",
          "name": "skillWalletOwner",
          "type": "address"
        }
      ],
      "name": "getSkillWalletIdByOwner",
      "outputs": [
        {
          "internalType": "uint256",
          "name": "",
          "type": "uint256"
        }
      ],
      "stateMutability": "view",
      "type": "function"
    },
    {
      "inputs": [],
      "name": "getTotalSkillWalletsRegistered",
      "outputs": [
        {
          "internalType": "uint256",
          "name": "",
          "type": "uint256"
        }
      ],
      "stateMutability": "view",
      "type": "function"
    },
    {
      "inputs": [
        {
          "internalType": "address",
          "name": "owner",
          "type": "address"
        },
        {
          "internalType": "address",
          "name": "operator",
          "type": "address"
        }
      ],
      "name": "isApprovedForAll",
      "outputs": [
        {
          "internalType": "bool",
          "name": "",
          "type": "bool"
        }
      ],
      "stateMutability": "view",
      "type": "function"
    },
    {
      "inputs": [
        {
          "internalType": "bytes32",
          "name": "requestId",
          "type": "bytes32"
        }
      ],
      "name": "isRequestIdValid",
      "outputs": [
        {
          "internalType": "bool",
          "name": "",
          "type": "bool"
        }
      ],
      "stateMutability": "view",
      "type": "function"
    },
    {
      "inputs": [
        {
          "internalType": "uint256",
          "name": "skillWalletId",
          "type": "uint256"
        }
      ],
      "name": "isSkillWalletActivated",
      "outputs": [
        {
          "internalType": "bool",
          "name": "status",
          "type": "bool"
        }
      ],
      "stateMutability": "view",
      "type": "function"
    },
    {
      "inputs": [
        {
          "internalType": "address",
          "name": "skillWalletOwner",
          "type": "address"
        }
      ],
      "name": "isSkillWalletClaimable",
      "outputs": [
        {
          "internalType": "bool",
          "name": "status",
          "type": "bool"
        }
      ],
      "stateMutability": "view",
      "type": "function"
    },
    {
      "inputs": [
        {
          "internalType": "address",
          "name": "skillWalletOwner",
          "type": "address"
        }
      ],
      "name": "isSkillWalletRegistered",
      "outputs": [
        {
          "internalType": "bool",
          "name": "status",
          "type": "bool"
        }
      ],
      "stateMutability": "view",
      "type": "function"
    },
    {
      "inputs": [],
      "name": "name",
      "outputs": [
        {
          "internalType": "string",
          "name": "",
          "type": "string"
        }
      ],
      "stateMutability": "view",
      "type": "function"
    },
    {
      "inputs": [
        {
          "internalType": "address",
          "name": "operator",
          "type": "address"
        },
        {
          "internalType": "address",
          "name": "from",
          "type": "address"
        },
        {
          "internalType": "uint256",
          "name": "tokenId",
          "type": "uint256"
        },
        {
          "internalType": "bytes",
          "name": "data",
          "type": "bytes"
        }
      ],
      "name": "onERC721Received",
      "outputs": [
        {
          "internalType": "bytes4",
          "name": "",
          "type": "bytes4"
        }
      ],
      "stateMutability": "nonpayable",
      "type": "function"
    },
    {
      "inputs": [],
      "name": "owner",
      "outputs": [
        {
          "internalType": "address",
          "name": "",
          "type": "address"
        }
      ],
      "stateMutability": "view",
      "type": "function"
    },
    {
      "inputs": [
        {
          "internalType": "uint256",
          "name": "tokenId",
          "type": "uint256"
        }
      ],
      "name": "ownerOf",
      "outputs": [
        {
          "internalType": "address",
          "name": "",
          "type": "address"
        }
      ],
      "stateMutability": "view",
      "type": "function"
    },
    {
      "inputs": [],
      "name": "renounceOwnership",
      "outputs": [],
      "stateMutability": "nonpayable",
      "type": "function"
    },
    {
      "inputs": [
        {
          "internalType": "address",
          "name": "from",
          "type": "address"
        },
        {
          "internalType": "address",
          "name": "to",
          "type": "address"
        },
        {
          "internalType": "uint256",
          "name": "tokenId",
          "type": "uint256"
        }
      ],
      "name": "safeTransferFrom",
      "outputs": [],
      "stateMutability": "nonpayable",
      "type": "function"
    },
    {
      "inputs": [
        {
          "internalType": "address",
          "name": "from",
          "type": "address"
        },
        {
          "internalType": "address",
          "name": "to",
          "type": "address"
        },
        {
          "internalType": "uint256",
          "name": "tokenId",
          "type": "uint256"
        },
        {
          "internalType": "bytes",
          "name": "_data",
          "type": "bytes"
        }
      ],
      "name": "safeTransferFrom",
      "outputs": [],
      "stateMutability": "nonpayable",
      "type": "function"
    },
    {
      "inputs": [
        {
          "internalType": "address",
          "name": "operator",
          "type": "address"
        },
        {
          "internalType": "bool",
          "name": "approved",
          "type": "bool"
        }
      ],
      "name": "setApprovalForAll",
      "outputs": [],
      "stateMutability": "nonpayable",
      "type": "function"
    },
    {
      "inputs": [
        {
          "internalType": "address",
          "name": "",
          "type": "address"
        }
      ],
      "name": "skillWalletClaimers",
      "outputs": [
        {
          "internalType": "uint256",
          "name": "",
          "type": "uint256"
        }
      ],
      "stateMutability": "view",
      "type": "function"
    },
    {
      "inputs": [
        {
          "internalType": "uint256",
          "name": "",
          "type": "uint256"
        }
      ],
      "name": "skillWalletToPubKey",
      "outputs": [
        {
          "internalType": "string",
          "name": "",
          "type": "string"
        }
      ],
      "stateMutability": "view",
      "type": "function"
    },
    {
      "inputs": [
        {
          "internalType": "bytes4",
          "name": "interfaceId",
          "type": "bytes4"
        }
      ],
      "name": "supportsInterface",
      "outputs": [
        {
          "internalType": "bool",
          "name": "",
          "type": "bool"
        }
      ],
      "stateMutability": "view",
      "type": "function"
    },
    {
      "inputs": [],
      "name": "symbol",
      "outputs": [
        {
          "internalType": "string",
          "name": "",
          "type": "string"
        }
      ],
      "stateMutability": "view",
      "type": "function"
    },
    {
      "inputs": [
        {
          "internalType": "uint256",
          "name": "index",
          "type": "uint256"
        }
      ],
      "name": "tokenByIndex",
      "outputs": [
        {
          "internalType": "uint256",
          "name": "",
          "type": "uint256"
        }
      ],
      "stateMutability": "view",
      "type": "function"
    },
    {
      "inputs": [
        {
          "internalType": "address",
          "name": "owner",
          "type": "address"
        },
        {
          "internalType": "uint256",
          "name": "index",
          "type": "uint256"
        }
      ],
      "name": "tokenOfOwnerByIndex",
      "outputs": [
        {
          "internalType": "uint256",
          "name": "",
          "type": "uint256"
        }
      ],
      "stateMutability": "view",
      "type": "function"
    },
    {
      "inputs": [
        {
          "internalType": "uint256",
          "name": "tokenId",
          "type": "uint256"
        }
      ],
      "name": "tokenURI",
      "outputs": [
        {
          "internalType": "string",
          "name": "",
          "type": "string"
        }
      ],
      "stateMutability": "view",
      "type": "function"
    },
    {
      "inputs": [],
      "name": "totalSupply",
      "outputs": [
        {
          "internalType": "uint256",
          "name": "",
          "type": "uint256"
        }
      ],
      "stateMutability": "view",
      "type": "function"
    },
    {
      "inputs": [
        {
          "internalType": "address",
          "name": "from",
          "type": "address"
        },
        {
          "internalType": "address",
          "name": "to",
          "type": "address"
        },
        {
          "internalType": "uint256",
          "name": "tokenId",
          "type": "uint256"
        }
      ],
      "name": "transferFrom",
      "outputs": [],
      "stateMutability": "nonpayable",
      "type": "function"
    },
    {
      "inputs": [
        {
          "internalType": "address",
          "name": "newOwner",
          "type": "address"
        }
      ],
      "name": "transferOwnership",
      "outputs": [],
      "stateMutability": "nonpayable",
      "type": "function"
    },
    {
      "inputs": [
        {
          "internalType": "string",
          "name": "signature",
          "type": "string"
        },
        {
          "internalType": "uint256",
          "name": "tokenId",
          "type": "uint256"
        },
        {
          "internalType": "uint256",
          "name": "action",
          "type": "uint256"
        },
        {
          "internalType": "string[]",
          "name": "stringParams",
          "type": "string[]"
        },
        {
          "internalType": "uint256[]",
          "name": "intParams",
          "type": "uint256[]"
        },
        {
          "internalType": "address[]",
          "name": "addressParams",
          "type": "address[]"
        }
      ],
      "name": "validate",
      "outputs": [],
      "stateMutability": "nonpayable",
      "type": "function"
    },
    {
      "inputs": [
        {
          "internalType": "bytes32",
          "name": "_requestId",
          "type": "bytes32"
        },
        {
          "internalType": "bool",
          "name": "_isValid",
          "type": "bool"
        }
      ],
      "name": "validationCallback",
      "outputs": [],
      "stateMutability": "nonpayable",
      "type": "function"
    }
  ],
  "bytecode": "0x60806040526001600f553480156200001657600080fd5b506040516200477938038062004779833981016040819052620000399162000302565b604080518082018252600b81526a14dada5b1b15d85b1b195d60aa1b60208083019190915282518084019093526002835261535760f01b9083015290620000906301ffc9a760e01b6001600160e01b03620001de16565b8151620000a590600690602085019062000260565b508051620000bb90600790602084019062000260565b50620000d76380ac58cd60e01b6001600160e01b03620001de16565b620000f2635b5e139f60e01b6001600160e01b03620001de16565b6200010d63780e9d6360e01b6001600160e01b03620001de16565b5060009050620001256001600160e01b036200023916565b600a80546001600160a01b0319166001600160a01b038316908117909155604051919250906000907f8be0079c531659141344cd1fd0a4f28419497f9722a3daafe3b4186f6b6457e0908290a35062000187826001600160e01b036200023e16565b601880546001600160a01b0319166001600160a01b0392909216919091179055507f653162393964323361303035343961643937636332353139643764346637363760195567016345785d8a0000601a5562000390565b6001600160e01b03198082161415620002145760405162461bcd60e51b81526004016200020b9062000340565b60405180910390fd5b6001600160e01b0319166000908152602081905260409020805460ff19166001179055565b335b90565b600d80546001600160a01b0319166001600160a01b0392909216919091179055565b828054600181600116156101000203166002900490600052602060002090601f016020900481019282601f10620002a357805160ff1916838001178555620002d3565b82800160010185558215620002d3579182015b82811115620002d3578251825591602001919060010190620002b6565b50620002e1929150620002e5565b5090565b6200023b91905b80821115620002e15760008155600101620002ec565b6000806040838503121562000315578182fd5b8251620003228162000377565b6020840151909250620003358162000377565b809150509250929050565b6020808252601c908201527f4552433136353a20696e76616c696420696e7465726661636520696400000000604082015260600190565b6001600160a01b03811681146200038d57600080fd5b50565b6143d980620003a06000396000f3fe608060405234801561001057600080fd5b50600436106102115760003560e01c806365cbb7aa1161012557806395d89b41116100ad578063c71ae3021161007c578063c71ae3021461045a578063c87b56dd14610462578063e985e9c514610475578063f2fde38b14610488578063f3a4e1c01461049b57610211565b806395d89b4114610419578063a1a366f314610421578063a22cb46514610434578063b88d4fde1461044757610211565b8063715018a6116100f4578063715018a6146103d0578063739c1cba146103d85780638da5cb5b146103eb5780638f4b3f59146103f3578063937b53b61461040657610211565b806365cbb7aa1461038f5780636c0360eb146103a25780636f7e85eb146103aa57806370a08231146103bd57610211565b80632f745c59116101a85780634f6ccce7116101775780634f6ccce714610330578063588bf7a9146103435780635f6c93ad14610356578063617fc19d146103695780636352211e1461037c57610211565b80632f745c59146102d7578063407ca1c7146102ea57806342842e0e1461030a57806342ca96291461031d57610211565b80630a73b69d116101e45780630a73b69d1461028957806318160ddd1461029c5780631ad56396146102b157806323b872dd146102c457610211565b806301ffc9a71461021657806306fdde031461023f578063081812fc14610254578063095ea7b314610274575b600080fd5b6102296102243660046133e7565b6104bb565b6040516102369190613816565b60405180910390f35b6102476104de565b60405161023691906138e6565b6102676102623660046133ab565b610575565b604051610236919061371a565b610287610282366004613364565b6105c1565b005b610287610297366004613305565b610659565b6102a46107ed565b6040516102369190614295565b6102876102bf3660046133c3565b6107fe565b6102876102d236600461322f565b610d04565b6102a46102e5366004613364565b610d3c565b6102fd6102f83660046133ab565b610d6d565b6040516102369190613803565b61028761031836600461322f565b610e2c565b6102a461032b3660046131bf565b610e47565b6102a461033e3660046133ab565b610e8d565b6102876103513660046134df565b610ea9565b61028761036436600461341f565b610ffc565b6102876103773660046133ab565b61138f565b61026761038a3660046133ab565b61147c565b61026761039d3660046133ab565b6114aa565b610247611524565b6102296103b83660046133ab565b611585565b6102a46103cb3660046131bf565b61159a565b6102876115e3565b6102296103e63660046131bf565b61166c565b6102676116a6565b6102296104013660046133ab565b6116b5565b610287610414366004613528565b611729565b610247611826565b61024761042f3660046133ab565b611887565b6102876104423660046132d8565b611922565b61028761045536600461326f565b6119f0565b6102a4611a29565b6102476104703660046133ab565b611a35565b6102296104833660046131f7565b611b7b565b6102876104963660046131bf565b611ba9565b6104ae6104a93660046133ab565b611c6a565b6040516102369190614256565b6001600160e01b0319811660009081526020819052604090205460ff165b919050565b60068054604080516020601f600260001961010060018816150201909516949094049384018190048102820181019092528281526060939092909183018282801561056a5780601f1061053f5761010080835404028352916020019161056a565b820191906000526020600020905b81548152906001019060200180831161054d57829003601f168201915b505050505090505b90565b600061058082611d57565b6105a55760405162461bcd60e51b815260040161059c90613e94565b60405180910390fd5b506000908152600460205260409020546001600160a01b031690565b60006105cc8261147c565b9050806001600160a01b0316836001600160a01b031614156106005760405162461bcd60e51b815260040161059c90613fb0565b806001600160a01b0316610612611d6a565b6001600160a01b0316148061062e575061062e81610483611d6a565b61064a5760405162461bcd60e51b815260040161059c90613cda565b6106548383611d6e565b505050565b6106628361159a565b1561067f5760405162461bcd60e51b815260040161059c906138f9565b600061068b6017611ddc565b90506106978482611de0565b6106a18183611dee565b60008181526011602090815260408083208054336001600160a01b03199182168117909255601284528285208054600181810183559187528587200180549092169092179055848452601383528184208751805182549186015167ffffffffffffffff199283166001600160401b039283161760ff60401b19908116600160401b60ff93841681029190911786558c89015180519787018054918b01519187169886169890981783169084168202179096558b870151805160029096018054918a015191909516959093169490941790931692169092021790556001600160a01b03871683526014909152902081905561079b6017611e32565b80336001600160a01b0316856001600160a01b03167f66d78e575b2517d4e354b4b0512628805cdb33e81571b3deff51b5c796577486866040516107df9190614256565b60405180910390a450505050565b60006107f96002611e3b565b905090565b60008281526010602052604090205482906001600160a01b031633146108365760405162461bcd60e51b815260040161059c9061415b565b60008181526010602052604080822080546001600160a01b03191690555182917f7cc135e0cebb02c3480ae5d74d377283180a2601f8f644edf7987b009316c63a91a2610881612be8565b6000848152601b602090815260409182902082516060810190935280546001600160a01b03811684529091830190600160a01b900460ff1660058111156108c457fe5b60058111156108cf57fe5b81526020016001820160405180606001604052908160008201805480602002602001604051908101604052809291908181526020016000905b828210156109b35760008481526020908190208301805460408051601f600260001961010060018716150201909416939093049283018590048502810185019091528181529283018282801561099f5780601f106109745761010080835404028352916020019161099f565b820191906000526020600020905b81548152906001019060200180831161098257829003601f168201915b505050505081526020019060010190610908565b50505050815260200160018201805480602002602001604051908101604052809291908181526020018280548015610a0a57602002820191906000526020600020905b8154815260200190600101908083116109f6575b5050505050815260200160028201805480602002602001604051908101604052809291908181526020018280548015610a6c57602002820191906000526020600020905b81546001600160a01b03168152600190910190602001808311610a4e575b5050505050815250508152505090508215610cc0577f5f22ae4b8e4738fdfe8a3af9bf2cd2f4eb88ea73cdaad6be4626e3f550659eb36000806000604051610ab6939291906138d0565b60405180910390a16000848152601c60205260409020805460ff1916600190811790915581602001516005811115610aea57fe5b1415610af65750610654565b600081602001516005811115610b0857fe5b1415610b825780516001600160a01b03166000908152601460205260409081902054905163617fc19d60e01b8152309163617fc19d91610b4b9190600401614295565b600060405180830381600087803b158015610b6557600080fd5b505af1158015610b79573d6000803e3d6000fd5b50505050610cbb565b80516001600160a01b031660009081526014602052604090819020549051638f4b3f5960e01b81523091638f4b3f5991610bbf9190600401614295565b60206040518083038186803b158015610bd757600080fd5b505afa158015610beb573d6000803e3d6000fd5b505050506040513d601f19601f82011682018060405250810190610c0f919061338f565b610c2b5760405162461bcd60e51b815260040161059c90613a95565b6000610c3f82602001518360000151611e46565b6020808401518451604080870151938401518451948201519151630ed552f560e21b81529596506001600160a01b03871695633b554bd495610c879594939091600401613840565b600060405180830381600087803b158015610ca157600080fd5b505af1158015610cb5573d6000803e3d6000fd5b50505050505b610cfe565b7fd6ea2322a7829f0d58be55c06220472d2daa82457db59f3d67e93160011fbab26000806000604051610cf5939291906138d0565b60405180910390a15b50505050565b610d15610d0f611d6a565b82611f52565b610d315760405162461bcd60e51b815260040161059c90614089565b610654838383611fd7565b6001600160a01b0382166000908152600160205260408120610d64908363ffffffff611fef16565b90505b92915050565b6060610d796017611ddc565b8210610d975760405162461bcd60e51b815260040161059c90613d81565b600082815260126020526040902054610dc25760405162461bcd60e51b815260040161059c906141a3565b60008281526012602090815260409182902080548351818402810184019094528084529091830182828015610e2057602002820191906000526020600020905b81546001600160a01b03168152600190910190602001808311610e02575b50505050509050919050565b610654838383604051806020016040528060008152506119f0565b6000610e528261159a565b600114610e715760405162461bcd60e51b815260040161059c90613bc3565b506001600160a01b031660009081526014602052604090205490565b600080610ea160028463ffffffff611ffb16565b509392505050565b610eb1611d6a565b6001600160a01b0316610ec26116a6565b6001600160a01b031614610ee85760405162461bcd60e51b815260040161059c90613f2c565b610ef26017611ddc565b8310610f105760405162461bcd60e51b815260040161059c90613d81565b6000838152601160205260409020546001600160a01b0316610f445760405162461bcd60e51b815260040161059c90613b10565b60008381526015602052604090205460ff1615610f735760405162461bcd60e51b815260040161059c9061403e565b6000838152601660205260409020546002600019610100600184161502019091160415610fb25760405162461bcd60e51b815260040161059c90614200565b6000838152601660205260409020610fcb908383612c0c565b5060405183907f46720ddbef9dfaafeff045ae333e447ae69c7560cb5982ce5f6c1c55471db14190600090a2505050565b6000858152601660205260409020546002600019610100600184161502019091160461103a5760405162461bcd60e51b815260040161059c906139a7565b611042612c8a565b6019546110579030630d6ab1cb60e11b612019565b60408051808201825260068152657075624b657960d01b60208083019190915260008a8152601682528390208054845160026001831615610100026000190190921691909104601f8101849004840282018401909552848152949550611121949293909183018282801561110c5780601f106110e15761010080835404028352916020019161110c565b820191906000526020600020905b8154815290600101906020018083116110ef57829003601f168201915b5050505050836120469092919063ffffffff16565b61118c604051806040016040528060098152602001687369676e617475726560b81b81525089898080601f01602080910402602001604051908101604052809392919081815260200183838082843760009201919091525086949392505063ffffffff612046169050565b6111f46040518060400160405280600b81526020016a19d95d139bdb98d9555c9b60aa1b8152506111bc88612070565b6111c588612070565b6040516020016111d6929190613692565b60408051601f1981840301815291905283919063ffffffff61204616565b6112246040518060400160405280600b81526020016a19195b139bdb98d9555c9b60aa1b8152506111bc88612070565b600061122f8761147c565b601854601a54919250600091611250916001600160a01b031690859061214a565b90506040518060600160405280836001600160a01b0316815260200188600581111561127857fe5b600581111561128357fe5b81526040805160608101825289815260208082018a9052818301899052928301526000848152601b835220825181546001600160a01b0319166001600160a01b0390911617808255918301519091829060ff60a01b1916600160a01b8360058111156112eb57fe5b0217905550604082015180518051600184019161130d91839160200190612cba565b5060208281015180516113269260018501920190612d13565b5060408201518051611342916002840191602090910190612d4e565b5050509050507f333949fca308f4036f410b4043d12561c861b3b69bc64792706725b52bd7d49881838a60405161137b93929190613821565b60405180910390a150505050505050505050565b3330146113ae5760405162461bcd60e51b815260040161059c90613dc9565b6113b86017611ddc565b81106113d65760405162461bcd60e51b815260040161059c90613d81565b6000818152601160205260409020546001600160a01b031661140a5760405162461bcd60e51b815260040161059c90613b10565b60008181526015602052604090205460ff16156114395760405162461bcd60e51b815260040161059c9061403e565b600081815260156020526040808220805460ff191660011790555182917f3b9fa7eba99fc1e57dd4fc92ee03c32e0766a7c33c9f6222a3e3d72788fe4ff691a250565b6000610d678260405180606001604052806029815260200161437b602991396002919063ffffffff61228916565b60006114b66017611ddc565b82106114d45760405162461bcd60e51b815260040161059c90613d81565b6000828152601160205260409020546001600160a01b03166115085760405162461bcd60e51b815260040161059c90613b10565b506000908152601160205260409020546001600160a01b031690565b60098054604080516020601f600260001961010060018816150201909516949094049384018190048102820181019092528281526060939092909183018282801561056a5780601f1061053f5761010080835404028352916020019161056a565b6000908152601c602052604090205460ff1690565b60006001600160a01b0382166115c25760405162461bcd60e51b815260040161059c90613d37565b6001600160a01b0382166000908152600160205260409020610d6790611e3b565b6115eb611d6a565b6001600160a01b03166115fc6116a6565b6001600160a01b0316146116225760405162461bcd60e51b815260040161059c90613f2c565b600a546040516000916001600160a01b0316907f8be0079c531659141344cd1fd0a4f28419497f9722a3daafe3b4186f6b6457e0908390a3600a80546001600160a01b0319169055565b60006001600160a01b0382166116945760405162461bcd60e51b815260040161059c90613ff1565b61169d8261159a565b60011492915050565b600a546001600160a01b031690565b60006116c16017611ddc565b82106116df5760405162461bcd60e51b815260040161059c90613d81565b6000828152601160205260409020546001600160a01b03166117135760405162461bcd60e51b815260040161059c90613b10565b5060009081526015602052604090205460ff1690565b6117336017611ddc565b82106117515760405162461bcd60e51b815260040161059c90613d81565b6000828152601360209081526040918290208351805182549184015160ff908116600160401b90810260ff60401b196001600160401b0394851667ffffffffffffffff19968716178116919091178655868901518051600188018054928a01518616850291871692881692909217831617905587890151805160029097018054919098015190931690910294909216921691909117161790555182907f6abce99645fd09e69c8d2e751e864666123a5a52cb47f74f31a224f9a253ce0c9061181a908490614256565b60405180910390a25050565b60078054604080516020601f600260001961010060018816150201909516949094049384018190048102820181019092528281526060939092909183018282801561056a5780601f1061053f5761010080835404028352916020019161056a565b60166020908152600091825260409182902080548351601f60026000196101006001861615020190931692909204918201849004840281018401909452808452909183018282801561191a5780601f106118ef5761010080835404028352916020019161191a565b820191906000526020600020905b8154815290600101906020018083116118fd57829003601f168201915b505050505081565b61192a611d6a565b6001600160a01b0316826001600160a01b0316141561195b5760405162461bcd60e51b815260040161059c90613c11565b8060056000611968611d6a565b6001600160a01b03908116825260208083019390935260409182016000908120918716808252919093529120805460ff1916921515929092179091556119ac611d6a565b6001600160a01b03167f17307eab39ab6107e8899845ad3d59bd9653f200f220920489ca2b5937696c31836040516119e49190613816565b60405180910390a35050565b611a016119fb611d6a565b83611f52565b611a1d5760405162461bcd60e51b815260040161059c90614089565b610cfe84848484612296565b60006107f96017611ddc565b6060611a4082611d57565b611a5c5760405162461bcd60e51b815260040161059c90613f61565b60008281526008602090815260409182902080548351601f6002600019610100600186161502019093169290920491820184900484028101840190945280845260609392830182828015611af15780601f10611ac657610100808354040283529160200191611af1565b820191906000526020600020905b815481529060010190602001808311611ad457829003601f168201915b505050505090506060611b02611524565b9050805160001415611b16575090506104d9565b815115611b48578082604051602001611b30929190613664565b604051602081830303815290604052925050506104d9565b80611b5285612070565b604051602001611b63929190613664565b60405160208183030381529060405292505050919050565b6001600160a01b03918216600090815260056020908152604080832093909416825291909152205460ff1690565b611bb1611d6a565b6001600160a01b0316611bc26116a6565b6001600160a01b031614611be85760405162461bcd60e51b815260040161059c90613f2c565b6001600160a01b038116611c0e5760405162461bcd60e51b815260040161059c90613a4f565b600a546040516001600160a01b038084169216907f8be0079c531659141344cd1fd0a4f28419497f9722a3daafe3b4186f6b6457e090600090a3600a80546001600160a01b0319166001600160a01b0392909216919091179055565b611c72612daf565b611c7c6017611ddc565b8210611c9a5760405162461bcd60e51b815260040161059c90613d81565b6000828152601160205260409020546001600160a01b0316611cce5760405162461bcd60e51b815260040161059c90613b10565b50600090815260136020908152604091829020825160a08101845281546001600160401b038082166060840190815260ff600160401b938490048116608086015290845286518088018852600186015480841682528490048216818801528487015286518088018852600290950154918216855291900416928201929092529181019190915290565b6000610d6760028363ffffffff6122c916565b3390565b600081815260046020526040902080546001600160a01b0319166001600160a01b0384169081179091558190611da38261147c565b6001600160a01b03167f8c5be1e5ebec7d5bd14f71427d1e84f3dd0314c0f7b2291e5b200ac8c7c3b92560405160405180910390a45050565b5490565b611dea82826122d5565b5050565b611df782611d57565b611e135760405162461bcd60e51b815260040161059c90613ee0565b6000828152600860209081526040909120825161065492840190612ddc565b80546001019055565b6000610d6782611ddc565b6001600160a01b0381166000908152601460205260408120546002846005811115611e6d57fe5b1480611e8457506003846005811115611e8257fe5b145b80611e9a57506004846005811115611e9857fe5b145b80611eb057506005846005811115611eae57fe5b145b15611f48576000818152601160209081526040808320548151634b26215f60e11b815291516001600160a01b039091169392849263964c42be9260048083019392829003018186803b158015611f0557600080fd5b505afa158015611f19573d6000803e3d6000fd5b505050506040513d601f19601f82011682018060405250810190611f3d91906131db565b9350610d6792505050565b5060009392505050565b6000611f5d82611d57565b611f795760405162461bcd60e51b815260040161059c90613c8e565b6000611f848361147c565b9050806001600160a01b0316846001600160a01b03161480611fbf5750836001600160a01b0316611fb484610575565b6001600160a01b0316145b80611fcf5750611fcf8185611b7b565b949350505050565b60405162461bcd60e51b815260040161059c90614111565b6000610d6483836122ef565b600080808061200a8686612334565b909450925050505b9250929050565b612021612c8a565b612029612c8a565b61203b8186868663ffffffff61239016565b9150505b9392505050565b608083015161205b908363ffffffff6123cd16565b6080830151610654908263ffffffff6123cd16565b60608161209557506040805180820190915260018152600360fc1b60208201526104d9565b8160005b81156120ad57600101600a82049150612099565b6060816001600160401b03811180156120c557600080fd5b506040519080825280601f01601f1916602001820160405280156120f0576020820181803683370190505b50859350905060001982015b831561214157600a840660300160f81b8282806001900393508151811061211f57fe5b60200101906001600160f81b031916908160001a905350600a840493506120fc565b50949350505050565b600030600f54604051602001612161929190613642565b60408051808303601f190181529181528151602092830120600f5460608701526000818152601090935281832080546001600160a01b0319166001600160a01b038916179055905190925082917fb5e6e01e79f91267dc17b4e6314d5d4d03593d2ceee0fbb452b750bd70ea5af991a2600d546001600160a01b0316634000aea085846121ed876123ea565b6040518463ffffffff1660e01b815260040161220b939291906137d3565b602060405180830381600087803b15801561222557600080fd5b505af1158015612239573d6000803e3d6000fd5b505050506040513d601f19601f8201168201806040525081019061225d919061338f565b6122795760405162461bcd60e51b815260040161059c90613b80565b600f805460010190559392505050565b6000611fcf848484612466565b6122a1848484611fd7565b6122ad848484846124c5565b610cfe5760405162461bcd60e51b815260040161059c906139fd565b6000610d6483836125aa565b611dea8282604051806020016040528060008152506125c2565b815460009082106123125760405162461bcd60e51b815260040161059c90613965565b82600001828154811061232157fe5b9060005260206000200154905092915050565b8154600090819083106123595760405162461bcd60e51b815260040161059c90613e1d565b600084600001848154811061236a57fe5b906000526020600020906002020190508060000154816001015492509250509250929050565b612398612c8a565b6123a885608001516101006125f5565b50509183526001600160a01b031660208301526001600160e01b031916604082015290565b6123da826003835161262f565b610654828263ffffffff61273816565b6060634042994660e01b6000808460000151856020015186604001518760600151600189608001516000015160405160240161242d98979695949392919061376b565b60408051601f198184030181529190526020810180516001600160e01b03166001600160e01b0319909316929092179091529050919050565b600082815260018401602052604081205482816124965760405162461bcd60e51b815260040161059c91906138e6565b508460000160018203815481106124a957fe5b9060005260206000209060020201600101549150509392505050565b60006124d9846001600160a01b0316612752565b6124e557506001611fcf565b6060612573630a85bd0160e11b6124fa611d6a565b888787604051602401612510949392919061372e565b604051602081830303815290604052906001600160e01b0319166020820180516001600160e01b038381831617835250505050604051806060016040528060328152602001614349603291396001600160a01b038816919063ffffffff61275816565b905060008180602001905181019061258b9190613403565b6001600160e01b031916630a85bd0160e11b1492505050949350505050565b60009081526001919091016020526040902054151590565b6125cc8383612767565b6125d960008484846124c5565b6106545760405162461bcd60e51b815260040161059c906139fd565b6125fd612e49565b60208206156126125760208206602003820191505b506020828101829052604080518085526000815290920101905290565b60178111612656576126508360e0600585901b16831763ffffffff61283716565b50610654565b60ff811161268c57612679836018611fe0600586901b161763ffffffff61283716565b506126508382600163ffffffff61284f16565b61ffff81116126c3576126b0836019611fe0600586901b161763ffffffff61283716565b506126508382600263ffffffff61284f16565b63ffffffff81116126fc576126e983601a611fe0600586901b161763ffffffff61283716565b506126508382600463ffffffff61284f16565b6001600160401b0381116106545761272583601b611fe0600586901b161763ffffffff61283716565b50610cfe8382600863ffffffff61284f16565b612740612e49565b610d6483846000015151848551612868565b3b151590565b6060611fcf8484600085612914565b6001600160a01b03821661278d5760405162461bcd60e51b815260040161059c90613e5f565b61279681611d57565b156127b35760405162461bcd60e51b815260040161059c90613ad9565b6127bf60008383610654565b6001600160a01b03821660009081526001602052604090206127e7908263ffffffff6129d516565b506127fa6002828463ffffffff6129e116565b5060405181906001600160a01b038416906000907fddf252ad1be2c89b69c2b068fc378daa952ba7f163c4a11628f55a4df523b3ef908290a45050565b61283f612e49565b610d6483846000015151846129f7565b612857612e49565b611fcf848560000151518585612a42565b612870612e49565b825182111561287e57600080fd5b846020015182850111156128a8576128a8856128a08760200151878601612aa0565b600202612ab7565b6000808651805187602083010193508088870111156128c75787860182525b505050602084015b602084106128ee5780518252601f1990930192602091820191016128cf565b51815160001960208690036101000a019081169019919091161790525083949350505050565b6060824710156129365760405162461bcd60e51b815260040161059c90613c48565b61293f85612752565b61295b5760405162461bcd60e51b815260040161059c906140da565b60006060866001600160a01b031685876040516129789190613626565b60006040518083038185875af1925050503d80600081146129b5576040519150601f19603f3d011682016040523d82523d6000602084013e6129ba565b606091505b50915091506129ca828286612ace565b979650505050505050565b6000610d648383612b07565b6000611fcf84846001600160a01b038516612b51565b6129ff612e49565b83602001518310612a1b57612a1b848560200151600202612ab7565b835180516020858301018481535080851415612a38576001810182525b5093949350505050565b612a4a612e49565b84602001518483011115612a6757612a6785858401600202612ab7565b60006001836101000a039050855183868201018583198251161781525080518487011115612a955783860181525b509495945050505050565b600081831115612ab1575081610d67565b50919050565b8151612ac383836125f5565b50610cfe8382612738565b60608315612add57508161203f565b825115612aed5782518084602001fd5b8160405162461bcd60e51b815260040161059c91906138e6565b6000612b1383836125aa565b612b4957508154600181810184556000848152602080822090930184905584548482528286019093526040902091909155610d67565b506000610d67565b600082815260018401602052604081205480612bb657505060408051808201825283815260208082018481528654600181810189556000898152848120955160029093029095019182559151908201558654868452818801909252929091205561203f565b82856000016001830381548110612bc957fe5b906000526020600020906002020160010181905550600091505061203f565b6040805160608101825260008082526020820152908101612c07612e63565b905290565b828054600181600116156101000203166002900490600052602060002090601f016020900481019282601f10612c4d5782800160ff19823516178555612c7a565b82800160010185558215612c7a579182015b82811115612c7a578235825591602001919060010190612c5f565b50612c86929150612e84565b5090565b6040805160a081018252600080825260208201819052918101829052606081019190915260808101612c07612e49565b828054828255906000526020600020908101928215612d07579160200282015b82811115612d075782518051612cf7918491602090910190612ddc565b5091602001919060010190612cda565b50612c86929150612e9e565b828054828255906000526020600020908101928215612c7a579160200282015b82811115612c7a578251825591602001919060010190612d33565b828054828255906000526020600020908101928215612da3579160200282015b82811115612da357825182546001600160a01b0319166001600160a01b03909116178255602090920191600190910190612d6e565b50612c86929150612ec1565b6040518060600160405280612dc2612ee5565b8152602001612dcf612ee5565b8152602001612c07612ee5565b828054600181600116156101000203166002900490600052602060002090601f016020900481019282601f10612e1d57805160ff1916838001178555612c7a565b82800160010185558215612c7a5791820182811115612c7a578251825591602001919060010190612d33565b604051806040016040528060608152602001600081525090565b60405180606001604052806060815260200160608152602001606081525090565b61057291905b80821115612c865760008155600101612e8a565b61057291905b80821115612c86576000612eb88282612efc565b50600101612ea4565b61057291905b80821115612c865780546001600160a01b0319168155600101612ec7565b604080518082019091526000808252602082015290565b50805460018160011615610100020316600290046000825580601f10612f225750612f40565b601f016020900490600052602060002090810190612f409190612e84565b50565b600082601f830112612f53578081fd5b8135612f66612f61826142c4565b61429e565b818152915060208083019084810181840286018201871015612f8757600080fd5b60005b84811015612faf578135612f9d8161430f565b84529282019290820190600101612f8a565b505050505092915050565b600082601f830112612fca578081fd5b8135612fd8612f61826142c4565b818152915060208083019084810160005b84811015612faf57613000888484358a0101613070565b84529282019290820190600101612fe9565b600082601f830112613022578081fd5b8135613030612f61826142c4565b81815291506020808301908481018184028601820187101561305157600080fd5b60005b84811015612faf57813584529282019290820190600101613054565b600082601f830112613080578081fd5b81356001600160401b03811115613095578182fd5b6130a8601f8201601f191660200161429e565b91508082528360208285010111156130bf57600080fd5b8060208401602084013760009082016020015292915050565b60008083601f8401126130e9578182fd5b5081356001600160401b038111156130ff578182fd5b60208301915083602082850101111561201257600080fd5b600060c08284031215613128578081fd5b613132606061429e565b905061313e838361316a565b815261314d836040840161316a565b602082015261315f836080840161316a565b604082015292915050565b60006040828403121561317b578081fd5b613185604061429e565b905081356001600160401b038116811461319e57600080fd5b8152602082013560ff811681146131b457600080fd5b602082015292915050565b6000602082840312156131d0578081fd5b813561203f8161430f565b6000602082840312156131ec578081fd5b815161203f8161430f565b60008060408385031215613209578081fd5b82356132148161430f565b915060208301356132248161430f565b809150509250929050565b600080600060608486031215613243578081fd5b833561324e8161430f565b9250602084013561325e8161430f565b929592945050506040919091013590565b60008060008060808587031215613284578081fd5b843561328f8161430f565b9350602085013561329f8161430f565b92506040850135915060608501356001600160401b038111156132c0578182fd5b6132cc87828801613070565b91505092959194509250565b600080604083850312156132ea578182fd5b82356132f58161430f565b9150602083013561322481614324565b6000806000610100848603121561331a578081fd5b83356133258161430f565b92506133348560208601613117565b915060e08401356001600160401b0381111561334e578182fd5b61335a86828701613070565b9150509250925092565b60008060408385031215613376578182fd5b82356133818161430f565b946020939093013593505050565b6000602082840312156133a0578081fd5b815161203f81614324565b6000602082840312156133bc578081fd5b5035919050565b600080604083850312156133d5578182fd5b82359150602083013561322481614324565b6000602082840312156133f8578081fd5b813561203f81614332565b600060208284031215613414578081fd5b815161203f81614332565b600080600080600080600060c0888a031215613439578485fd5b87356001600160401b038082111561344f578687fd5b61345b8b838c016130d8565b909950975060208a0135965060408a0135955060608a0135915080821115613481578485fd5b61348d8b838c01612fba565b945060808a01359150808211156134a2578384fd5b6134ae8b838c01613012565b935060a08a01359150808211156134c3578283fd5b506134d08a828b01612f43565b91505092959891949750929550565b6000806000604084860312156134f3578081fd5b8335925060208401356001600160401b0381111561350f578182fd5b61351b868287016130d8565b9497909650939450505050565b60008060e0838503121561353a578182fd5b8235915061354b8460208501613117565b90509250929050565b6000815180845260208085019450808401835b83811015612a955781516001600160a01b031687529582019590820190600101613567565b6000815180845260208085018081965082840281019150828601855b858110156135d25782840389526135c08483516135df565b988501989350908401906001016135a8565b5091979650505050505050565b600081518084526135f78160208601602086016142e3565b601f01601f19169290920160200192915050565b80516001600160401b0316825260209081015160ff16910152565b600082516136388184602087016142e3565b9190910192915050565b60609290921b6bffffffffffffffffffffffff19168252601482015260340190565b600083516136768184602088016142e3565b83519083016136898282602088016142e3565b01949350505050565b60007f68747470733a2f2f6170692e736b696c6c77616c6c65742e69642f6170692f7382526a6b696c6c77616c6c65742f60a81b602083015283516136de81602b8501602088016142e3565b8083016e2f6e6f6e6365733f616374696f6e3d60881b602b8201528451915061370e82603a8301602088016142e3565b01603a01949350505050565b6001600160a01b0391909116815260200190565b6001600160a01b0385811682528416602082015260408101839052608060608201819052600090613761908301846135df565b9695505050505050565b6001600160a01b0389811682526020820189905260408201889052861660608201526001600160e01b03198516608082015260a0810184905260c0810183905261010060e082018190526000906137c4838201856135df565b9b9a5050505050505050505050565b600060018060a01b0385168252836020830152606060408301526137fa60608301846135df565b95945050505050565b600060208252610d646020830184613554565b901515815260200190565b9283526001600160a01b03919091166020830152604082015260600190565b600060a082016006881061385057fe5b8783526001600160a01b03871660208085019190915260a060408501528651918290528681019160c0850190845b8181101561389a5784518352938301939183019160010161387e565b505084810360608601526138ae818861358c565b9250505082810360808401526138c48185613554565b98975050505050505050565b9283526020830191909152604082015260600190565b600060208252610d6460208301846135df565b60208082526046908201527f536b696c6c57616c6c65743a20546865726520697320536b696c6c57616c6c6560408201527f7420616c7265616479207265676973746572656420666f722074686973206164606082015265323932b9b99760d11b608082015260a00190565b60208082526022908201527f456e756d657261626c655365743a20696e646578206f7574206f6620626f756e604082015261647360f01b606082015260800190565b60208082526036908201527f5075624b65792073686f756c642062652061737369676e656420746f2074686560408201527520736b696c6c2077616c6c657449442066697273742160501b606082015260800190565b60208082526032908201527f4552433732313a207472616e7366657220746f206e6f6e20455243373231526560408201527131b2b4bb32b91034b6b83632b6b2b73a32b960711b606082015260800190565b60208082526026908201527f4f776e61626c653a206e6577206f776e657220697320746865207a65726f206160408201526564647265737360d01b606082015260800190565b60208082526024908201527f536b696c6c57616c6c6574206d757374206265206163746976617465642066696040820152637273742160e01b606082015260800190565b6020808252601c908201527f4552433732313a20746f6b656e20616c7265616479206d696e74656400000000604082015260600190565b6020808252604a908201527f536b696c6c57616c6c65743a2054686520536b696c6c57616c6c65742069732060408201527f6e6f7420696e20616e7920636f6d6d756e6974792c20696e76616c696420536b60608201526934b6362bb0b63632ba1760b11b608082015260a00190565b60208082526023908201527f756e61626c6520746f207472616e73666572416e6443616c6c20746f206f7261604082015262636c6560e81b606082015260800190565b6020808252602e908201527f536b696c6c57616c6c65743a2054686520536b696c6c57616c6c6574206f776e60408201526d32b91034b99034b73b30b634b21760911b606082015260800190565b60208082526019908201527f4552433732313a20617070726f766520746f2063616c6c657200000000000000604082015260600190565b60208082526026908201527f416464726573733a20696e73756666696369656e742062616c616e636520666f6040820152651c8818d85b1b60d21b606082015260800190565b6020808252602c908201527f4552433732313a206f70657261746f7220717565727920666f72206e6f6e657860408201526b34b9ba32b73a103a37b5b2b760a11b606082015260800190565b60208082526038908201527f4552433732313a20617070726f76652063616c6c6572206973206e6f74206f7760408201527f6e6572206e6f7220617070726f76656420666f7220616c6c0000000000000000606082015260800190565b6020808252602a908201527f4552433732313a2062616c616e636520717565727920666f7220746865207a65604082015269726f206164647265737360b01b606082015260800190565b60208082526028908201527f536b696c6c57616c6c65743a20736b696c6c57616c6c65744964206f7574206f60408201526733103930b733b29760c11b606082015260800190565b60208082526034908201527f546869732066756e6374696f6e2063616e2062652063616c6c6564206f6e6c796040820152732062792074686520535720636f6e74726163742160601b606082015260800190565b60208082526022908201527f456e756d657261626c654d61703a20696e646578206f7574206f6620626f756e604082015261647360f01b606082015260800190565b6020808252818101527f4552433732313a206d696e7420746f20746865207a65726f2061646472657373604082015260600190565b6020808252602c908201527f4552433732313a20617070726f76656420717565727920666f72206e6f6e657860408201526b34b9ba32b73a103a37b5b2b760a11b606082015260800190565b6020808252602c908201527f4552433732314d657461646174613a2055524920736574206f66206e6f6e657860408201526b34b9ba32b73a103a37b5b2b760a11b606082015260800190565b6020808252818101527f4f776e61626c653a2063616c6c6572206973206e6f7420746865206f776e6572604082015260600190565b6020808252602f908201527f4552433732314d657461646174613a2055524920717565727920666f72206e6f60408201526e3732bc34b9ba32b73a103a37b5b2b760891b606082015260800190565b60208082526021908201527f4552433732313a20617070726f76616c20746f2063757272656e74206f776e656040820152603960f91b606082015260800190565b6020808252602d908201527f536b696c6c57616c6c65743a20496e76616c696420736b696c6c57616c6c657460408201526c4f776e6572206164647265737360981b606082015260800190565b6020808252602b908201527f536b696c6c57616c6c65743a20536b696c6c2077616c6c657420616c7265616460408201526a1e481858dd1a5d985d195960aa1b606082015260800190565b60208082526031908201527f4552433732313a207472616e736665722063616c6c6572206973206e6f74206f6040820152701ddb995c881b9bdc88185c1c1c9bdd9959607a1b606082015260800190565b6020808252601d908201527f416464726573733a2063616c6c20746f206e6f6e2d636f6e7472616374000000604082015260600190565b6020808252602a908201527f536b696c6c57616c6c65743a20536b696c6c57616c6c6574207472616e7366656040820152691c88191a5cd8589b195960b21b606082015260800190565b60208082526028908201527f536f75726365206d75737420626520746865206f7261636c65206f6620746865604082015267081c995c5d595cdd60c21b606082015260800190565b6020808252603a908201527f536b696c6c57616c6c65743a2054686520536b696c6c57616c6c65742069732060408201527f6e6f742070617274206f6620616e7920636f6d6d756e6974792e000000000000606082015260800190565b60208082526036908201527f536b696c6c57616c6c65743a20536b696c6c2077616c6c657420616c726561646040820152753c903430b990383ab125b2bc9030b9b9b4b3b732b21760511b606082015260800190565b600060c08201905061426982845161360b565b602083015161427b604084018261360b565b50604083015161428e608084018261360b565b5092915050565b90815260200190565b6040518181016001600160401b03811182821017156142bc57600080fd5b604052919050565b60006001600160401b038211156142d9578081fd5b5060209081020190565b60005b838110156142fe5781810151838201526020016142e6565b83811115610cfe5750506000910152565b6001600160a01b0381168114612f4057600080fd5b8015158114612f4057600080fd5b6001600160e01b031981168114612f4057600080fdfe4552433732313a207472616e7366657220746f206e6f6e20455243373231526563656976657220696d706c656d656e7465724552433732313a206f776e657220717565727920666f72206e6f6e6578697374656e7420746f6b656ea2646970667358221220b63fb32d48effdc16ce959cb46c3fa6e884627c9221e41a24fa174cb16fe214664736f6c634300060a0033",
  "linkReferences": {},
  "deployedLinkReferences": {}
}