{
  "_format": "hh-sol-artifact-1",
  "contractName": "SkillWallet",
  "sourceName": "contracts/SkillWallet.sol",
  "abi": [
    {
      "inputs": [],
      "stateMutability": "nonpayable",
      "type": "constructor"
    },
    {
      "anonymous": false,
      "inputs": [
        {
          "indexed": true,
          "internalType": "address",
          "name": "owner",
          "type": "address"
        },
        {
          "indexed": true,
          "internalType": "address",
          "name": "approved",
          "type": "address"
        },
        {
          "indexed": true,
          "internalType": "uint256",
          "name": "tokenId",
          "type": "uint256"
        }
      ],
      "name": "Approval",
      "type": "event"
    },
    {
      "anonymous": false,
      "inputs": [
        {
          "indexed": true,
          "internalType": "address",
          "name": "owner",
          "type": "address"
        },
        {
          "indexed": true,
          "internalType": "address",
          "name": "operator",
          "type": "address"
        },
        {
          "indexed": false,
          "internalType": "bool",
          "name": "approved",
          "type": "bool"
        }
      ],
      "name": "ApprovalForAll",
      "type": "event"
    },
    {
      "anonymous": false,
      "inputs": [
        {
          "indexed": true,
          "internalType": "bytes32",
          "name": "id",
          "type": "bytes32"
        }
      ],
      "name": "ChainlinkCancelled",
      "type": "event"
    },
    {
      "anonymous": false,
      "inputs": [
        {
          "indexed": true,
          "internalType": "bytes32",
          "name": "id",
          "type": "bytes32"
        }
      ],
      "name": "ChainlinkFulfilled",
      "type": "event"
    },
    {
      "anonymous": false,
      "inputs": [
        {
          "indexed": true,
          "internalType": "bytes32",
          "name": "id",
          "type": "bytes32"
        }
      ],
      "name": "ChainlinkRequested",
      "type": "event"
    },
    {
      "anonymous": false,
      "inputs": [
        {
          "indexed": true,
          "internalType": "address",
          "name": "previousOwner",
          "type": "address"
        },
        {
          "indexed": true,
          "internalType": "address",
          "name": "newOwner",
          "type": "address"
        }
      ],
      "name": "OwnershipTransferred",
      "type": "event"
    },
    {
      "anonymous": false,
      "inputs": [
        {
          "indexed": true,
          "internalType": "uint256",
          "name": "skillWalletId",
          "type": "uint256"
        },
        {
          "components": [
            {
              "components": [
                {
                  "internalType": "uint64",
                  "name": "displayStringId",
                  "type": "uint64"
                },
                {
                  "internalType": "uint8",
                  "name": "level",
                  "type": "uint8"
                }
              ],
              "internalType": "struct Types.Skill",
              "name": "skill1",
              "type": "tuple"
            },
            {
              "components": [
                {
                  "internalType": "uint64",
                  "name": "displayStringId",
                  "type": "uint64"
                },
                {
                  "internalType": "uint8",
                  "name": "level",
                  "type": "uint8"
                }
              ],
              "internalType": "struct Types.Skill",
              "name": "skill2",
              "type": "tuple"
            },
            {
              "components": [
                {
                  "internalType": "uint64",
                  "name": "displayStringId",
                  "type": "uint64"
                },
                {
                  "internalType": "uint8",
                  "name": "level",
                  "type": "uint8"
                }
              ],
              "internalType": "struct Types.Skill",
              "name": "skill3",
              "type": "tuple"
            }
          ],
          "indexed": false,
          "internalType": "struct Types.SkillSet",
          "name": "newSkillSet",
          "type": "tuple"
        }
      ],
      "name": "SkillSetUpdated",
      "type": "event"
    },
    {
      "anonymous": false,
      "inputs": [
        {
          "indexed": true,
          "internalType": "uint256",
          "name": "skillWalletId",
          "type": "uint256"
        }
      ],
      "name": "SkillWalletActivated",
      "type": "event"
    },
    {
      "anonymous": false,
      "inputs": [
        {
          "indexed": true,
          "internalType": "uint256",
          "name": "skillWalletId",
          "type": "uint256"
        },
        {
          "indexed": false,
          "internalType": "address",
          "name": "newCommunity",
          "type": "address"
        }
      ],
      "name": "SkillWalletCommunityChanged",
      "type": "event"
    },
    {
      "anonymous": false,
      "inputs": [
        {
          "indexed": true,
          "internalType": "address",
          "name": "skillWalletOwner",
          "type": "address"
        },
        {
          "indexed": true,
          "internalType": "address",
          "name": "community",
          "type": "address"
        },
        {
          "indexed": true,
          "internalType": "uint256",
          "name": "skillWalletId",
          "type": "uint256"
        },
        {
          "components": [
            {
              "components": [
                {
                  "internalType": "uint64",
                  "name": "displayStringId",
                  "type": "uint64"
                },
                {
                  "internalType": "uint8",
                  "name": "level",
                  "type": "uint8"
                }
              ],
              "internalType": "struct Types.Skill",
              "name": "skill1",
              "type": "tuple"
            },
            {
              "components": [
                {
                  "internalType": "uint64",
                  "name": "displayStringId",
                  "type": "uint64"
                },
                {
                  "internalType": "uint8",
                  "name": "level",
                  "type": "uint8"
                }
              ],
              "internalType": "struct Types.Skill",
              "name": "skill2",
              "type": "tuple"
            },
            {
              "components": [
                {
                  "internalType": "uint64",
                  "name": "displayStringId",
                  "type": "uint64"
                },
                {
                  "internalType": "uint8",
                  "name": "level",
                  "type": "uint8"
                }
              ],
              "internalType": "struct Types.Skill",
              "name": "skill3",
              "type": "tuple"
            }
          ],
          "indexed": false,
          "internalType": "struct Types.SkillSet",
          "name": "skillSet",
          "type": "tuple"
        }
      ],
      "name": "SkillWalletCreated",
      "type": "event"
    },
    {
      "anonymous": false,
      "inputs": [
        {
          "indexed": true,
          "internalType": "address",
          "name": "from",
          "type": "address"
        },
        {
          "indexed": true,
          "internalType": "address",
          "name": "to",
          "type": "address"
        },
        {
          "indexed": true,
          "internalType": "uint256",
          "name": "tokenId",
          "type": "uint256"
        }
      ],
      "name": "Transfer",
      "type": "event"
    },
    {
      "anonymous": false,
      "inputs": [
        {
          "indexed": false,
          "internalType": "uint256",
          "name": "tokenId",
          "type": "uint256"
        },
        {
          "indexed": false,
          "internalType": "uint256",
          "name": "nonce",
          "type": "uint256"
        },
        {
          "indexed": false,
          "internalType": "uint256",
          "name": "action",
          "type": "uint256"
        }
      ],
      "name": "ValidationFailed",
      "type": "event"
    },
    {
      "anonymous": false,
      "inputs": [
        {
          "indexed": false,
          "internalType": "uint256",
          "name": "tokenId",
          "type": "uint256"
        },
        {
          "indexed": false,
          "internalType": "uint256",
          "name": "nonce",
          "type": "uint256"
        },
        {
          "indexed": false,
          "internalType": "uint256",
          "name": "action",
          "type": "uint256"
        }
      ],
      "name": "ValidationPassed",
      "type": "event"
    },
    {
      "inputs": [
        {
          "internalType": "uint256",
          "name": "skillWalletId",
          "type": "uint256"
        },
        {
          "internalType": "string",
          "name": "pubKey",
          "type": "string"
        }
      ],
      "name": "activateSkillWallet",
      "outputs": [],
      "stateMutability": "nonpayable",
      "type": "function"
    },
    {
      "inputs": [
        {
          "internalType": "address",
          "name": "to",
          "type": "address"
        },
        {
          "internalType": "uint256",
          "name": "tokenId",
          "type": "uint256"
        }
      ],
      "name": "approve",
      "outputs": [],
      "stateMutability": "nonpayable",
      "type": "function"
    },
    {
      "inputs": [
        {
          "internalType": "address",
          "name": "owner",
          "type": "address"
        }
      ],
      "name": "balanceOf",
      "outputs": [
        {
          "internalType": "uint256",
          "name": "",
          "type": "uint256"
        }
      ],
      "stateMutability": "view",
      "type": "function"
    },
    {
      "inputs": [],
      "name": "baseURI",
      "outputs": [
        {
          "internalType": "string",
          "name": "",
          "type": "string"
        }
      ],
      "stateMutability": "view",
      "type": "function"
    },
    {
      "inputs": [
        {
          "internalType": "uint256",
          "name": "skillWalletId",
          "type": "uint256"
        }
      ],
      "name": "changeCommunity",
      "outputs": [],
      "stateMutability": "nonpayable",
      "type": "function"
    },
    {
      "inputs": [
        {
          "internalType": "address",
          "name": "skillWalletOwner",
          "type": "address"
        },
        {
          "components": [
            {
              "components": [
                {
                  "internalType": "uint64",
                  "name": "displayStringId",
                  "type": "uint64"
                },
                {
                  "internalType": "uint8",
                  "name": "level",
                  "type": "uint8"
                }
              ],
              "internalType": "struct Types.Skill",
              "name": "skill1",
              "type": "tuple"
            },
            {
              "components": [
                {
                  "internalType": "uint64",
                  "name": "displayStringId",
                  "type": "uint64"
                },
                {
                  "internalType": "uint8",
                  "name": "level",
                  "type": "uint8"
                }
              ],
              "internalType": "struct Types.Skill",
              "name": "skill2",
              "type": "tuple"
            },
            {
              "components": [
                {
                  "internalType": "uint64",
                  "name": "displayStringId",
                  "type": "uint64"
                },
                {
                  "internalType": "uint8",
                  "name": "level",
                  "type": "uint8"
                }
              ],
              "internalType": "struct Types.Skill",
              "name": "skill3",
              "type": "tuple"
            }
          ],
          "internalType": "struct Types.SkillSet",
          "name": "skillSet",
          "type": "tuple"
        },
        {
          "internalType": "string",
          "name": "url",
          "type": "string"
        }
      ],
      "name": "create",
      "outputs": [],
      "stateMutability": "nonpayable",
      "type": "function"
    },
    {
      "inputs": [
        {
          "internalType": "uint256",
          "name": "skillWalletId",
          "type": "uint256"
        }
      ],
      "name": "getActiveCommunity",
      "outputs": [
        {
          "internalType": "address",
          "name": "community",
          "type": "address"
        }
      ],
      "stateMutability": "view",
      "type": "function"
    },
    {
      "inputs": [
        {
          "internalType": "uint256",
          "name": "tokenId",
          "type": "uint256"
        }
      ],
      "name": "getApproved",
      "outputs": [
        {
          "internalType": "address",
          "name": "",
          "type": "address"
        }
      ],
      "stateMutability": "view",
      "type": "function"
    },
    {
      "inputs": [
        {
          "internalType": "uint256",
          "name": "skillWalletId",
          "type": "uint256"
        }
      ],
      "name": "getCommunityHistory",
      "outputs": [
        {
          "internalType": "address[]",
          "name": "communities",
          "type": "address[]"
        }
      ],
      "stateMutability": "view",
      "type": "function"
    },
    {
      "inputs": [
        {
          "internalType": "uint256",
          "name": "skillWalletId",
          "type": "uint256"
        }
      ],
      "name": "getSkillSet",
      "outputs": [
        {
          "components": [
            {
              "components": [
                {
                  "internalType": "uint64",
                  "name": "displayStringId",
                  "type": "uint64"
                },
                {
                  "internalType": "uint8",
                  "name": "level",
                  "type": "uint8"
                }
              ],
              "internalType": "struct Types.Skill",
              "name": "skill1",
              "type": "tuple"
            },
            {
              "components": [
                {
                  "internalType": "uint64",
                  "name": "displayStringId",
                  "type": "uint64"
                },
                {
                  "internalType": "uint8",
                  "name": "level",
                  "type": "uint8"
                }
              ],
              "internalType": "struct Types.Skill",
              "name": "skill2",
              "type": "tuple"
            },
            {
              "components": [
                {
                  "internalType": "uint64",
                  "name": "displayStringId",
                  "type": "uint64"
                },
                {
                  "internalType": "uint8",
                  "name": "level",
                  "type": "uint8"
                }
              ],
              "internalType": "struct Types.Skill",
              "name": "skill3",
              "type": "tuple"
            }
          ],
          "internalType": "struct Types.SkillSet",
          "name": "skillSet",
          "type": "tuple"
        }
      ],
      "stateMutability": "view",
      "type": "function"
    },
    {
      "inputs": [
        {
          "internalType": "address",
          "name": "skillWalletOwner",
          "type": "address"
        }
      ],
      "name": "getSkillWalletIdByOwner",
      "outputs": [
        {
          "internalType": "uint256",
          "name": "",
          "type": "uint256"
        }
      ],
      "stateMutability": "view",
      "type": "function"
    },
    {
      "inputs": [],
      "name": "getTotalSkillWalletsRegistered",
      "outputs": [
        {
          "internalType": "uint256",
          "name": "",
          "type": "uint256"
        }
      ],
      "stateMutability": "view",
      "type": "function"
    },
    {
      "inputs": [
        {
          "internalType": "address",
          "name": "owner",
          "type": "address"
        },
        {
          "internalType": "address",
          "name": "operator",
          "type": "address"
        }
      ],
      "name": "isApprovedForAll",
      "outputs": [
        {
          "internalType": "bool",
          "name": "",
          "type": "bool"
        }
      ],
      "stateMutability": "view",
      "type": "function"
    },
    {
      "inputs": [
        {
          "internalType": "uint256",
          "name": "skillWalletId",
          "type": "uint256"
        }
      ],
      "name": "isSkillWalletActivated",
      "outputs": [
        {
          "internalType": "bool",
          "name": "status",
          "type": "bool"
        }
      ],
      "stateMutability": "view",
      "type": "function"
    },
    {
      "inputs": [
        {
          "internalType": "address",
          "name": "skillWalletOwner",
          "type": "address"
        }
      ],
      "name": "isSkillWalletRegistered",
      "outputs": [
        {
          "internalType": "bool",
          "name": "status",
          "type": "bool"
        }
      ],
      "stateMutability": "view",
      "type": "function"
    },
    {
      "inputs": [],
      "name": "name",
      "outputs": [
        {
          "internalType": "string",
          "name": "",
          "type": "string"
        }
      ],
      "stateMutability": "view",
      "type": "function"
    },
    {
      "inputs": [],
      "name": "owner",
      "outputs": [
        {
          "internalType": "address",
          "name": "",
          "type": "address"
        }
      ],
      "stateMutability": "view",
      "type": "function"
    },
    {
      "inputs": [
        {
          "internalType": "uint256",
          "name": "tokenId",
          "type": "uint256"
        }
      ],
      "name": "ownerOf",
      "outputs": [
        {
          "internalType": "address",
          "name": "",
          "type": "address"
        }
      ],
      "stateMutability": "view",
      "type": "function"
    },
    {
      "inputs": [],
      "name": "renounceOwnership",
      "outputs": [],
      "stateMutability": "nonpayable",
      "type": "function"
    },
    {
      "inputs": [
        {
          "internalType": "address",
          "name": "from",
          "type": "address"
        },
        {
          "internalType": "address",
          "name": "to",
          "type": "address"
        },
        {
          "internalType": "uint256",
          "name": "tokenId",
          "type": "uint256"
        }
      ],
      "name": "safeTransferFrom",
      "outputs": [],
      "stateMutability": "nonpayable",
      "type": "function"
    },
    {
      "inputs": [
        {
          "internalType": "address",
          "name": "from",
          "type": "address"
        },
        {
          "internalType": "address",
          "name": "to",
          "type": "address"
        },
        {
          "internalType": "uint256",
          "name": "tokenId",
          "type": "uint256"
        },
        {
          "internalType": "bytes",
          "name": "_data",
          "type": "bytes"
        }
      ],
      "name": "safeTransferFrom",
      "outputs": [],
      "stateMutability": "nonpayable",
      "type": "function"
    },
    {
      "inputs": [
        {
          "internalType": "address",
          "name": "operator",
          "type": "address"
        },
        {
          "internalType": "bool",
          "name": "approved",
          "type": "bool"
        }
      ],
      "name": "setApprovalForAll",
      "outputs": [],
      "stateMutability": "nonpayable",
      "type": "function"
    },
    {
      "inputs": [
        {
          "internalType": "uint256",
          "name": "",
          "type": "uint256"
        }
      ],
      "name": "skillWalletToPubKey",
      "outputs": [
        {
          "internalType": "string",
          "name": "",
          "type": "string"
        }
      ],
      "stateMutability": "view",
      "type": "function"
    },
    {
      "inputs": [
        {
          "internalType": "bytes4",
          "name": "interfaceId",
          "type": "bytes4"
        }
      ],
      "name": "supportsInterface",
      "outputs": [
        {
          "internalType": "bool",
          "name": "",
          "type": "bool"
        }
      ],
      "stateMutability": "view",
      "type": "function"
    },
    {
      "inputs": [],
      "name": "symbol",
      "outputs": [
        {
          "internalType": "string",
          "name": "",
          "type": "string"
        }
      ],
      "stateMutability": "view",
      "type": "function"
    },
    {
      "inputs": [
        {
          "internalType": "uint256",
          "name": "index",
          "type": "uint256"
        }
      ],
      "name": "tokenByIndex",
      "outputs": [
        {
          "internalType": "uint256",
          "name": "",
          "type": "uint256"
        }
      ],
      "stateMutability": "view",
      "type": "function"
    },
    {
      "inputs": [
        {
          "internalType": "address",
          "name": "owner",
          "type": "address"
        },
        {
          "internalType": "uint256",
          "name": "index",
          "type": "uint256"
        }
      ],
      "name": "tokenOfOwnerByIndex",
      "outputs": [
        {
          "internalType": "uint256",
          "name": "",
          "type": "uint256"
        }
      ],
      "stateMutability": "view",
      "type": "function"
    },
    {
      "inputs": [
        {
          "internalType": "uint256",
          "name": "tokenId",
          "type": "uint256"
        }
      ],
      "name": "tokenURI",
      "outputs": [
        {
          "internalType": "string",
          "name": "",
          "type": "string"
        }
      ],
      "stateMutability": "view",
      "type": "function"
    },
    {
      "inputs": [],
      "name": "totalSupply",
      "outputs": [
        {
          "internalType": "uint256",
          "name": "",
          "type": "uint256"
        }
      ],
      "stateMutability": "view",
      "type": "function"
    },
    {
      "inputs": [
        {
          "internalType": "address",
          "name": "from",
          "type": "address"
        },
        {
          "internalType": "address",
          "name": "to",
          "type": "address"
        },
        {
          "internalType": "uint256",
          "name": "tokenId",
          "type": "uint256"
        }
      ],
      "name": "transferFrom",
      "outputs": [],
      "stateMutability": "nonpayable",
      "type": "function"
    },
    {
      "inputs": [
        {
          "internalType": "address",
          "name": "newOwner",
          "type": "address"
        }
      ],
      "name": "transferOwnership",
      "outputs": [],
      "stateMutability": "nonpayable",
      "type": "function"
    },
    {
      "inputs": [
        {
          "internalType": "uint256",
          "name": "skillWalletId",
          "type": "uint256"
        },
        {
          "components": [
            {
              "components": [
                {
                  "internalType": "uint64",
                  "name": "displayStringId",
                  "type": "uint64"
                },
                {
                  "internalType": "uint8",
                  "name": "level",
                  "type": "uint8"
                }
              ],
              "internalType": "struct Types.Skill",
              "name": "skill1",
              "type": "tuple"
            },
            {
              "components": [
                {
                  "internalType": "uint64",
                  "name": "displayStringId",
                  "type": "uint64"
                },
                {
                  "internalType": "uint8",
                  "name": "level",
                  "type": "uint8"
                }
              ],
              "internalType": "struct Types.Skill",
              "name": "skill2",
              "type": "tuple"
            },
            {
              "components": [
                {
                  "internalType": "uint64",
                  "name": "displayStringId",
                  "type": "uint64"
                },
                {
                  "internalType": "uint8",
                  "name": "level",
                  "type": "uint8"
                }
              ],
              "internalType": "struct Types.Skill",
              "name": "skill3",
              "type": "tuple"
            }
          ],
          "internalType": "struct Types.SkillSet",
          "name": "newSkillSet",
          "type": "tuple"
        }
      ],
      "name": "updateSkillSet",
      "outputs": [],
      "stateMutability": "nonpayable",
      "type": "function"
    },
    {
      "inputs": [
        {
          "internalType": "string",
          "name": "signature",
          "type": "string"
        },
        {
          "internalType": "uint256",
          "name": "tokenId",
          "type": "uint256"
        },
        {
          "internalType": "uint256",
          "name": "action",
          "type": "uint256"
        }
      ],
      "name": "validate",
      "outputs": [],
      "stateMutability": "nonpayable",
      "type": "function"
    },
    {
      "inputs": [
        {
          "internalType": "bytes32",
          "name": "_requestId",
          "type": "bytes32"
        },
        {
          "internalType": "bool",
          "name": "_isValid",
          "type": "bool"
        }
      ],
      "name": "validationCallback",
      "outputs": [],
      "stateMutability": "nonpayable",
      "type": "function"
    }
  ],
  "bytecode": "0x60806040526001600f553480156200001657600080fd5b50604080518082018252600b81526a14dada5b1b15d85b1b195d60aa1b60208083019190915282518084019093526002835261535760f01b90830152906200006e6301ffc9a760e01b6001600160e01b036200015716565b815162000083906006906020850190620001b7565b50805162000099906007906020840190620001b7565b50620000b56380ac58cd60e01b6001600160e01b036200015716565b620000d0635b5e139f60e01b6001600160e01b036200015716565b620000eb63780e9d6360e01b6001600160e01b036200015716565b5060009050620001036001600160e01b03620001b216565b600a80546001600160a01b0319166001600160a01b038316908117909155604051919250906000907f8be0079c531659141344cd1fd0a4f28419497f9722a3daafe3b4186f6b6457e0908290a35062000290565b6001600160e01b031980821614156200018d5760405162461bcd60e51b8152600401620001849062000259565b60405180910390fd5b6001600160e01b0319166000908152602081905260409020805460ff19166001179055565b335b90565b828054600181600116156101000203166002900490600052602060002090601f016020900481019282601f10620001fa57805160ff19168380011785556200022a565b828001600101855582156200022a579182015b828111156200022a5782518255916020019190600101906200020d565b50620002389291506200023c565b5090565b620001b491905b8082111562000238576000815560010162000243565b6020808252601c908201527f4552433136353a20696e76616c696420696e7465726661636520696400000000604082015260600190565b61376580620002a06000396000f3fe608060405234801561001057600080fd5b50600436106102065760003560e01c806370a082311161011a578063a1a366f3116100ad578063c71ae3021161007c578063c71ae3021461043c578063c87b56dd14610444578063e985e9c514610457578063f2fde38b1461046a578063f3a4e1c01461047d57610206565b8063a1a366f3146103f0578063a22cb46514610403578063b50e77ff14610416578063b88d4fde1461042957610206565b80638da5cb5b116100e95780638da5cb5b146103ba5780638f4b3f59146103c2578063937b53b6146103d557806395d89b41146103e857610206565b806370a0823114610379578063715018a61461038c578063739c1cba14610394578063817ab439146103a757610206565b80632f745c591161019d57806346da7fa01161016c57806346da7fa0146103255780634f6ccce7146103385780636352211e1461034b57806365cbb7aa1461035e5780636c0360eb1461037157610206565b80632f745c59146102cc578063407ca1c7146102df57806342842e0e146102ff57806342ca96291461031257610206565b80630a73b69d116101d95780630a73b69d1461027e57806318160ddd146102915780631ad56396146102a657806323b872dd146102b957610206565b806301ffc9a71461020b57806306fdde0314610234578063081812fc14610249578063095ea7b314610269575b600080fd5b61021e6102193660046129f7565b61049d565b60405161022b9190612d6b565b60405180910390f35b61023c6104c0565b60405161022b9190612d8c565b61025c610257366004612a7d565b610557565b60405161022b9190612c3e565b61027c61027736600461298d565b6105a3565b005b61027c61028c36600461292e565b61063b565b6102996107cf565b60405161022b919061363d565b61027c6102b43660046129d3565b6107e0565b61027c6102c7366004612850565b6108e5565b6102996102da36600461298d565b61091d565b6102f26102ed366004612a7d565b61094e565b60405161022b9190612d1e565b61027c61030d366004612850565b610a0d565b610299610320366004612801565b610a28565b61027c610333366004612a95565b610a6e565b610299610346366004612a7d565b610b97565b61025c610359366004612a7d565b610bb3565b61025c61036c366004612a7d565b610be1565b61023c610c5b565b610299610387366004612801565b610cbc565b61027c610d05565b61021e6103a2366004612801565b610d8e565b61027c6103b5366004612a2f565b610dc8565b61025c611013565b61021e6103d0366004612a7d565b611022565b61027c6103e3366004612ade565b611096565b61023c611193565b61023c6103fe366004612a7d565b6111f4565b61027c6104113660046128f7565b61128f565b61027c610424366004612a7d565b61135d565b61027c610437366004612890565b611408565b610299611447565b61023c610452366004612a7d565b611453565b61021e61046536600461281c565b611599565b61027c610478366004612801565b6115c7565b61049061048b366004612a7d565b611688565b60405161022b91906135fe565b6001600160e01b0319811660009081526020819052604090205460ff165b919050565b60068054604080516020601f600260001961010060018816150201909516949094049384018190048102820181019092528281526060939092909183018282801561054c5780601f106105215761010080835404028352916020019161054c565b820191906000526020600020905b81548152906001019060200180831161052f57829003601f168201915b505050505090505b90565b600061056282611775565b6105875760405162461bcd60e51b815260040161057e9061324c565b60405180910390fd5b506000908152600460205260409020546001600160a01b031690565b60006105ae82610bb3565b9050806001600160a01b0316836001600160a01b031614156105e25760405162461bcd60e51b815260040161057e906133ae565b806001600160a01b03166105f4611788565b6001600160a01b03161480610610575061061081610465611788565b61062c5760405162461bcd60e51b815260040161057e906130e6565b610636838361178c565b505050565b61064483610cbc565b156106615760405162461bcd60e51b815260040161057e90612d9f565b600061066d60176117fa565b905061067984826117fe565b610683818361180c565b60008181526011602090815260408083208054336001600160a01b03199182168117909255601284528285208054600181810183559187528587200180549092169092179055848452601383528184208751805182549186015167ffffffffffffffff199283166001600160401b039283161760ff60401b19908116600160401b60ff93841681029190911786558c89015180519787018054918b01519187169886169890981783169084168202179096558b870151805160029096018054918a015191909516959093169490941790931692169092021790556001600160a01b03871683526014909152902081905561077d6017611850565b80336001600160a01b0316856001600160a01b03167f66d78e575b2517d4e354b4b0512628805cdb33e81571b3deff51b5c796577486866040516107c191906135fe565b60405180910390a450505050565b60006107db6002611859565b905090565b60008281526010602052604090205482906001600160a01b031633146108185760405162461bcd60e51b815260040161057e90613559565b60008181526010602052604080822080546001600160a01b03191690555182917f7cc135e0cebb02c3480ae5d74d377283180a2601f8f644edf7987b009316c63a91a281156108a3577f5f22ae4b8e4738fdfe8a3af9bf2cd2f4eb88ea73cdaad6be4626e3f550659eb3600080600060405161089693929190612d76565b60405180910390a1610636565b7fd6ea2322a7829f0d58be55c06220472d2daa82457db59f3d67e93160011fbab260008060006040516108d893929190612d76565b60405180910390a1505050565b6108f66108f0611788565b82611864565b6109125760405162461bcd60e51b815260040161057e90613487565b6106368383836118e9565b6001600160a01b0382166000908152600160205260408120610945908363ffffffff61190116565b90505b92915050565b606061095a60176117fa565b82106109785760405162461bcd60e51b815260040161057e9061318d565b6000828152601260205260409020546109a35760405162461bcd60e51b815260040161057e906135a1565b60008281526012602090815260409182902080548351818402810184019094528084529091830182828015610a0157602002820191906000526020600020905b81546001600160a01b031681526001909101906020018083116109e3575b50505050509050919050565b61063683838360405180602001604052806000815250611408565b6000610a3382610cbc565b600114610a525760405162461bcd60e51b815260040161057e90612fcf565b506001600160a01b031660009081526014602052604090205490565b610a76611788565b6001600160a01b0316610a87611013565b6001600160a01b031614610aad5760405162461bcd60e51b815260040161057e906132e4565b610ab760176117fa565b8310610ad55760405162461bcd60e51b815260040161057e9061318d565b6000838152601160205260409020546001600160a01b0316610b095760405162461bcd60e51b815260040161057e90612f1c565b60008381526015602052604090205460ff1615610b385760405162461bcd60e51b815260040161057e9061343c565b6000838152601660205260409020610b51908383612502565b50600083815260156020526040808220805460ff191660011790555184917f3b9fa7eba99fc1e57dd4fc92ee03c32e0766a7c33c9f6222a3e3d72788fe4ff691a2505050565b600080610bab60028463ffffffff61190d16565b509392505050565b600061094882604051806060016040528060298152602001613707602991396002919063ffffffff61192b16565b6000610bed60176117fa565b8210610c0b5760405162461bcd60e51b815260040161057e9061318d565b6000828152601160205260409020546001600160a01b0316610c3f5760405162461bcd60e51b815260040161057e90612f1c565b506000908152601160205260409020546001600160a01b031690565b60098054604080516020601f600260001961010060018816150201909516949094049384018190048102820181019092528281526060939092909183018282801561054c5780601f106105215761010080835404028352916020019161054c565b60006001600160a01b038216610ce45760405162461bcd60e51b815260040161057e90613143565b6001600160a01b038216600090815260016020526040902061094890611859565b610d0d611788565b6001600160a01b0316610d1e611013565b6001600160a01b031614610d445760405162461bcd60e51b815260040161057e906132e4565b600a546040516000916001600160a01b0316907f8be0079c531659141344cd1fd0a4f28419497f9722a3daafe3b4186f6b6457e0908390a3600a80546001600160a01b0319169055565b60006001600160a01b038216610db65760405162461bcd60e51b815260040161057e906133ef565b610dbf82610cbc565b60011492915050565b60008281526016602052604090205460026000196101006001841615020190911604610e065760405162461bcd60e51b815260040161057e90613368565b610e0e612580565b601954610e239030630d6ab1cb60e11b611942565b60408051808201825260068152657075624b657960d01b6020808301919091526000878152601682528390208054845160026001831615610100026000190190921691909104601f8101849004840282018401909552848152949550610eed9492939091830182828015610ed85780601f10610ead57610100808354040283529160200191610ed8565b820191906000526020600020905b815481529060010190602001808311610ebb57829003601f168201915b50505050508361196d9092919063ffffffff16565b610f58604051806040016040528060098152602001687369676e617475726560b81b81525086868080601f01602080910402602001604051908101604052809392919081815260200183838082843760009201919091525086949392505063ffffffff61196d169050565b610fc06040518060400160405280600b81526020016a19d95d139bdb98d9555c9b60aa1b815250610f8885611997565b610f9185611997565b604051602001610fa2929190612bb4565b60408051601f1981840301815291905283919063ffffffff61196d16565b610ff06040518060400160405280600b81526020016a19195b139bdb98d9555c9b60aa1b815250610f8885611997565b601854601a5461100b916001600160a01b0316908390611a71565b505050505050565b600a546001600160a01b031690565b600061102e60176117fa565b821061104c5760405162461bcd60e51b815260040161057e9061318d565b6000828152601160205260409020546001600160a01b03166110805760405162461bcd60e51b815260040161057e90612f1c565b5060009081526015602052604090205460ff1690565b6110a060176117fa565b82106110be5760405162461bcd60e51b815260040161057e9061318d565b6000828152601360209081526040918290208351805182549184015160ff908116600160401b90810260ff60401b196001600160401b0394851667ffffffffffffffff19968716178116919091178655868901518051600188018054928a01518616850291871692881692909217831617905587890151805160029097018054919098015190931690910294909216921691909117161790555182907f6abce99645fd09e69c8d2e751e864666123a5a52cb47f74f31a224f9a253ce0c906111879084906135fe565b60405180910390a25050565b60078054604080516020601f600260001961010060018816150201909516949094049384018190048102820181019092528281526060939092909183018282801561054c5780601f106105215761010080835404028352916020019161054c565b60166020908152600091825260409182902080548351601f6002600019610100600186161502019093169290920491820184900484028101840190945280845290918301828280156112875780601f1061125c57610100808354040283529160200191611287565b820191906000526020600020905b81548152906001019060200180831161126a57829003601f168201915b505050505081565b611297611788565b6001600160a01b0316826001600160a01b031614156112c85760405162461bcd60e51b815260040161057e9061301d565b80600560006112d5611788565b6001600160a01b03908116825260208083019390935260409182016000908120918716808252919093529120805460ff191692151592909217909155611319611788565b6001600160a01b03167f17307eab39ab6107e8899845ad3d59bd9653f200f220920489ca2b5937696c31836040516113519190612d6b565b60405180910390a35050565b61136760176117fa565b81106113855760405162461bcd60e51b815260040161057e9061318d565b60008181526011602090815260408083208054336001600160a01b031991821681179092556012845282852080546001810182559086529390942090920180549093168217909255905182917f40e6ddae3d2fcfa2a7f756d08e3eaff271dc6f378630bac80f5ff5b3da18975c916113fd9190612c3e565b60405180910390a250565b611419611413611788565b83611864565b6114355760405162461bcd60e51b815260040161057e90613487565b61144184848484611bb0565b50505050565b60006107db60176117fa565b606061145e82611775565b61147a5760405162461bcd60e51b815260040161057e90613319565b60008281526008602090815260409182902080548351601f600260001961010060018616150201909316929092049182018490048402810184019094528084526060939283018282801561150f5780601f106114e45761010080835404028352916020019161150f565b820191906000526020600020905b8154815290600101906020018083116114f257829003601f168201915b505050505090506060611520610c5b565b9050805160001415611534575090506104bb565b81511561156657808260405160200161154e929190612b86565b604051602081830303815290604052925050506104bb565b8061157085611997565b604051602001611581929190612b86565b60405160208183030381529060405292505050919050565b6001600160a01b03918216600090815260056020908152604080832093909416825291909152205460ff1690565b6115cf611788565b6001600160a01b03166115e0611013565b6001600160a01b0316146116065760405162461bcd60e51b815260040161057e906132e4565b6001600160a01b03811661162c5760405162461bcd60e51b815260040161057e90612e9f565b600a546040516001600160a01b038084169216907f8be0079c531659141344cd1fd0a4f28419497f9722a3daafe3b4186f6b6457e090600090a3600a80546001600160a01b0319166001600160a01b0392909216919091179055565b6116906125b5565b61169a60176117fa565b82106116b85760405162461bcd60e51b815260040161057e9061318d565b6000828152601160205260409020546001600160a01b03166116ec5760405162461bcd60e51b815260040161057e90612f1c565b50600090815260136020908152604091829020825160a08101845281546001600160401b038082166060840190815260ff600160401b938490048116608086015290845286518088018852600186015480841682528490048216818801528487015286518088018852600290950154918216855291900416928201929092529181019190915290565b600061094860028363ffffffff611be316565b3390565b600081815260046020526040902080546001600160a01b0319166001600160a01b03841690811790915581906117c182610bb3565b6001600160a01b03167f8c5be1e5ebec7d5bd14f71427d1e84f3dd0314c0f7b2291e5b200ac8c7c3b92560405160405180910390a45050565b5490565b6118088282611bef565b5050565b61181582611775565b6118315760405162461bcd60e51b815260040161057e90613298565b60008281526008602090815260409091208251610636928401906125e2565b80546001019055565b6000610948826117fa565b600061186f82611775565b61188b5760405162461bcd60e51b815260040161057e9061309a565b600061189683610bb3565b9050806001600160a01b0316846001600160a01b031614806118d15750836001600160a01b03166118c684610557565b6001600160a01b0316145b806118e157506118e18185611599565b949350505050565b60405162461bcd60e51b815260040161057e9061350f565b60006109458383611c09565b600080808061191c8686611c4e565b909450925050505b9250929050565b6000611938848484611caa565b90505b9392505050565b61194a612580565b611952612580565b6119648186868663ffffffff611d0916565b95945050505050565b6080830151611982908363ffffffff611d4616565b6080830151610636908263ffffffff611d4616565b6060816119bc57506040805180820190915260018152600360fc1b60208201526104bb565b8160005b81156119d457600101600a820491506119c0565b6060816001600160401b03811180156119ec57600080fd5b506040519080825280601f01601f191660200182016040528015611a17576020820181803683370190505b50859350905060001982015b8315611a6857600a840660300160f81b82828060019003935081518110611a4657fe5b60200101906001600160f81b031916908160001a905350600a84049350611a23565b50949350505050565b600030600f54604051602001611a88929190612b64565b60408051808303601f190181529181528151602092830120600f5460608701526000818152601090935281832080546001600160a01b0319166001600160a01b038916179055905190925082917fb5e6e01e79f91267dc17b4e6314d5d4d03593d2ceee0fbb452b750bd70ea5af991a2600d546001600160a01b0316634000aea08584611b1487611d63565b6040518463ffffffff1660e01b8152600401611b3293929190612cf7565b602060405180830381600087803b158015611b4c57600080fd5b505af1158015611b60573d6000803e3d6000fd5b505050506040513d601f19601f82011682018060405250810190611b8491906129b7565b611ba05760405162461bcd60e51b815260040161057e90612f8c565b600f805460010190559392505050565b611bbb8484846118e9565b611bc784848484611ddf565b6114415760405162461bcd60e51b815260040161057e90612e4d565b60006109458383611ec4565b611808828260405180602001604052806000815250611edc565b81546000908210611c2c5760405162461bcd60e51b815260040161057e90612e0b565b826000018281548110611c3b57fe5b9060005260206000200154905092915050565b815460009081908310611c735760405162461bcd60e51b815260040161057e906131d5565b6000846000018481548110611c8457fe5b906000526020600020906002020190508060000154816001015492509250509250929050565b60008281526001840160205260408120548281611cda5760405162461bcd60e51b815260040161057e9190612d8c565b50846000016001820381548110611ced57fe5b9060005260206000209060020201600101549150509392505050565b611d11612580565b611d218560800151610100611f0f565b50509183526001600160a01b031660208301526001600160e01b031916604082015290565b611d538260038351611f49565b610636828263ffffffff61205216565b6060634042994660e01b60008084600001518560200151866040015187606001516001896080015160000151604051602401611da6989796959493929190612c8f565b60408051601f198184030181529190526020810180516001600160e01b03166001600160e01b0319909316929092179091529050919050565b6000611df3846001600160a01b031661206c565b611dff575060016118e1565b6060611e8d630a85bd0160e11b611e14611788565b888787604051602401611e2a9493929190612c52565b604051602081830303815290604052906001600160e01b0319166020820180516001600160e01b0383818316178352505050506040518060600160405280603281526020016136d5603291396001600160a01b038816919063ffffffff61207216565b9050600081806020019051810190611ea59190612a13565b6001600160e01b031916630a85bd0160e11b1492505050949350505050565b60009081526001919091016020526040902054151590565b611ee68383612081565b611ef36000848484611ddf565b6106365760405162461bcd60e51b815260040161057e90612e4d565b611f17612650565b6020820615611f2c5760208206602003820191505b506020828101829052604080518085526000815290920101905290565b60178111611f7057611f6a8360e0600585901b16831763ffffffff61215116565b50610636565b60ff8111611fa657611f93836018611fe0600586901b161763ffffffff61215116565b50611f6a8382600163ffffffff61216916565b61ffff8111611fdd57611fca836019611fe0600586901b161763ffffffff61215116565b50611f6a8382600263ffffffff61216916565b63ffffffff81116120165761200383601a611fe0600586901b161763ffffffff61215116565b50611f6a8382600463ffffffff61216916565b6001600160401b0381116106365761203f83601b611fe0600586901b161763ffffffff61215116565b506114418382600863ffffffff61216916565b61205a612650565b61094583846000015151848551612182565b3b151590565b6060611938848460008561222e565b6001600160a01b0382166120a75760405162461bcd60e51b815260040161057e90613217565b6120b081611775565b156120cd5760405162461bcd60e51b815260040161057e90612ee5565b6120d960008383610636565b6001600160a01b0382166000908152600160205260409020612101908263ffffffff6122ef16565b506121146002828463ffffffff6122fb16565b5060405181906001600160a01b038416906000907fddf252ad1be2c89b69c2b068fc378daa952ba7f163c4a11628f55a4df523b3ef908290a45050565b612159612650565b6109458384600001515184612311565b612171612650565b61193884856000015151858561235c565b61218a612650565b825182111561219857600080fd5b846020015182850111156121c2576121c2856121ba87602001518786016123ba565b6002026123d1565b6000808651805187602083010193508088870111156121e15787860182525b505050602084015b602084106122085780518252601f1990930192602091820191016121e9565b51815160001960208690036101000a019081169019919091161790525083949350505050565b6060824710156122505760405162461bcd60e51b815260040161057e90613054565b6122598561206c565b6122755760405162461bcd60e51b815260040161057e906134d8565b60006060866001600160a01b031685876040516122929190612b48565b60006040518083038185875af1925050503d80600081146122cf576040519150601f19603f3d011682016040523d82523d6000602084013e6122d4565b606091505b50915091506122e48282866123e8565b979650505050505050565b60006109458383612421565b600061193884846001600160a01b03851661246b565b612319612650565b83602001518310612335576123358485602001516002026123d1565b835180516020858301018481535080851415612352576001810182525b5093949350505050565b612364612650565b8460200151848301111561238157612381858584016002026123d1565b60006001836101000a0390508551838682010185831982511617815250805184870111156123af5783860181525b509495945050505050565b6000818311156123cb575081610948565b50919050565b81516123dd8383611f0f565b506114418382612052565b606083156123f757508161193b565b8251156124075782518084602001fd5b8160405162461bcd60e51b815260040161057e9190612d8c565b600061242d8383611ec4565b61246357508154600181810184556000848152602080822090930184905584548482528286019093526040902091909155610948565b506000610948565b6000828152600184016020526040812054806124d057505060408051808201825283815260208082018481528654600181810189556000898152848120955160029093029095019182559151908201558654868452818801909252929091205561193b565b828560000160018303815481106124e357fe5b906000526020600020906002020160010181905550600091505061193b565b828054600181600116156101000203166002900490600052602060002090601f016020900481019282601f106125435782800160ff19823516178555612570565b82800160010185558215612570579182015b82811115612570578235825591602001919060010190612555565b5061257c92915061266a565b5090565b6040805160a0810182526000808252602082018190529181018290526060810191909152608081016125b0612650565b905290565b60405180606001604052806125c8612684565b81526020016125d5612684565b81526020016125b0612684565b828054600181600116156101000203166002900490600052602060002090601f016020900481019282601f1061262357805160ff1916838001178555612570565b82800160010185558215612570579182015b82811115612570578251825591602001919060010190612635565b604051806040016040528060608152602001600081525090565b61055491905b8082111561257c5760008155600101612670565b604080518082019091526000808252602082015290565b80356001600160a01b038116811461094857600080fd5b600082601f8301126126c2578081fd5b81356001600160401b038111156126d7578182fd5b6126ea601f8201601f1916602001613646565b915080825283602082850101111561270157600080fd5b8060208401602084013760009082016020015292915050565b60008083601f84011261272b578182fd5b5081356001600160401b03811115612741578182fd5b60208301915083602082850101111561192457600080fd5b600060c0828403121561276a578081fd5b6127746060613646565b905061278083836127ac565b815261278f83604084016127ac565b60208201526127a183608084016127ac565b604082015292915050565b6000604082840312156127bd578081fd5b6127c76040613646565b905081356001600160401b03811681146127e057600080fd5b8152602082013560ff811681146127f657600080fd5b602082015292915050565b600060208284031215612812578081fd5b610945838361269b565b6000806040838503121561282e578081fd5b612838848461269b565b9150612847846020850161269b565b90509250929050565b600080600060608486031215612864578081fd5b833561286f81613698565b9250602084013561287f81613698565b929592945050506040919091013590565b600080600080608085870312156128a5578081fd5b6128af868661269b565b93506128be866020870161269b565b92506040850135915060608501356001600160401b038111156128df578182fd5b6128eb878288016126b2565b91505092959194509250565b60008060408385031215612909578182fd5b612913848461269b565b91506020830135612923816136b0565b809150509250929050565b60008060006101008486031215612943578283fd5b833561294e81613698565b925061295d8560208601612759565b915060e08401356001600160401b03811115612977578182fd5b612983868287016126b2565b9150509250925092565b6000806040838503121561299f578182fd5b6129a9848461269b565b946020939093013593505050565b6000602082840312156129c8578081fd5b815161193b816136b0565b600080604083850312156129e5578182fd5b823591506020830135612923816136b0565b600060208284031215612a08578081fd5b813561193b816136be565b600060208284031215612a24578081fd5b815161193b816136be565b60008060008060608587031215612a44578182fd5b84356001600160401b03811115612a59578283fd5b612a658782880161271a565b90989097506020870135966040013595509350505050565b600060208284031215612a8e578081fd5b5035919050565b600080600060408486031215612aa9578081fd5b8335925060208401356001600160401b03811115612ac5578182fd5b612ad18682870161271a565b9497909650939450505050565b60008060e08385031215612af0578182fd5b823591506128478460208501612759565b60008151808452612b1981602086016020860161366c565b601f01601f19169290920160200192915050565b80516001600160401b0316825260209081015160ff16910152565b60008251612b5a81846020870161366c565b9190910192915050565b60609290921b6bffffffffffffffffffffffff19168252601482015260340190565b60008351612b9881846020880161366c565b8351908301612bab82826020880161366c565b01949350505050565b60007f68747470733a2f2f6170692e64697374726962757465642e746f776e2f61706982526c2f736b696c6c77616c6c65742f60981b60208301528351612c0281602d85016020880161366c565b8083016e2f6e6f6e6365733f616374696f6e3d60881b602d82015284519150612c3282603c83016020880161366c565b01603c01949350505050565b6001600160a01b0391909116815260200190565b6001600160a01b0385811682528416602082015260408101839052608060608201819052600090612c8590830184612b01565b9695505050505050565b6001600160a01b0389811682526020820189905260408201889052861660608201526001600160e01b03198516608082015260a0810184905260c0810183905261010060e08201819052600090612ce883820185612b01565b9b9a5050505050505050505050565b600060018060a01b0385168252836020830152606060408301526119646060830184612b01565b6020808252825182820181905260009190848201906040850190845b81811015612d5f5783516001600160a01b031683529284019291840191600101612d3a565b50909695505050505050565b901515815260200190565b9283526020830191909152604082015260600190565b6000602082526109456020830184612b01565b60208082526046908201527f536b696c6c57616c6c65743a20546865726520697320536b696c6c57616c6c6560408201527f7420616c7265616479207265676973746572656420666f722074686973206164606082015265323932b9b99760d11b608082015260a00190565b60208082526022908201527f456e756d657261626c655365743a20696e646578206f7574206f6620626f756e604082015261647360f01b606082015260800190565b60208082526032908201527f4552433732313a207472616e7366657220746f206e6f6e20455243373231526560408201527131b2b4bb32b91034b6b83632b6b2b73a32b960711b606082015260800190565b60208082526026908201527f4f776e61626c653a206e6577206f776e657220697320746865207a65726f206160408201526564647265737360d01b606082015260800190565b6020808252601c908201527f4552433732313a20746f6b656e20616c7265616479206d696e74656400000000604082015260600190565b6020808252604a908201527f536b696c6c57616c6c65743a2054686520536b696c6c57616c6c65742069732060408201527f6e6f7420696e20616e7920636f6d6d756e6974792c20696e76616c696420536b60608201526934b6362bb0b63632ba1760b11b608082015260a00190565b60208082526023908201527f756e61626c6520746f207472616e73666572416e6443616c6c20746f206f7261604082015262636c6560e81b606082015260800190565b6020808252602e908201527f536b696c6c57616c6c65743a2054686520536b696c6c57616c6c6574206f776e60408201526d32b91034b99034b73b30b634b21760911b606082015260800190565b60208082526019908201527f4552433732313a20617070726f766520746f2063616c6c657200000000000000604082015260600190565b60208082526026908201527f416464726573733a20696e73756666696369656e742062616c616e636520666f6040820152651c8818d85b1b60d21b606082015260800190565b6020808252602c908201527f4552433732313a206f70657261746f7220717565727920666f72206e6f6e657860408201526b34b9ba32b73a103a37b5b2b760a11b606082015260800190565b60208082526038908201527f4552433732313a20617070726f76652063616c6c6572206973206e6f74206f7760408201527f6e6572206e6f7220617070726f76656420666f7220616c6c0000000000000000606082015260800190565b6020808252602a908201527f4552433732313a2062616c616e636520717565727920666f7220746865207a65604082015269726f206164647265737360b01b606082015260800190565b60208082526028908201527f536b696c6c57616c6c65743a20736b696c6c57616c6c65744964206f7574206f60408201526733103930b733b29760c11b606082015260800190565b60208082526022908201527f456e756d657261626c654d61703a20696e646578206f7574206f6620626f756e604082015261647360f01b606082015260800190565b6020808252818101527f4552433732313a206d696e7420746f20746865207a65726f2061646472657373604082015260600190565b6020808252602c908201527f4552433732313a20617070726f76656420717565727920666f72206e6f6e657860408201526b34b9ba32b73a103a37b5b2b760a11b606082015260800190565b6020808252602c908201527f4552433732314d657461646174613a2055524920736574206f66206e6f6e657860408201526b34b9ba32b73a103a37b5b2b760a11b606082015260800190565b6020808252818101527f4f776e61626c653a2063616c6c6572206973206e6f7420746865206f776e6572604082015260600190565b6020808252602f908201527f4552433732314d657461646174613a2055524920717565727920666f72206e6f60408201526e3732bc34b9ba32b73a103a37b5b2b760891b606082015260800190565b60208082526026908201527f536b696c6c57616c6c65742073686f756c64206265206163746976617465642060408201526566697273742160d01b606082015260800190565b60208082526021908201527f4552433732313a20617070726f76616c20746f2063757272656e74206f776e656040820152603960f91b606082015260800190565b6020808252602d908201527f536b696c6c57616c6c65743a20496e76616c696420736b696c6c57616c6c657460408201526c4f776e6572206164647265737360981b606082015260800190565b6020808252602b908201527f536b696c6c57616c6c65743a20536b696c6c2077616c6c657420616c7265616460408201526a1e481858dd1a5d985d195960aa1b606082015260800190565b60208082526031908201527f4552433732313a207472616e736665722063616c6c6572206973206e6f74206f6040820152701ddb995c881b9bdc88185c1c1c9bdd9959607a1b606082015260800190565b6020808252601d908201527f416464726573733a2063616c6c20746f206e6f6e2d636f6e7472616374000000604082015260600190565b6020808252602a908201527f536b696c6c57616c6c65743a20536b696c6c57616c6c6574207472616e7366656040820152691c88191a5cd8589b195960b21b606082015260800190565b60208082526028908201527f536f75726365206d75737420626520746865206f7261636c65206f6620746865604082015267081c995c5d595cdd60c21b606082015260800190565b6020808252603a908201527f536b696c6c57616c6c65743a2054686520536b696c6c57616c6c65742069732060408201527f6e6f742070617274206f6620616e7920636f6d6d756e6974792e000000000000606082015260800190565b600060c082019050613611828451612b2d565b60208301516136236040840182612b2d565b5060408301516136366080840182612b2d565b5092915050565b90815260200190565b6040518181016001600160401b038111828210171561366457600080fd5b604052919050565b60005b8381101561368757818101518382015260200161366f565b838111156114415750506000910152565b6001600160a01b03811681146136ad57600080fd5b50565b80151581146136ad57600080fd5b6001600160e01b0319811681146136ad57600080fdfe4552433732313a207472616e7366657220746f206e6f6e20455243373231526563656976657220696d706c656d656e7465724552433732313a206f776e657220717565727920666f72206e6f6e6578697374656e7420746f6b656ea2646970667358221220889cc204b0205c5ee1b40714a650be2511e4a7f7eb4bf21c2abf9fdd87405ece64736f6c634300060a0033",
  "linkReferences": {},
  "deployedLinkReferences": {}
}